{
	"contract/CrowdfundingPlatform.sol": {
		"CrowdfundingPlatform": {
			"abi": [
				{
					"anonymous": false,
					"inputs": [
						{
							"indexed": true,
							"internalType": "uint256",
							"name": "campaignId",
							"type": "uint256"
						},
						{
							"indexed": false,
							"internalType": "string",
							"name": "name",
							"type": "string"
						},
						{
							"indexed": false,
							"internalType": "uint256",
							"name": "targetAmount",
							"type": "uint256"
						},
						{
							"indexed": false,
							"internalType": "uint256",
							"name": "deadline",
							"type": "uint256"
						},
						{
							"indexed": false,
							"internalType": "address",
							"name": "creator",
							"type": "address"
						}
					],
					"name": "CampaignCreated",
					"type": "event"
				},
				{
					"anonymous": false,
					"inputs": [
						{
							"indexed": true,
							"internalType": "uint256",
							"name": "campaignId",
							"type": "uint256"
						},
						{
							"indexed": false,
							"internalType": "enum CrowdfundingPlatform.CampaignStatus",
							"name": "status",
							"type": "uint8"
						}
					],
					"name": "CampaignFinalized",
					"type": "event"
				},
				{
					"anonymous": false,
					"inputs": [
						{
							"indexed": true,
							"internalType": "uint256",
							"name": "campaignId",
							"type": "uint256"
						},
						{
							"indexed": true,
							"internalType": "address",
							"name": "contributor",
							"type": "address"
						},
						{
							"indexed": false,
							"internalType": "uint256",
							"name": "amount",
							"type": "uint256"
						}
					],
					"name": "ContributionMade",
					"type": "event"
				},
				{
					"anonymous": false,
					"inputs": [
						{
							"indexed": true,
							"internalType": "uint256",
							"name": "campaignId",
							"type": "uint256"
						},
						{
							"indexed": false,
							"internalType": "uint256",
							"name": "milestoneIndex",
							"type": "uint256"
						},
						{
							"indexed": false,
							"internalType": "uint256",
							"name": "amount",
							"type": "uint256"
						}
					],
					"name": "FundsReleased",
					"type": "event"
				},
				{
					"anonymous": false,
					"inputs": [
						{
							"indexed": true,
							"internalType": "uint256",
							"name": "campaignId",
							"type": "uint256"
						},
						{
							"indexed": false,
							"internalType": "uint256",
							"name": "milestoneIndex",
							"type": "uint256"
						}
					],
					"name": "MilestoneApproved",
					"type": "event"
				},
				{
					"anonymous": false,
					"inputs": [
						{
							"indexed": true,
							"internalType": "uint256",
							"name": "campaignId",
							"type": "uint256"
						},
						{
							"indexed": true,
							"internalType": "address",
							"name": "contributor",
							"type": "address"
						},
						{
							"indexed": false,
							"internalType": "uint256",
							"name": "amount",
							"type": "uint256"
						}
					],
					"name": "RefundClaimed",
					"type": "event"
				},
				{
					"inputs": [
						{
							"internalType": "uint256",
							"name": "_campaignId",
							"type": "uint256"
						},
						{
							"internalType": "uint256",
							"name": "_milestoneIndex",
							"type": "uint256"
						}
					],
					"name": "approveMilestone",
					"outputs": [],
					"stateMutability": "nonpayable",
					"type": "function"
				},
				{
					"inputs": [],
					"name": "campaignCounter",
					"outputs": [
						{
							"internalType": "uint256",
							"name": "",
							"type": "uint256"
						}
					],
					"stateMutability": "view",
					"type": "function"
				},
				{
					"inputs": [
						{
							"internalType": "uint256",
							"name": "",
							"type": "uint256"
						}
					],
					"name": "campaigns",
					"outputs": [
						{
							"internalType": "uint256",
							"name": "id",
							"type": "uint256"
						},
						{
							"internalType": "string",
							"name": "name",
							"type": "string"
						},
						{
							"internalType": "string",
							"name": "description",
							"type": "string"
						},
						{
							"internalType": "uint256",
							"name": "targetAmount",
							"type": "uint256"
						},
						{
							"internalType": "uint256",
							"name": "deadline",
							"type": "uint256"
						},
						{
							"internalType": "address payable",
							"name": "creator",
							"type": "address"
						},
						{
							"internalType": "uint256",
							"name": "totalContributed",
							"type": "uint256"
						},
						{
							"internalType": "enum CrowdfundingPlatform.CampaignStatus",
							"name": "status",
							"type": "uint8"
						},
						{
							"internalType": "uint256",
							"name": "contributorCount",
							"type": "uint256"
						}
					],
					"stateMutability": "view",
					"type": "function"
				},
				{
					"inputs": [
						{
							"internalType": "uint256",
							"name": "_campaignId",
							"type": "uint256"
						}
					],
					"name": "claimRefund",
					"outputs": [],
					"stateMutability": "nonpayable",
					"type": "function"
				},
				{
					"inputs": [
						{
							"internalType": "uint256",
							"name": "_campaignId",
							"type": "uint256"
						}
					],
					"name": "contribute",
					"outputs": [],
					"stateMutability": "payable",
					"type": "function"
				},
				{
					"inputs": [
						{
							"internalType": "string",
							"name": "_name",
							"type": "string"
						},
						{
							"internalType": "string",
							"name": "_description",
							"type": "string"
						},
						{
							"internalType": "uint256",
							"name": "_targetAmount",
							"type": "uint256"
						},
						{
							"internalType": "uint256",
							"name": "_deadline",
							"type": "uint256"
						},
						{
							"internalType": "string[]",
							"name": "_milestoneDescriptions",
							"type": "string[]"
						},
						{
							"internalType": "uint256[]",
							"name": "_milestoneAmounts",
							"type": "uint256[]"
						}
					],
					"name": "createCampaign",
					"outputs": [],
					"stateMutability": "nonpayable",
					"type": "function"
				},
				{
					"inputs": [
						{
							"internalType": "uint256",
							"name": "_campaignId",
							"type": "uint256"
						}
					],
					"name": "finalizeCampaign",
					"outputs": [],
					"stateMutability": "nonpayable",
					"type": "function"
				},
				{
					"inputs": [],
					"name": "getAllCampaigns",
					"outputs": [
						{
							"internalType": "uint256[]",
							"name": "",
							"type": "uint256[]"
						}
					],
					"stateMutability": "view",
					"type": "function"
				},
				{
					"inputs": [
						{
							"internalType": "uint256",
							"name": "_campaignId",
							"type": "uint256"
						}
					],
					"name": "getCampaignContributors",
					"outputs": [
						{
							"internalType": "address[]",
							"name": "",
							"type": "address[]"
						}
					],
					"stateMutability": "view",
					"type": "function"
				},
				{
					"inputs": [
						{
							"internalType": "uint256",
							"name": "_campaignId",
							"type": "uint256"
						}
					],
					"name": "getCampaignDetails",
					"outputs": [
						{
							"internalType": "string",
							"name": "name",
							"type": "string"
						},
						{
							"internalType": "string",
							"name": "description",
							"type": "string"
						},
						{
							"internalType": "uint256",
							"name": "targetAmount",
							"type": "uint256"
						},
						{
							"internalType": "uint256",
							"name": "totalContributed",
							"type": "uint256"
						},
						{
							"internalType": "uint256",
							"name": "deadline",
							"type": "uint256"
						},
						{
							"internalType": "address",
							"name": "creator",
							"type": "address"
						},
						{
							"internalType": "enum CrowdfundingPlatform.CampaignStatus",
							"name": "status",
							"type": "uint8"
						},
						{
							"internalType": "uint256",
							"name": "milestoneCount",
							"type": "uint256"
						}
					],
					"stateMutability": "view",
					"type": "function"
				},
				{
					"inputs": [
						{
							"internalType": "uint256",
							"name": "_campaignId",
							"type": "uint256"
						},
						{
							"internalType": "address",
							"name": "_contributor",
							"type": "address"
						}
					],
					"name": "getContributorInfo",
					"outputs": [
						{
							"internalType": "uint256",
							"name": "contribution",
							"type": "uint256"
						},
						{
							"internalType": "bool",
							"name": "refundClaimed",
							"type": "bool"
						}
					],
					"stateMutability": "view",
					"type": "function"
				},
				{
					"inputs": [
						{
							"internalType": "uint256",
							"name": "_campaignId",
							"type": "uint256"
						},
						{
							"internalType": "uint256",
							"name": "_milestoneIndex",
							"type": "uint256"
						}
					],
					"name": "getMilestoneStatus",
					"outputs": [
						{
							"internalType": "string",
							"name": "description",
							"type": "string"
						},
						{
							"internalType": "uint256",
							"name": "amount",
							"type": "uint256"
						},
						{
							"internalType": "bool",
							"name": "isApproved",
							"type": "bool"
						},
						{
							"internalType": "uint256",
							"name": "approvalCount",
							"type": "uint256"
						}
					],
					"stateMutability": "view",
					"type": "function"
				},
				{
					"inputs": [
						{
							"internalType": "uint256",
							"name": "_campaignId",
							"type": "uint256"
						}
					],
					"name": "getTotalContributions",
					"outputs": [
						{
							"internalType": "uint256",
							"name": "",
							"type": "uint256"
						}
					],
					"stateMutability": "view",
					"type": "function"
				}
			],
			"devdoc": {
				"kind": "dev",
				"methods": {},
				"version": 1
			},
			"evm": {
				"assembly": "    /* \"contract/CrowdfundingPlatform.sol\":60:8088  contract CrowdfundingPlatform {... */\n  mstore(0x40, 0x80)\n  callvalue\n  dup1\n  iszero\n  tag_1\n  jumpi\n  0x00\n  dup1\n  revert\ntag_1:\n  pop\n  dataSize(sub_0)\n  dup1\n  dataOffset(sub_0)\n  0x00\n  codecopy\n  0x00\n  return\nstop\n\nsub_0: assembly {\n        /* \"contract/CrowdfundingPlatform.sol\":60:8088  contract CrowdfundingPlatform {... */\n      mstore(0x40, 0x80)\n      jumpi(tag_1, lt(calldatasize, 0x04))\n      shr(0xe0, calldataload(0x00))\n      dup1\n      0x86cdf604\n      gt\n      tag_15\n      jumpi\n      dup1\n      0xd993de62\n      gt\n      tag_16\n      jumpi\n      dup1\n      0xd993de62\n      eq\n      tag_11\n      jumpi\n      dup1\n      0xe8049da1\n      eq\n      tag_12\n      jumpi\n      dup1\n      0xe9dea525\n      eq\n      tag_13\n      jumpi\n      dup1\n      0xfca604d7\n      eq\n      tag_14\n      jumpi\n      jump(tag_1)\n    tag_16:\n      dup1\n      0x86cdf604\n      eq\n      tag_8\n      jumpi\n      dup1\n      0x8f9eae2a\n      eq\n      tag_9\n      jumpi\n      dup1\n      0xc1cbbca7\n      eq\n      tag_10\n      jumpi\n      jump(tag_1)\n    tag_15:\n      dup1\n      0x141961bc\n      eq\n      tag_2\n      jumpi\n      dup1\n      0x20913da5\n      eq\n      tag_3\n      jumpi\n      dup1\n      0x37c6bcaf\n      eq\n      tag_4\n      jumpi\n      dup1\n      0x5b7baf64\n      eq\n      tag_5\n      jumpi\n      dup1\n      0x5bd1baaf\n      eq\n      tag_6\n      jumpi\n      dup1\n      0x6b5ca27d\n      eq\n      tag_7\n      jumpi\n    tag_1:\n      0x00\n      dup1\n      revert\n        /* \"contract/CrowdfundingPlatform.sol\":886:931  mapping(uint256 => Campaign) public campaigns */\n    tag_2:\n      callvalue\n      dup1\n      iszero\n      tag_17\n      jumpi\n      0x00\n      dup1\n      revert\n    tag_17:\n      pop\n      tag_18\n      0x04\n      dup1\n      calldatasize\n      sub\n      dup2\n      add\n      swap1\n      tag_19\n      swap2\n      swap1\n      tag_20\n      jump\t// in\n    tag_19:\n      tag_21\n      jump\t// in\n    tag_18:\n      mload(0x40)\n      tag_22\n      swap10\n      swap9\n      swap8\n      swap7\n      swap6\n      swap5\n      swap4\n      swap3\n      swap2\n      swap1\n      tag_23\n      jump\t// in\n    tag_22:\n      mload(0x40)\n      dup1\n      swap2\n      sub\n      swap1\n      return\n        /* \"contract/CrowdfundingPlatform.sol\":3686:4520  function approveMilestone(uint256 _campaignId, uint256 _milestoneIndex) public {... */\n    tag_3:\n      callvalue\n      dup1\n      iszero\n      tag_24\n      jumpi\n      0x00\n      dup1\n      revert\n    tag_24:\n      pop\n      tag_25\n      0x04\n      dup1\n      calldatasize\n      sub\n      dup2\n      add\n      swap1\n      tag_26\n      swap2\n      swap1\n      tag_27\n      jump\t// in\n    tag_26:\n      tag_28\n      jump\t// in\n    tag_25:\n      stop\n        /* \"contract/CrowdfundingPlatform.sol\":1526:2909  function createCampaign(... */\n    tag_4:\n      callvalue\n      dup1\n      iszero\n      tag_29\n      jumpi\n      0x00\n      dup1\n      revert\n    tag_29:\n      pop\n      tag_30\n      0x04\n      dup1\n      calldatasize\n      sub\n      dup2\n      add\n      swap1\n      tag_31\n      swap2\n      swap1\n      tag_32\n      jump\t// in\n    tag_31:\n      tag_33\n      jump\t// in\n    tag_30:\n      stop\n        /* \"contract/CrowdfundingPlatform.sol\":4528:5233  function claimRefund(uint256 _campaignId) public {... */\n    tag_5:\n      callvalue\n      dup1\n      iszero\n      tag_34\n      jumpi\n      0x00\n      dup1\n      revert\n    tag_34:\n      pop\n      tag_35\n      0x04\n      dup1\n      calldatasize\n      sub\n      dup2\n      add\n      swap1\n      tag_36\n      swap2\n      swap1\n      tag_20\n      jump\t// in\n    tag_36:\n      tag_37\n      jump\t// in\n    tag_35:\n      stop\n        /* \"contract/CrowdfundingPlatform.sol\":7891:8085  function getTotalContributions(uint256 _campaignId) public view returns (uint256) {... */\n    tag_6:\n      callvalue\n      dup1\n      iszero\n      tag_38\n      jumpi\n      0x00\n      dup1\n      revert\n    tag_38:\n      pop\n      tag_39\n      0x04\n      dup1\n      calldatasize\n      sub\n      dup2\n      add\n      swap1\n      tag_40\n      swap2\n      swap1\n      tag_20\n      jump\t// in\n    tag_40:\n      tag_41\n      jump\t// in\n    tag_39:\n      mload(0x40)\n      tag_42\n      swap2\n      swap1\n      tag_43\n      jump\t// in\n    tag_42:\n      mload(0x40)\n      dup1\n      swap2\n      sub\n      swap1\n      return\n        /* \"contract/CrowdfundingPlatform.sol\":5241:5815  function finalizeCampaign(uint256 _campaignId) public {... */\n    tag_7:\n      callvalue\n      dup1\n      iszero\n      tag_44\n      jumpi\n      0x00\n      dup1\n      revert\n    tag_44:\n      pop\n      tag_45\n      0x04\n      dup1\n      calldatasize\n      sub\n      dup2\n      add\n      swap1\n      tag_46\n      swap2\n      swap1\n      tag_20\n      jump\t// in\n    tag_46:\n      tag_47\n      jump\t// in\n    tag_45:\n      stop\n        /* \"contract/CrowdfundingPlatform.sol\":7393:7674  function getAllCampaigns() public view returns (uint256[] memory) {... */\n    tag_8:\n      callvalue\n      dup1\n      iszero\n      tag_48\n      jumpi\n      0x00\n      dup1\n      revert\n    tag_48:\n      pop\n      tag_49\n      tag_50\n      jump\t// in\n    tag_49:\n      mload(0x40)\n      tag_51\n      swap2\n      swap1\n      tag_52\n      jump\t// in\n    tag_51:\n      mload(0x40)\n      dup1\n      swap2\n      sub\n      swap1\n      return\n        /* \"contract/CrowdfundingPlatform.sol\":6553:6888  function getContributorInfo(uint256 _campaignId, address _contributor) public view returns (uint256 contribution, bool refundClaimed) {... */\n    tag_9:\n      callvalue\n      dup1\n      iszero\n      tag_53\n      jumpi\n      0x00\n      dup1\n      revert\n    tag_53:\n      pop\n      tag_54\n      0x04\n      dup1\n      calldatasize\n      sub\n      dup2\n      add\n      swap1\n      tag_55\n      swap2\n      swap1\n      tag_56\n      jump\t// in\n    tag_55:\n      tag_57\n      jump\t// in\n    tag_54:\n      mload(0x40)\n      tag_58\n      swap3\n      swap2\n      swap1\n      tag_59\n      jump\t// in\n    tag_58:\n      mload(0x40)\n      dup1\n      swap2\n      sub\n      swap1\n      return\n        /* \"contract/CrowdfundingPlatform.sol\":2917:3678  function contribute(uint256 _campaignId) public payable {... */\n    tag_10:\n      tag_60\n      0x04\n      dup1\n      calldatasize\n      sub\n      dup2\n      add\n      swap1\n      tag_61\n      swap2\n      swap1\n      tag_20\n      jump\t// in\n    tag_61:\n      tag_62\n      jump\t// in\n    tag_60:\n      stop\n        /* \"contract/CrowdfundingPlatform.sol\":5848:6545  function getCampaignDetails(uint256 _campaignId) public view returns (... */\n    tag_11:\n      callvalue\n      dup1\n      iszero\n      tag_63\n      jumpi\n      0x00\n      dup1\n      revert\n    tag_63:\n      pop\n      tag_64\n      0x04\n      dup1\n      calldatasize\n      sub\n      dup2\n      add\n      swap1\n      tag_65\n      swap2\n      swap1\n      tag_20\n      jump\t// in\n    tag_65:\n      tag_66\n      jump\t// in\n    tag_64:\n      mload(0x40)\n      tag_67\n      swap9\n      swap8\n      swap7\n      swap6\n      swap5\n      swap4\n      swap3\n      swap2\n      swap1\n      tag_68\n      jump\t// in\n    tag_67:\n      mload(0x40)\n      dup1\n      swap2\n      sub\n      swap1\n      return\n        /* \"contract/CrowdfundingPlatform.sol\":6896:7385  function getMilestoneStatus(uint256 _campaignId, uint256 _milestoneIndex) public view returns (... */\n    tag_12:\n      callvalue\n      dup1\n      iszero\n      tag_69\n      jumpi\n      0x00\n      dup1\n      revert\n    tag_69:\n      pop\n      tag_70\n      0x04\n      dup1\n      calldatasize\n      sub\n      dup2\n      add\n      swap1\n      tag_71\n      swap2\n      swap1\n      tag_27\n      jump\t// in\n    tag_71:\n      tag_72\n      jump\t// in\n    tag_70:\n      mload(0x40)\n      tag_73\n      swap5\n      swap4\n      swap3\n      swap2\n      swap1\n      tag_74\n      jump\t// in\n    tag_73:\n      mload(0x40)\n      dup1\n      swap2\n      sub\n      swap1\n      return\n        /* \"contract/CrowdfundingPlatform.sol\":7682:7883  function getCampaignContributors(uint256 _campaignId) public view returns (address[] memory) {... */\n    tag_13:\n      callvalue\n      dup1\n      iszero\n      tag_75\n      jumpi\n      0x00\n      dup1\n      revert\n    tag_75:\n      pop\n      tag_76\n      0x04\n      dup1\n      calldatasize\n      sub\n      dup2\n      add\n      swap1\n      tag_77\n      swap2\n      swap1\n      tag_20\n      jump\t// in\n    tag_77:\n      tag_78\n      jump\t// in\n    tag_76:\n      mload(0x40)\n      tag_79\n      swap2\n      swap1\n      tag_80\n      jump\t// in\n    tag_79:\n      mload(0x40)\n      dup1\n      swap2\n      sub\n      swap1\n      return\n        /* \"contract/CrowdfundingPlatform.sol\":849:879  uint256 public campaignCounter */\n    tag_14:\n      callvalue\n      dup1\n      iszero\n      tag_81\n      jumpi\n      0x00\n      dup1\n      revert\n    tag_81:\n      pop\n      tag_82\n      tag_83\n      jump\t// in\n    tag_82:\n      mload(0x40)\n      tag_84\n      swap2\n      swap1\n      tag_43\n      jump\t// in\n    tag_84:\n      mload(0x40)\n      dup1\n      swap2\n      sub\n      swap1\n      return\n        /* \"contract/CrowdfundingPlatform.sol\":886:931  mapping(uint256 => Campaign) public campaigns */\n    tag_21:\n      mstore(0x20, 0x01)\n      dup1\n      0x00\n      mstore\n      keccak256(0x00, 0x40)\n      0x00\n      swap2\n      pop\n      swap1\n      pop\n      dup1\n      0x00\n      add\n      sload\n      swap1\n      dup1\n      0x01\n      add\n      dup1\n      sload\n      tag_85\n      swap1\n      tag_86\n      jump\t// in\n    tag_85:\n      dup1\n      0x1f\n      add\n      0x20\n      dup1\n      swap2\n      div\n      mul\n      0x20\n      add\n      mload(0x40)\n      swap1\n      dup2\n      add\n      0x40\n      mstore\n      dup1\n      swap3\n      swap2\n      swap1\n      dup2\n      dup2\n      mstore\n      0x20\n      add\n      dup3\n      dup1\n      sload\n      tag_87\n      swap1\n      tag_86\n      jump\t// in\n    tag_87:\n      dup1\n      iszero\n      tag_88\n      jumpi\n      dup1\n      0x1f\n      lt\n      tag_89\n      jumpi\n      0x0100\n      dup1\n      dup4\n      sload\n      div\n      mul\n      dup4\n      mstore\n      swap2\n      0x20\n      add\n      swap2\n      jump(tag_88)\n    tag_89:\n      dup3\n      add\n      swap2\n      swap1\n      0x00\n      mstore\n      keccak256(0x00, 0x20)\n      swap1\n    tag_90:\n      dup2\n      sload\n      dup2\n      mstore\n      swap1\n      0x01\n      add\n      swap1\n      0x20\n      add\n      dup1\n      dup4\n      gt\n      tag_90\n      jumpi\n      dup3\n      swap1\n      sub\n      0x1f\n      and\n      dup3\n      add\n      swap2\n    tag_88:\n      pop\n      pop\n      pop\n      pop\n      pop\n      swap1\n      dup1\n      0x02\n      add\n      dup1\n      sload\n      tag_91\n      swap1\n      tag_86\n      jump\t// in\n    tag_91:\n      dup1\n      0x1f\n      add\n      0x20\n      dup1\n      swap2\n      div\n      mul\n      0x20\n      add\n      mload(0x40)\n      swap1\n      dup2\n      add\n      0x40\n      mstore\n      dup1\n      swap3\n      swap2\n      swap1\n      dup2\n      dup2\n      mstore\n      0x20\n      add\n      dup3\n      dup1\n      sload\n      tag_92\n      swap1\n      tag_86\n      jump\t// in\n    tag_92:\n      dup1\n      iszero\n      tag_93\n      jumpi\n      dup1\n      0x1f\n      lt\n      tag_94\n      jumpi\n      0x0100\n      dup1\n      dup4\n      sload\n      div\n      mul\n      dup4\n      mstore\n      swap2\n      0x20\n      add\n      swap2\n      jump(tag_93)\n    tag_94:\n      dup3\n      add\n      swap2\n      swap1\n      0x00\n      mstore\n      keccak256(0x00, 0x20)\n      swap1\n    tag_95:\n      dup2\n      sload\n      dup2\n      mstore\n      swap1\n      0x01\n      add\n      swap1\n      0x20\n      add\n      dup1\n      dup4\n      gt\n      tag_95\n      jumpi\n      dup3\n      swap1\n      sub\n      0x1f\n      and\n      dup3\n      add\n      swap2\n    tag_93:\n      pop\n      pop\n      pop\n      pop\n      pop\n      swap1\n      dup1\n      0x03\n      add\n      sload\n      swap1\n      dup1\n      0x04\n      add\n      sload\n      swap1\n      dup1\n      0x05\n      add\n      0x00\n      swap1\n      sload\n      swap1\n      0x0100\n      exp\n      swap1\n      div\n      0xffffffffffffffffffffffffffffffffffffffff\n      and\n      swap1\n      dup1\n      0x06\n      add\n      sload\n      swap1\n      dup1\n      0x07\n      add\n      0x00\n      swap1\n      sload\n      swap1\n      0x0100\n      exp\n      swap1\n      div\n      0xff\n      and\n      swap1\n      dup1\n      0x0c\n      add\n      sload\n      swap1\n      pop\n      dup10\n      jump\t// out\n        /* \"contract/CrowdfundingPlatform.sol\":3686:4520  function approveMilestone(uint256 _campaignId, uint256 _milestoneIndex) public {... */\n    tag_28:\n        /* \"contract/CrowdfundingPlatform.sol\":3776:3801  Campaign storage campaign */\n      0x00\n        /* \"contract/CrowdfundingPlatform.sol\":3804:3813  campaigns */\n      0x01\n        /* \"contract/CrowdfundingPlatform.sol\":3804:3826  campaigns[_campaignId] */\n      0x00\n        /* \"contract/CrowdfundingPlatform.sol\":3814:3825  _campaignId */\n      dup5\n        /* \"contract/CrowdfundingPlatform.sol\":3804:3826  campaigns[_campaignId] */\n      dup2\n      mstore\n      0x20\n      add\n      swap1\n      dup2\n      mstore\n      0x20\n      add\n      0x00\n      keccak256\n        /* \"contract/CrowdfundingPlatform.sol\":3776:3826  Campaign storage campaign = campaigns[_campaignId] */\n      swap1\n      pop\n        /* \"contract/CrowdfundingPlatform.sol\":3837:3864  Milestone storage milestone */\n      0x00\n        /* \"contract/CrowdfundingPlatform.sol\":3867:3875  campaign */\n      dup2\n        /* \"contract/CrowdfundingPlatform.sol\":3867:3886  campaign.milestones */\n      0x08\n      add\n        /* \"contract/CrowdfundingPlatform.sol\":3887:3902  _milestoneIndex */\n      dup4\n        /* \"contract/CrowdfundingPlatform.sol\":3867:3903  campaign.milestones[_milestoneIndex] */\n      dup2\n      sload\n      dup2\n      lt\n      tag_97\n      jumpi\n      tag_98\n      tag_99\n      jump\t// in\n    tag_98:\n    tag_97:\n      swap1\n      0x00\n      mstore\n      keccak256(0x00, 0x20)\n      swap1\n      0x05\n      mul\n      add\n        /* \"contract/CrowdfundingPlatform.sol\":3837:3903  Milestone storage milestone = campaign.milestones[_milestoneIndex] */\n      swap1\n      pop\n        /* \"contract/CrowdfundingPlatform.sol\":3961:3962  0 */\n      0x00\n        /* \"contract/CrowdfundingPlatform.sol\":3924:3932  campaign */\n      dup3\n        /* \"contract/CrowdfundingPlatform.sol\":3924:3946  campaign.contributions */\n      0x09\n      add\n        /* \"contract/CrowdfundingPlatform.sol\":3924:3958  campaign.contributions[msg.sender] */\n      0x00\n        /* \"contract/CrowdfundingPlatform.sol\":3947:3957  msg.sender */\n      caller\n        /* \"contract/CrowdfundingPlatform.sol\":3924:3958  campaign.contributions[msg.sender] */\n      0xffffffffffffffffffffffffffffffffffffffff\n      and\n      0xffffffffffffffffffffffffffffffffffffffff\n      and\n      dup2\n      mstore\n      0x20\n      add\n      swap1\n      dup2\n      mstore\n      0x20\n      add\n      0x00\n      keccak256\n      sload\n        /* \"contract/CrowdfundingPlatform.sol\":3924:3962  campaign.contributions[msg.sender] > 0 */\n      gt\n        /* \"contract/CrowdfundingPlatform.sol\":3916:3993  require(campaign.contributions[msg.sender] > 0, \"Only contributors can vote\") */\n      tag_101\n      jumpi\n      mload(0x40)\n      0x08c379a000000000000000000000000000000000000000000000000000000000\n      dup2\n      mstore\n      0x04\n      add\n      tag_102\n      swap1\n      tag_103\n      jump\t// in\n    tag_102:\n      mload(0x40)\n      dup1\n      swap2\n      sub\n      swap1\n      revert\n    tag_101:\n        /* \"contract/CrowdfundingPlatform.sol\":4013:4022  milestone */\n      dup1\n        /* \"contract/CrowdfundingPlatform.sol\":4013:4028  milestone.voted */\n      0x04\n      add\n        /* \"contract/CrowdfundingPlatform.sol\":4013:4040  milestone.voted[msg.sender] */\n      0x00\n        /* \"contract/CrowdfundingPlatform.sol\":4029:4039  msg.sender */\n      caller\n        /* \"contract/CrowdfundingPlatform.sol\":4013:4040  milestone.voted[msg.sender] */\n      0xffffffffffffffffffffffffffffffffffffffff\n      and\n      0xffffffffffffffffffffffffffffffffffffffff\n      and\n      dup2\n      mstore\n      0x20\n      add\n      swap1\n      dup2\n      mstore\n      0x20\n      add\n      0x00\n      keccak256\n      0x00\n      swap1\n      sload\n      swap1\n      0x0100\n      exp\n      swap1\n      div\n      0xff\n      and\n        /* \"contract/CrowdfundingPlatform.sol\":4012:4040  !milestone.voted[msg.sender] */\n      iszero\n        /* \"contract/CrowdfundingPlatform.sol\":4004:4086  require(!milestone.voted[msg.sender], \"You have already voted for this milestone\") */\n      tag_104\n      jumpi\n      mload(0x40)\n      0x08c379a000000000000000000000000000000000000000000000000000000000\n      dup2\n      mstore\n      0x04\n      add\n      tag_105\n      swap1\n      tag_106\n      jump\t// in\n    tag_105:\n      mload(0x40)\n      dup1\n      swap2\n      sub\n      swap1\n      revert\n    tag_104:\n        /* \"contract/CrowdfundingPlatform.sol\":4137:4141  true */\n      0x01\n        /* \"contract/CrowdfundingPlatform.sol\":4107:4116  milestone */\n      dup2\n        /* \"contract/CrowdfundingPlatform.sol\":4107:4122  milestone.voted */\n      0x04\n      add\n        /* \"contract/CrowdfundingPlatform.sol\":4107:4134  milestone.voted[msg.sender] */\n      0x00\n        /* \"contract/CrowdfundingPlatform.sol\":4123:4133  msg.sender */\n      caller\n        /* \"contract/CrowdfundingPlatform.sol\":4107:4134  milestone.voted[msg.sender] */\n      0xffffffffffffffffffffffffffffffffffffffff\n      and\n      0xffffffffffffffffffffffffffffffffffffffff\n      and\n      dup2\n      mstore\n      0x20\n      add\n      swap1\n      dup2\n      mstore\n      0x20\n      add\n      0x00\n      keccak256\n      0x00\n        /* \"contract/CrowdfundingPlatform.sol\":4107:4141  milestone.voted[msg.sender] = true */\n      0x0100\n      exp\n      dup2\n      sload\n      dup2\n      0xff\n      mul\n      not\n      and\n      swap1\n      dup4\n      iszero\n      iszero\n      mul\n      or\n      swap1\n      sstore\n      pop\n        /* \"contract/CrowdfundingPlatform.sol\":4152:4161  milestone */\n      dup1\n        /* \"contract/CrowdfundingPlatform.sol\":4152:4175  milestone.approvalCount */\n      0x03\n      add\n      0x00\n        /* \"contract/CrowdfundingPlatform.sol\":4152:4177  milestone.approvalCount++ */\n      dup2\n      sload\n      dup1\n      swap3\n      swap2\n      swap1\n      tag_107\n      swap1\n      tag_108\n      jump\t// in\n    tag_107:\n      swap2\n      swap1\n      pop\n      sstore\n      pop\n        /* \"contract/CrowdfundingPlatform.sol\":4249:4250  2 */\n      0x02\n        /* \"contract/CrowdfundingPlatform.sol\":4221:4229  campaign */\n      dup3\n        /* \"contract/CrowdfundingPlatform.sol\":4221:4246  campaign.contributorCount */\n      0x0c\n      add\n      sload\n        /* \"contract/CrowdfundingPlatform.sol\":4221:4250  campaign.contributorCount / 2 */\n      tag_109\n      swap2\n      swap1\n      tag_110\n      jump\t// in\n    tag_109:\n        /* \"contract/CrowdfundingPlatform.sol\":4194:4203  milestone */\n      dup2\n        /* \"contract/CrowdfundingPlatform.sol\":4194:4217  milestone.approvalCount */\n      0x03\n      add\n      sload\n        /* \"contract/CrowdfundingPlatform.sol\":4194:4251  milestone.approvalCount > (campaign.contributorCount / 2) */\n      gt\n        /* \"contract/CrowdfundingPlatform.sol\":4190:4513  if (milestone.approvalCount > (campaign.contributorCount / 2)) {... */\n      iszero\n      tag_111\n      jumpi\n        /* \"contract/CrowdfundingPlatform.sol\":4291:4295  true */\n      0x01\n        /* \"contract/CrowdfundingPlatform.sol\":4268:4277  milestone */\n      dup2\n        /* \"contract/CrowdfundingPlatform.sol\":4268:4288  milestone.isApproved */\n      0x02\n      add\n      0x00\n        /* \"contract/CrowdfundingPlatform.sol\":4268:4295  milestone.isApproved = true */\n      0x0100\n      exp\n      dup2\n      sload\n      dup2\n      0xff\n      mul\n      not\n      and\n      swap1\n      dup4\n      iszero\n      iszero\n      mul\n      or\n      swap1\n      sstore\n      pop\n        /* \"contract/CrowdfundingPlatform.sol\":4310:4318  campaign */\n      dup2\n        /* \"contract/CrowdfundingPlatform.sol\":4310:4326  campaign.creator */\n      0x05\n      add\n      0x00\n      swap1\n      sload\n      swap1\n      0x0100\n      exp\n      swap1\n      div\n      0xffffffffffffffffffffffffffffffffffffffff\n      and\n        /* \"contract/CrowdfundingPlatform.sol\":4310:4335  campaign.creator.transfer */\n      0xffffffffffffffffffffffffffffffffffffffff\n      and\n        /* \"contract/CrowdfundingPlatform.sol\":4310:4353  campaign.creator.transfer(milestone.amount) */\n      0x08fc\n        /* \"contract/CrowdfundingPlatform.sol\":4336:4345  milestone */\n      dup3\n        /* \"contract/CrowdfundingPlatform.sol\":4336:4352  milestone.amount */\n      0x01\n      add\n      sload\n        /* \"contract/CrowdfundingPlatform.sol\":4310:4353  campaign.creator.transfer(milestone.amount) */\n      swap1\n      dup2\n      iszero\n      mul\n      swap1\n      mload(0x40)\n      0x00\n      mload(0x40)\n      dup1\n      dup4\n      sub\n      dup2\n      dup6\n      dup9\n      dup9\n      call\n      swap4\n      pop\n      pop\n      pop\n      pop\n      iszero\n      dup1\n      iszero\n      tag_113\n      jumpi\n      returndatasize\n      0x00\n      dup1\n      returndatacopy\n      revert(0x00, returndatasize)\n    tag_113:\n      pop\n        /* \"contract/CrowdfundingPlatform.sol\":4391:4402  _campaignId */\n      dup4\n        /* \"contract/CrowdfundingPlatform.sol\":4373:4420  MilestoneApproved(_campaignId, _milestoneIndex) */\n      0x939da3b627c123c81fe5aacebf925163337a0d4f8a03724640618078cad24894\n        /* \"contract/CrowdfundingPlatform.sol\":4404:4419  _milestoneIndex */\n      dup5\n        /* \"contract/CrowdfundingPlatform.sol\":4373:4420  MilestoneApproved(_campaignId, _milestoneIndex) */\n      mload(0x40)\n      tag_114\n      swap2\n      swap1\n      tag_43\n      jump\t// in\n    tag_114:\n      mload(0x40)\n      dup1\n      swap2\n      sub\n      swap1\n      log2\n        /* \"contract/CrowdfundingPlatform.sol\":4454:4465  _campaignId */\n      dup4\n        /* \"contract/CrowdfundingPlatform.sol\":4440:4501  FundsReleased(_campaignId, _milestoneIndex, milestone.amount) */\n      0x24d2f6e8ac6c13d1e7610752ab0b7ce03d5043806a65d3d631ae859ad81d159b\n        /* \"contract/CrowdfundingPlatform.sol\":4467:4482  _milestoneIndex */\n      dup5\n        /* \"contract/CrowdfundingPlatform.sol\":4484:4493  milestone */\n      dup4\n        /* \"contract/CrowdfundingPlatform.sol\":4484:4500  milestone.amount */\n      0x01\n      add\n      sload\n        /* \"contract/CrowdfundingPlatform.sol\":4440:4501  FundsReleased(_campaignId, _milestoneIndex, milestone.amount) */\n      mload(0x40)\n      tag_115\n      swap3\n      swap2\n      swap1\n      tag_116\n      jump\t// in\n    tag_115:\n      mload(0x40)\n      dup1\n      swap2\n      sub\n      swap1\n      log2\n        /* \"contract/CrowdfundingPlatform.sol\":4190:4513  if (milestone.approvalCount > (campaign.contributorCount / 2)) {... */\n    tag_111:\n        /* \"contract/CrowdfundingPlatform.sol\":3765:4520  {... */\n      pop\n      pop\n        /* \"contract/CrowdfundingPlatform.sol\":3686:4520  function approveMilestone(uint256 _campaignId, uint256 _milestoneIndex) public {... */\n      pop\n      pop\n      jump\t// out\n        /* \"contract/CrowdfundingPlatform.sol\":1526:2909  function createCampaign(... */\n    tag_33:\n        /* \"contract/CrowdfundingPlatform.sol\":1816:1831  block.timestamp */\n      timestamp\n        /* \"contract/CrowdfundingPlatform.sol\":1804:1813  _deadline */\n      dup4\n        /* \"contract/CrowdfundingPlatform.sol\":1804:1831  _deadline > block.timestamp */\n      gt\n        /* \"contract/CrowdfundingPlatform.sol\":1796:1866  require(_deadline > block.timestamp, \"Deadline must be in the future\") */\n      tag_118\n      jumpi\n      mload(0x40)\n      0x08c379a000000000000000000000000000000000000000000000000000000000\n      dup2\n      mstore\n      0x04\n      add\n      tag_119\n      swap1\n      tag_120\n      jump\t// in\n    tag_119:\n      mload(0x40)\n      dup1\n      swap2\n      sub\n      swap1\n      revert\n    tag_118:\n        /* \"contract/CrowdfundingPlatform.sol\":1918:1935  _milestoneAmounts */\n      dup1\n        /* \"contract/CrowdfundingPlatform.sol\":1918:1942  _milestoneAmounts.length */\n      mload\n        /* \"contract/CrowdfundingPlatform.sol\":1885:1907  _milestoneDescriptions */\n      dup3\n        /* \"contract/CrowdfundingPlatform.sol\":1885:1914  _milestoneDescriptions.length */\n      mload\n        /* \"contract/CrowdfundingPlatform.sol\":1885:1942  _milestoneDescriptions.length == _milestoneAmounts.length */\n      eq\n        /* \"contract/CrowdfundingPlatform.sol\":1877:1971  require(_milestoneDescriptions.length == _milestoneAmounts.length, \"Milestones data mismatch\") */\n      tag_121\n      jumpi\n      mload(0x40)\n      0x08c379a000000000000000000000000000000000000000000000000000000000\n      dup2\n      mstore\n      0x04\n      add\n      tag_122\n      swap1\n      tag_123\n      jump\t// in\n    tag_122:\n      mload(0x40)\n      dup1\n      swap2\n      sub\n      swap1\n      revert\n    tag_121:\n        /* \"contract/CrowdfundingPlatform.sol\":1992:2007  campaignCounter */\n      0x00\n      dup1\n        /* \"contract/CrowdfundingPlatform.sol\":1992:2009  campaignCounter++ */\n      dup2\n      sload\n      dup1\n      swap3\n      swap2\n      swap1\n      tag_124\n      swap1\n      tag_108\n      jump\t// in\n    tag_124:\n      swap2\n      swap1\n      pop\n      sstore\n      pop\n        /* \"contract/CrowdfundingPlatform.sol\":2020:2048  Campaign storage newCampaign */\n      0x00\n        /* \"contract/CrowdfundingPlatform.sol\":2051:2060  campaigns */\n      0x01\n        /* \"contract/CrowdfundingPlatform.sol\":2051:2077  campaigns[campaignCounter] */\n      0x00\n        /* \"contract/CrowdfundingPlatform.sol\":2061:2076  campaignCounter */\n      dup1\n      sload\n        /* \"contract/CrowdfundingPlatform.sol\":2051:2077  campaigns[campaignCounter] */\n      dup2\n      mstore\n      0x20\n      add\n      swap1\n      dup2\n      mstore\n      0x20\n      add\n      0x00\n      keccak256\n        /* \"contract/CrowdfundingPlatform.sol\":2020:2077  Campaign storage newCampaign = campaigns[campaignCounter] */\n      swap1\n      pop\n        /* \"contract/CrowdfundingPlatform.sol\":2105:2120  campaignCounter */\n      sload(0x00)\n        /* \"contract/CrowdfundingPlatform.sol\":2088:2099  newCampaign */\n      dup2\n        /* \"contract/CrowdfundingPlatform.sol\":2088:2102  newCampaign.id */\n      0x00\n      add\n        /* \"contract/CrowdfundingPlatform.sol\":2088:2120  newCampaign.id = campaignCounter */\n      dup2\n      swap1\n      sstore\n      pop\n        /* \"contract/CrowdfundingPlatform.sol\":2150:2155  _name */\n      dup7\n        /* \"contract/CrowdfundingPlatform.sol\":2131:2142  newCampaign */\n      dup2\n        /* \"contract/CrowdfundingPlatform.sol\":2131:2147  newCampaign.name */\n      0x01\n      add\n        /* \"contract/CrowdfundingPlatform.sol\":2131:2155  newCampaign.name = _name */\n      swap1\n      dup2\n      tag_125\n      swap2\n      swap1\n      tag_126\n      jump\t// in\n    tag_125:\n      pop\n        /* \"contract/CrowdfundingPlatform.sol\":2192:2204  _description */\n      dup6\n        /* \"contract/CrowdfundingPlatform.sol\":2166:2177  newCampaign */\n      dup2\n        /* \"contract/CrowdfundingPlatform.sol\":2166:2189  newCampaign.description */\n      0x02\n      add\n        /* \"contract/CrowdfundingPlatform.sol\":2166:2204  newCampaign.description = _description */\n      swap1\n      dup2\n      tag_127\n      swap2\n      swap1\n      tag_126\n      jump\t// in\n    tag_127:\n      pop\n        /* \"contract/CrowdfundingPlatform.sol\":2242:2255  _targetAmount */\n      dup5\n        /* \"contract/CrowdfundingPlatform.sol\":2215:2226  newCampaign */\n      dup2\n        /* \"contract/CrowdfundingPlatform.sol\":2215:2239  newCampaign.targetAmount */\n      0x03\n      add\n        /* \"contract/CrowdfundingPlatform.sol\":2215:2255  newCampaign.targetAmount = _targetAmount */\n      dup2\n      swap1\n      sstore\n      pop\n        /* \"contract/CrowdfundingPlatform.sol\":2289:2298  _deadline */\n      dup4\n        /* \"contract/CrowdfundingPlatform.sol\":2266:2277  newCampaign */\n      dup2\n        /* \"contract/CrowdfundingPlatform.sol\":2266:2286  newCampaign.deadline */\n      0x04\n      add\n        /* \"contract/CrowdfundingPlatform.sol\":2266:2298  newCampaign.deadline = _deadline */\n      dup2\n      swap1\n      sstore\n      pop\n        /* \"contract/CrowdfundingPlatform.sol\":2339:2349  msg.sender */\n      caller\n        /* \"contract/CrowdfundingPlatform.sol\":2309:2320  newCampaign */\n      dup2\n        /* \"contract/CrowdfundingPlatform.sol\":2309:2328  newCampaign.creator */\n      0x05\n      add\n      0x00\n        /* \"contract/CrowdfundingPlatform.sol\":2309:2350  newCampaign.creator = payable(msg.sender) */\n      0x0100\n      exp\n      dup2\n      sload\n      dup2\n      0xffffffffffffffffffffffffffffffffffffffff\n      mul\n      not\n      and\n      swap1\n      dup4\n      0xffffffffffffffffffffffffffffffffffffffff\n      and\n      mul\n      or\n      swap1\n      sstore\n      pop\n        /* \"contract/CrowdfundingPlatform.sol\":2382:2403  CampaignStatus.Active */\n      0x00\n        /* \"contract/CrowdfundingPlatform.sol\":2361:2372  newCampaign */\n      dup2\n        /* \"contract/CrowdfundingPlatform.sol\":2361:2379  newCampaign.status */\n      0x07\n      add\n      0x00\n        /* \"contract/CrowdfundingPlatform.sol\":2361:2403  newCampaign.status = CampaignStatus.Active */\n      0x0100\n      exp\n      dup2\n      sload\n      dup2\n      0xff\n      mul\n      not\n      and\n      swap1\n      dup4\n      0x02\n      dup2\n      gt\n      iszero\n      tag_128\n      jumpi\n      tag_129\n      tag_130\n      jump\t// in\n    tag_129:\n    tag_128:\n      mul\n      or\n      swap1\n      sstore\n      pop\n        /* \"contract/CrowdfundingPlatform.sol\":2455:2464  uint256 i */\n      0x00\n        /* \"contract/CrowdfundingPlatform.sol\":2450:2799  for (uint256 i = 0; i < _milestoneDescriptions.length; i++) {... */\n    tag_131:\n        /* \"contract/CrowdfundingPlatform.sol\":2474:2496  _milestoneDescriptions */\n      dup4\n        /* \"contract/CrowdfundingPlatform.sol\":2474:2503  _milestoneDescriptions.length */\n      mload\n        /* \"contract/CrowdfundingPlatform.sol\":2470:2471  i */\n      dup2\n        /* \"contract/CrowdfundingPlatform.sol\":2470:2503  i < _milestoneDescriptions.length */\n      lt\n        /* \"contract/CrowdfundingPlatform.sol\":2450:2799  for (uint256 i = 0; i < _milestoneDescriptions.length; i++) {... */\n      iszero\n      tag_132\n      jumpi\n        /* \"contract/CrowdfundingPlatform.sol\":2525:2552  Milestone storage milestone */\n      0x00\n        /* \"contract/CrowdfundingPlatform.sol\":2555:2566  newCampaign */\n      dup3\n        /* \"contract/CrowdfundingPlatform.sol\":2555:2577  newCampaign.milestones */\n      0x08\n      add\n        /* \"contract/CrowdfundingPlatform.sol\":2555:2584  newCampaign.milestones.push() */\n      0x01\n      dup2\n      0x01\n      dup2\n      sload\n      add\n      dup1\n      dup3\n      sstore\n      dup1\n      swap2\n      pop\n      pop\n      sub\n      swap1\n      0x00\n      mstore\n      keccak256(0x00, 0x20)\n      swap1\n      0x05\n      mul\n      add\n        /* \"contract/CrowdfundingPlatform.sol\":2525:2584  Milestone storage milestone = newCampaign.milestones.push() */\n      swap1\n      pop\n        /* \"contract/CrowdfundingPlatform.sol\":2623:2645  _milestoneDescriptions */\n      dup5\n        /* \"contract/CrowdfundingPlatform.sol\":2646:2647  i */\n      dup3\n        /* \"contract/CrowdfundingPlatform.sol\":2623:2648  _milestoneDescriptions[i] */\n      dup2\n      mload\n      dup2\n      lt\n      tag_135\n      jumpi\n      tag_136\n      tag_99\n      jump\t// in\n    tag_136:\n    tag_135:\n      0x20\n      mul\n      0x20\n      add\n      add\n      mload\n        /* \"contract/CrowdfundingPlatform.sol\":2599:2608  milestone */\n      dup2\n        /* \"contract/CrowdfundingPlatform.sol\":2599:2620  milestone.description */\n      0x00\n      add\n        /* \"contract/CrowdfundingPlatform.sol\":2599:2648  milestone.description = _milestoneDescriptions[i] */\n      swap1\n      dup2\n      tag_137\n      swap2\n      swap1\n      tag_126\n      jump\t// in\n    tag_137:\n      pop\n        /* \"contract/CrowdfundingPlatform.sol\":2682:2699  _milestoneAmounts */\n      dup4\n        /* \"contract/CrowdfundingPlatform.sol\":2700:2701  i */\n      dup3\n        /* \"contract/CrowdfundingPlatform.sol\":2682:2702  _milestoneAmounts[i] */\n      dup2\n      mload\n      dup2\n      lt\n      tag_138\n      jumpi\n      tag_139\n      tag_99\n      jump\t// in\n    tag_139:\n    tag_138:\n      0x20\n      mul\n      0x20\n      add\n      add\n      mload\n        /* \"contract/CrowdfundingPlatform.sol\":2663:2672  milestone */\n      dup2\n        /* \"contract/CrowdfundingPlatform.sol\":2663:2679  milestone.amount */\n      0x01\n      add\n        /* \"contract/CrowdfundingPlatform.sol\":2663:2702  milestone.amount = _milestoneAmounts[i] */\n      dup2\n      swap1\n      sstore\n      pop\n        /* \"contract/CrowdfundingPlatform.sol\":2740:2745  false */\n      0x00\n        /* \"contract/CrowdfundingPlatform.sol\":2717:2726  milestone */\n      dup2\n        /* \"contract/CrowdfundingPlatform.sol\":2717:2737  milestone.isApproved */\n      0x02\n      add\n      0x00\n        /* \"contract/CrowdfundingPlatform.sol\":2717:2745  milestone.isApproved = false */\n      0x0100\n      exp\n      dup2\n      sload\n      dup2\n      0xff\n      mul\n      not\n      and\n      swap1\n      dup4\n      iszero\n      iszero\n      mul\n      or\n      swap1\n      sstore\n      pop\n        /* \"contract/CrowdfundingPlatform.sol\":2786:2787  0 */\n      0x00\n        /* \"contract/CrowdfundingPlatform.sol\":2760:2769  milestone */\n      dup2\n        /* \"contract/CrowdfundingPlatform.sol\":2760:2783  milestone.approvalCount */\n      0x03\n      add\n        /* \"contract/CrowdfundingPlatform.sol\":2760:2787  milestone.approvalCount = 0 */\n      dup2\n      swap1\n      sstore\n      pop\n        /* \"contract/CrowdfundingPlatform.sol\":2510:2799  {... */\n      pop\n        /* \"contract/CrowdfundingPlatform.sol\":2505:2508  i++ */\n      dup1\n      dup1\n      0x01\n      add\n      swap2\n      pop\n      pop\n        /* \"contract/CrowdfundingPlatform.sol\":2450:2799  for (uint256 i = 0; i < _milestoneDescriptions.length; i++) {... */\n      jump(tag_131)\n    tag_132:\n      pop\n        /* \"contract/CrowdfundingPlatform.sol\":2840:2855  campaignCounter */\n      sload(0x00)\n        /* \"contract/CrowdfundingPlatform.sol\":2824:2901  CampaignCreated(campaignCounter, _name, _targetAmount, _deadline, msg.sender) */\n      0x55c246c9acac35defa7b5b11325208f9615273b139a7d1642a880afb4568637e\n        /* \"contract/CrowdfundingPlatform.sol\":2857:2862  _name */\n      dup9\n        /* \"contract/CrowdfundingPlatform.sol\":2864:2877  _targetAmount */\n      dup8\n        /* \"contract/CrowdfundingPlatform.sol\":2879:2888  _deadline */\n      dup8\n        /* \"contract/CrowdfundingPlatform.sol\":2890:2900  msg.sender */\n      caller\n        /* \"contract/CrowdfundingPlatform.sol\":2824:2901  CampaignCreated(campaignCounter, _name, _targetAmount, _deadline, msg.sender) */\n      mload(0x40)\n      tag_140\n      swap5\n      swap4\n      swap3\n      swap2\n      swap1\n      tag_141\n      jump\t// in\n    tag_140:\n      mload(0x40)\n      dup1\n      swap2\n      sub\n      swap1\n      log2\n        /* \"contract/CrowdfundingPlatform.sol\":1785:2909  {... */\n      pop\n        /* \"contract/CrowdfundingPlatform.sol\":1526:2909  function createCampaign(... */\n      pop\n      pop\n      pop\n      pop\n      pop\n      pop\n      jump\t// out\n        /* \"contract/CrowdfundingPlatform.sol\":4528:5233  function claimRefund(uint256 _campaignId) public {... */\n    tag_37:\n        /* \"contract/CrowdfundingPlatform.sol\":4588:4613  Campaign storage campaign */\n      0x00\n        /* \"contract/CrowdfundingPlatform.sol\":4616:4625  campaigns */\n      0x01\n        /* \"contract/CrowdfundingPlatform.sol\":4616:4638  campaigns[_campaignId] */\n      0x00\n        /* \"contract/CrowdfundingPlatform.sol\":4626:4637  _campaignId */\n      dup4\n        /* \"contract/CrowdfundingPlatform.sol\":4616:4638  campaigns[_campaignId] */\n      dup2\n      mstore\n      0x20\n      add\n      swap1\n      dup2\n      mstore\n      0x20\n      add\n      0x00\n      keccak256\n        /* \"contract/CrowdfundingPlatform.sol\":4588:4638  Campaign storage campaign = campaigns[_campaignId] */\n      swap1\n      pop\n        /* \"contract/CrowdfundingPlatform.sol\":4676:4684  campaign */\n      dup1\n        /* \"contract/CrowdfundingPlatform.sol\":4676:4693  campaign.deadline */\n      0x04\n      add\n      sload\n        /* \"contract/CrowdfundingPlatform.sol\":4657:4672  block.timestamp */\n      timestamp\n        /* \"contract/CrowdfundingPlatform.sol\":4657:4693  block.timestamp >= campaign.deadline */\n      lt\n      iszero\n        /* \"contract/CrowdfundingPlatform.sol\":4649:4722  require(block.timestamp >= campaign.deadline, \"Campaign is still active\") */\n      tag_143\n      jumpi\n      mload(0x40)\n      0x08c379a000000000000000000000000000000000000000000000000000000000\n      dup2\n      mstore\n      0x04\n      add\n      tag_144\n      swap1\n      tag_145\n      jump\t// in\n    tag_144:\n      mload(0x40)\n      dup1\n      swap2\n      sub\n      swap1\n      revert\n    tag_143:\n        /* \"contract/CrowdfundingPlatform.sol\":4769:4777  campaign */\n      dup1\n        /* \"contract/CrowdfundingPlatform.sol\":4769:4790  campaign.targetAmount */\n      0x03\n      add\n      sload\n        /* \"contract/CrowdfundingPlatform.sol\":4741:4749  campaign */\n      dup2\n        /* \"contract/CrowdfundingPlatform.sol\":4741:4766  campaign.totalContributed */\n      0x06\n      add\n      sload\n        /* \"contract/CrowdfundingPlatform.sol\":4741:4790  campaign.totalContributed < campaign.targetAmount */\n      lt\n        /* \"contract/CrowdfundingPlatform.sol\":4733:4818  require(campaign.totalContributed < campaign.targetAmount, \"Campaign was successful\") */\n      tag_146\n      jumpi\n      mload(0x40)\n      0x08c379a000000000000000000000000000000000000000000000000000000000\n      dup2\n      mstore\n      0x04\n      add\n      tag_147\n      swap1\n      tag_148\n      jump\t// in\n    tag_147:\n      mload(0x40)\n      dup1\n      swap2\n      sub\n      swap1\n      revert\n    tag_146:\n        /* \"contract/CrowdfundingPlatform.sol\":4838:4846  campaign */\n      dup1\n        /* \"contract/CrowdfundingPlatform.sol\":4838:4861  campaign.refundsClaimed */\n      0x0a\n      add\n        /* \"contract/CrowdfundingPlatform.sol\":4838:4873  campaign.refundsClaimed[msg.sender] */\n      0x00\n        /* \"contract/CrowdfundingPlatform.sol\":4862:4872  msg.sender */\n      caller\n        /* \"contract/CrowdfundingPlatform.sol\":4838:4873  campaign.refundsClaimed[msg.sender] */\n      0xffffffffffffffffffffffffffffffffffffffff\n      and\n      0xffffffffffffffffffffffffffffffffffffffff\n      and\n      dup2\n      mstore\n      0x20\n      add\n      swap1\n      dup2\n      mstore\n      0x20\n      add\n      0x00\n      keccak256\n      0x00\n      swap1\n      sload\n      swap1\n      0x0100\n      exp\n      swap1\n      div\n      0xff\n      and\n        /* \"contract/CrowdfundingPlatform.sol\":4837:4873  !campaign.refundsClaimed[msg.sender] */\n      iszero\n        /* \"contract/CrowdfundingPlatform.sol\":4829:4900  require(!campaign.refundsClaimed[msg.sender], \"Refund already claimed\") */\n      tag_149\n      jumpi\n      mload(0x40)\n      0x08c379a000000000000000000000000000000000000000000000000000000000\n      dup2\n      mstore\n      0x04\n      add\n      tag_150\n      swap1\n      tag_151\n      jump\t// in\n    tag_150:\n      mload(0x40)\n      dup1\n      swap2\n      sub\n      swap1\n      revert\n    tag_149:\n        /* \"contract/CrowdfundingPlatform.sol\":4921:4941  uint256 contribution */\n      0x00\n        /* \"contract/CrowdfundingPlatform.sol\":4944:4952  campaign */\n      dup2\n        /* \"contract/CrowdfundingPlatform.sol\":4944:4966  campaign.contributions */\n      0x09\n      add\n        /* \"contract/CrowdfundingPlatform.sol\":4944:4978  campaign.contributions[msg.sender] */\n      0x00\n        /* \"contract/CrowdfundingPlatform.sol\":4967:4977  msg.sender */\n      caller\n        /* \"contract/CrowdfundingPlatform.sol\":4944:4978  campaign.contributions[msg.sender] */\n      0xffffffffffffffffffffffffffffffffffffffff\n      and\n      0xffffffffffffffffffffffffffffffffffffffff\n      and\n      dup2\n      mstore\n      0x20\n      add\n      swap1\n      dup2\n      mstore\n      0x20\n      add\n      0x00\n      keccak256\n      sload\n        /* \"contract/CrowdfundingPlatform.sol\":4921:4978  uint256 contribution = campaign.contributions[msg.sender] */\n      swap1\n      pop\n        /* \"contract/CrowdfundingPlatform.sol\":5012:5013  0 */\n      0x00\n        /* \"contract/CrowdfundingPlatform.sol\":4997:5009  contribution */\n      dup2\n        /* \"contract/CrowdfundingPlatform.sol\":4997:5013  contribution > 0 */\n      gt\n        /* \"contract/CrowdfundingPlatform.sol\":4989:5039  require(contribution > 0, \"No contributions made\") */\n      tag_152\n      jumpi\n      mload(0x40)\n      0x08c379a000000000000000000000000000000000000000000000000000000000\n      dup2\n      mstore\n      0x04\n      add\n      tag_153\n      swap1\n      tag_154\n      jump\t// in\n    tag_153:\n      mload(0x40)\n      dup1\n      swap2\n      sub\n      swap1\n      revert\n    tag_152:\n        /* \"contract/CrowdfundingPlatform.sol\":5090:5094  true */\n      0x01\n        /* \"contract/CrowdfundingPlatform.sol\":5052:5060  campaign */\n      dup3\n        /* \"contract/CrowdfundingPlatform.sol\":5052:5075  campaign.refundsClaimed */\n      0x0a\n      add\n        /* \"contract/CrowdfundingPlatform.sol\":5052:5087  campaign.refundsClaimed[msg.sender] */\n      0x00\n        /* \"contract/CrowdfundingPlatform.sol\":5076:5086  msg.sender */\n      caller\n        /* \"contract/CrowdfundingPlatform.sol\":5052:5087  campaign.refundsClaimed[msg.sender] */\n      0xffffffffffffffffffffffffffffffffffffffff\n      and\n      0xffffffffffffffffffffffffffffffffffffffff\n      and\n      dup2\n      mstore\n      0x20\n      add\n      swap1\n      dup2\n      mstore\n      0x20\n      add\n      0x00\n      keccak256\n      0x00\n        /* \"contract/CrowdfundingPlatform.sol\":5052:5094  campaign.refundsClaimed[msg.sender] = true */\n      0x0100\n      exp\n      dup2\n      sload\n      dup2\n      0xff\n      mul\n      not\n      and\n      swap1\n      dup4\n      iszero\n      iszero\n      mul\n      or\n      swap1\n      sstore\n      pop\n        /* \"contract/CrowdfundingPlatform.sol\":5113:5123  msg.sender */\n      caller\n        /* \"contract/CrowdfundingPlatform.sol\":5105:5133  payable(msg.sender).transfer */\n      0xffffffffffffffffffffffffffffffffffffffff\n      and\n        /* \"contract/CrowdfundingPlatform.sol\":5105:5147  payable(msg.sender).transfer(contribution) */\n      0x08fc\n        /* \"contract/CrowdfundingPlatform.sol\":5134:5146  contribution */\n      dup3\n        /* \"contract/CrowdfundingPlatform.sol\":5105:5147  payable(msg.sender).transfer(contribution) */\n      swap1\n      dup2\n      iszero\n      mul\n      swap1\n      mload(0x40)\n      0x00\n      mload(0x40)\n      dup1\n      dup4\n      sub\n      dup2\n      dup6\n      dup9\n      dup9\n      call\n      swap4\n      pop\n      pop\n      pop\n      pop\n      iszero\n      dup1\n      iszero\n      tag_156\n      jumpi\n      returndatasize\n      0x00\n      dup1\n      returndatacopy\n      revert(0x00, returndatasize)\n    tag_156:\n      pop\n        /* \"contract/CrowdfundingPlatform.sol\":5200:5210  msg.sender */\n      caller\n        /* \"contract/CrowdfundingPlatform.sol\":5173:5225  RefundClaimed(_campaignId, msg.sender, contribution) */\n      0xffffffffffffffffffffffffffffffffffffffff\n      and\n        /* \"contract/CrowdfundingPlatform.sol\":5187:5198  _campaignId */\n      dup4\n        /* \"contract/CrowdfundingPlatform.sol\":5173:5225  RefundClaimed(_campaignId, msg.sender, contribution) */\n      0xf3f402280ef0a7905e124aa621b65eaeb2725c343e8b36d398ed78c29daf285c\n        /* \"contract/CrowdfundingPlatform.sol\":5212:5224  contribution */\n      dup4\n        /* \"contract/CrowdfundingPlatform.sol\":5173:5225  RefundClaimed(_campaignId, msg.sender, contribution) */\n      mload(0x40)\n      tag_157\n      swap2\n      swap1\n      tag_43\n      jump\t// in\n    tag_157:\n      mload(0x40)\n      dup1\n      swap2\n      sub\n      swap1\n      log3\n        /* \"contract/CrowdfundingPlatform.sol\":4577:5233  {... */\n      pop\n      pop\n        /* \"contract/CrowdfundingPlatform.sol\":4528:5233  function claimRefund(uint256 _campaignId) public {... */\n      pop\n      jump\t// out\n        /* \"contract/CrowdfundingPlatform.sol\":7891:8085  function getTotalContributions(uint256 _campaignId) public view returns (uint256) {... */\n    tag_41:\n        /* \"contract/CrowdfundingPlatform.sol\":7964:7971  uint256 */\n      0x00\n        /* \"contract/CrowdfundingPlatform.sol\":7984:8009  Campaign storage campaign */\n      dup1\n        /* \"contract/CrowdfundingPlatform.sol\":8012:8021  campaigns */\n      0x01\n        /* \"contract/CrowdfundingPlatform.sol\":8012:8034  campaigns[_campaignId] */\n      0x00\n        /* \"contract/CrowdfundingPlatform.sol\":8022:8033  _campaignId */\n      dup5\n        /* \"contract/CrowdfundingPlatform.sol\":8012:8034  campaigns[_campaignId] */\n      dup2\n      mstore\n      0x20\n      add\n      swap1\n      dup2\n      mstore\n      0x20\n      add\n      0x00\n      keccak256\n        /* \"contract/CrowdfundingPlatform.sol\":7984:8034  Campaign storage campaign = campaigns[_campaignId] */\n      swap1\n      pop\n        /* \"contract/CrowdfundingPlatform.sol\":8052:8060  campaign */\n      dup1\n        /* \"contract/CrowdfundingPlatform.sol\":8052:8077  campaign.totalContributed */\n      0x06\n      add\n      sload\n        /* \"contract/CrowdfundingPlatform.sol\":8045:8077  return campaign.totalContributed */\n      swap2\n      pop\n      pop\n        /* \"contract/CrowdfundingPlatform.sol\":7891:8085  function getTotalContributions(uint256 _campaignId) public view returns (uint256) {... */\n      swap2\n      swap1\n      pop\n      jump\t// out\n        /* \"contract/CrowdfundingPlatform.sol\":5241:5815  function finalizeCampaign(uint256 _campaignId) public {... */\n    tag_47:\n        /* \"contract/CrowdfundingPlatform.sol\":5306:5331  Campaign storage campaign */\n      0x00\n        /* \"contract/CrowdfundingPlatform.sol\":5334:5343  campaigns */\n      0x01\n        /* \"contract/CrowdfundingPlatform.sol\":5334:5356  campaigns[_campaignId] */\n      0x00\n        /* \"contract/CrowdfundingPlatform.sol\":5344:5355  _campaignId */\n      dup4\n        /* \"contract/CrowdfundingPlatform.sol\":5334:5356  campaigns[_campaignId] */\n      dup2\n      mstore\n      0x20\n      add\n      swap1\n      dup2\n      mstore\n      0x20\n      add\n      0x00\n      keccak256\n        /* \"contract/CrowdfundingPlatform.sol\":5306:5356  Campaign storage campaign = campaigns[_campaignId] */\n      swap1\n      pop\n        /* \"contract/CrowdfundingPlatform.sol\":5394:5402  campaign */\n      dup1\n        /* \"contract/CrowdfundingPlatform.sol\":5394:5411  campaign.deadline */\n      0x04\n      add\n      sload\n        /* \"contract/CrowdfundingPlatform.sol\":5375:5390  block.timestamp */\n      timestamp\n        /* \"contract/CrowdfundingPlatform.sol\":5375:5411  block.timestamp >= campaign.deadline */\n      lt\n      iszero\n        /* \"contract/CrowdfundingPlatform.sol\":5367:5440  require(block.timestamp >= campaign.deadline, \"Campaign is still active\") */\n      tag_160\n      jumpi\n      mload(0x40)\n      0x08c379a000000000000000000000000000000000000000000000000000000000\n      dup2\n      mstore\n      0x04\n      add\n      tag_161\n      swap1\n      tag_145\n      jump\t// in\n    tag_161:\n      mload(0x40)\n      dup1\n      swap2\n      sub\n      swap1\n      revert\n    tag_160:\n        /* \"contract/CrowdfundingPlatform.sol\":5479:5489  msg.sender */\n      caller\n        /* \"contract/CrowdfundingPlatform.sol\":5459:5489  campaign.creator == msg.sender */\n      0xffffffffffffffffffffffffffffffffffffffff\n      and\n        /* \"contract/CrowdfundingPlatform.sol\":5459:5467  campaign */\n      dup2\n        /* \"contract/CrowdfundingPlatform.sol\":5459:5475  campaign.creator */\n      0x05\n      add\n      0x00\n      swap1\n      sload\n      swap1\n      0x0100\n      exp\n      swap1\n      div\n      0xffffffffffffffffffffffffffffffffffffffff\n      and\n        /* \"contract/CrowdfundingPlatform.sol\":5459:5489  campaign.creator == msg.sender */\n      0xffffffffffffffffffffffffffffffffffffffff\n      and\n      eq\n        /* \"contract/CrowdfundingPlatform.sol\":5451:5532  require(campaign.creator == msg.sender, \"Only the campaign creator can finalize\") */\n      tag_162\n      jumpi\n      mload(0x40)\n      0x08c379a000000000000000000000000000000000000000000000000000000000\n      dup2\n      mstore\n      0x04\n      add\n      tag_163\n      swap1\n      tag_164\n      jump\t// in\n    tag_163:\n      mload(0x40)\n      dup1\n      swap2\n      sub\n      swap1\n      revert\n    tag_162:\n        /* \"contract/CrowdfundingPlatform.sol\":5578:5586  campaign */\n      dup1\n        /* \"contract/CrowdfundingPlatform.sol\":5578:5599  campaign.targetAmount */\n      0x03\n      add\n      sload\n        /* \"contract/CrowdfundingPlatform.sol\":5549:5557  campaign */\n      dup2\n        /* \"contract/CrowdfundingPlatform.sol\":5549:5574  campaign.totalContributed */\n      0x06\n      add\n      sload\n        /* \"contract/CrowdfundingPlatform.sol\":5549:5599  campaign.totalContributed >= campaign.targetAmount */\n      lt\n        /* \"contract/CrowdfundingPlatform.sol\":5545:5743  if (campaign.totalContributed >= campaign.targetAmount) {... */\n      tag_165\n      jumpi\n        /* \"contract/CrowdfundingPlatform.sol\":5634:5659  CampaignStatus.Successful */\n      0x01\n        /* \"contract/CrowdfundingPlatform.sol\":5616:5624  campaign */\n      dup2\n        /* \"contract/CrowdfundingPlatform.sol\":5616:5631  campaign.status */\n      0x07\n      add\n      0x00\n        /* \"contract/CrowdfundingPlatform.sol\":5616:5659  campaign.status = CampaignStatus.Successful */\n      0x0100\n      exp\n      dup2\n      sload\n      dup2\n      0xff\n      mul\n      not\n      and\n      swap1\n      dup4\n      0x02\n      dup2\n      gt\n      iszero\n      tag_166\n      jumpi\n      tag_167\n      tag_130\n      jump\t// in\n    tag_167:\n    tag_166:\n      mul\n      or\n      swap1\n      sstore\n      pop\n        /* \"contract/CrowdfundingPlatform.sol\":5545:5743  if (campaign.totalContributed >= campaign.targetAmount) {... */\n      jump(tag_168)\n    tag_165:\n        /* \"contract/CrowdfundingPlatform.sol\":5710:5731  CampaignStatus.Failed */\n      0x02\n        /* \"contract/CrowdfundingPlatform.sol\":5692:5700  campaign */\n      dup2\n        /* \"contract/CrowdfundingPlatform.sol\":5692:5707  campaign.status */\n      0x07\n      add\n      0x00\n        /* \"contract/CrowdfundingPlatform.sol\":5692:5731  campaign.status = CampaignStatus.Failed */\n      0x0100\n      exp\n      dup2\n      sload\n      dup2\n      0xff\n      mul\n      not\n      and\n      swap1\n      dup4\n      0x02\n      dup2\n      gt\n      iszero\n      tag_169\n      jumpi\n      tag_170\n      tag_130\n      jump\t// in\n    tag_170:\n    tag_169:\n      mul\n      or\n      swap1\n      sstore\n      pop\n        /* \"contract/CrowdfundingPlatform.sol\":5545:5743  if (campaign.totalContributed >= campaign.targetAmount) {... */\n    tag_168:\n        /* \"contract/CrowdfundingPlatform.sol\":5778:5789  _campaignId */\n      dup2\n        /* \"contract/CrowdfundingPlatform.sol\":5760:5807  CampaignFinalized(_campaignId, campaign.status) */\n      0xfbdbee1007296104d763605c2eb31f467b3e4cc929953ced44b039a074178b09\n        /* \"contract/CrowdfundingPlatform.sol\":5791:5799  campaign */\n      dup3\n        /* \"contract/CrowdfundingPlatform.sol\":5791:5806  campaign.status */\n      0x07\n      add\n      0x00\n      swap1\n      sload\n      swap1\n      0x0100\n      exp\n      swap1\n      div\n      0xff\n      and\n        /* \"contract/CrowdfundingPlatform.sol\":5760:5807  CampaignFinalized(_campaignId, campaign.status) */\n      mload(0x40)\n      tag_171\n      swap2\n      swap1\n      tag_172\n      jump\t// in\n    tag_171:\n      mload(0x40)\n      dup1\n      swap2\n      sub\n      swap1\n      log2\n        /* \"contract/CrowdfundingPlatform.sol\":5295:5815  {... */\n      pop\n        /* \"contract/CrowdfundingPlatform.sol\":5241:5815  function finalizeCampaign(uint256 _campaignId) public {... */\n      pop\n      jump\t// out\n        /* \"contract/CrowdfundingPlatform.sol\":7393:7674  function getAllCampaigns() public view returns (uint256[] memory) {... */\n    tag_50:\n        /* \"contract/CrowdfundingPlatform.sol\":7441:7457  uint256[] memory */\n      0x60\n        /* \"contract/CrowdfundingPlatform.sol\":7470:7498  uint256[] memory campaignIds */\n      0x00\n        /* \"contract/CrowdfundingPlatform.sol\":7515:7530  campaignCounter */\n      dup1\n      sload\n        /* \"contract/CrowdfundingPlatform.sol\":7501:7531  new uint256[](campaignCounter) */\n      0xffffffffffffffff\n      dup2\n      gt\n      iszero\n      tag_174\n      jumpi\n      tag_175\n      tag_176\n      jump\t// in\n    tag_175:\n    tag_174:\n      mload(0x40)\n      swap1\n      dup1\n      dup3\n      mstore\n      dup1\n      0x20\n      mul\n      0x20\n      add\n      dup3\n      add\n      0x40\n      mstore\n      dup1\n      iszero\n      tag_177\n      jumpi\n      dup2\n      0x20\n      add\n      0x20\n      dup3\n      mul\n      dup1\n      calldatasize\n      dup4\n      calldatacopy\n      dup1\n      dup3\n      add\n      swap2\n      pop\n      pop\n      swap1\n      pop\n    tag_177:\n      pop\n        /* \"contract/CrowdfundingPlatform.sol\":7470:7531  uint256[] memory campaignIds = new uint256[](campaignCounter) */\n      swap1\n      pop\n        /* \"contract/CrowdfundingPlatform.sol\":7547:7556  uint256 i */\n      0x00\n        /* \"contract/CrowdfundingPlatform.sol\":7559:7560  1 */\n      0x01\n        /* \"contract/CrowdfundingPlatform.sol\":7547:7560  uint256 i = 1 */\n      swap1\n      pop\n        /* \"contract/CrowdfundingPlatform.sol\":7542:7638  for (uint256 i = 1; i <= campaignCounter; i++) {... */\n    tag_178:\n        /* \"contract/CrowdfundingPlatform.sol\":7567:7582  campaignCounter */\n      sload(0x00)\n        /* \"contract/CrowdfundingPlatform.sol\":7562:7563  i */\n      dup2\n        /* \"contract/CrowdfundingPlatform.sol\":7562:7582  i <= campaignCounter */\n      gt\n        /* \"contract/CrowdfundingPlatform.sol\":7542:7638  for (uint256 i = 1; i <= campaignCounter; i++) {... */\n      tag_179\n      jumpi\n        /* \"contract/CrowdfundingPlatform.sol\":7625:7626  i */\n      dup1\n        /* \"contract/CrowdfundingPlatform.sol\":7604:7615  campaignIds */\n      dup3\n        /* \"contract/CrowdfundingPlatform.sol\":7620:7621  1 */\n      0x01\n        /* \"contract/CrowdfundingPlatform.sol\":7616:7617  i */\n      dup4\n        /* \"contract/CrowdfundingPlatform.sol\":7616:7621  i - 1 */\n      tag_181\n      swap2\n      swap1\n      tag_182\n      jump\t// in\n    tag_181:\n        /* \"contract/CrowdfundingPlatform.sol\":7604:7622  campaignIds[i - 1] */\n      dup2\n      mload\n      dup2\n      lt\n      tag_183\n      jumpi\n      tag_184\n      tag_99\n      jump\t// in\n    tag_184:\n    tag_183:\n      0x20\n      mul\n      0x20\n      add\n      add\n        /* \"contract/CrowdfundingPlatform.sol\":7604:7626  campaignIds[i - 1] = i */\n      dup2\n      dup2\n      mstore\n      pop\n      pop\n        /* \"contract/CrowdfundingPlatform.sol\":7584:7587  i++ */\n      dup1\n      dup1\n      tag_185\n      swap1\n      tag_108\n      jump\t// in\n    tag_185:\n      swap2\n      pop\n      pop\n        /* \"contract/CrowdfundingPlatform.sol\":7542:7638  for (uint256 i = 1; i <= campaignCounter; i++) {... */\n      jump(tag_178)\n    tag_179:\n      pop\n        /* \"contract/CrowdfundingPlatform.sol\":7655:7666  campaignIds */\n      dup1\n        /* \"contract/CrowdfundingPlatform.sol\":7648:7666  return campaignIds */\n      swap2\n      pop\n      pop\n        /* \"contract/CrowdfundingPlatform.sol\":7393:7674  function getAllCampaigns() public view returns (uint256[] memory) {... */\n      swap1\n      jump\t// out\n        /* \"contract/CrowdfundingPlatform.sol\":6553:6888  function getContributorInfo(uint256 _campaignId, address _contributor) public view returns (uint256 contribution, bool refundClaimed) {... */\n    tag_57:\n        /* \"contract/CrowdfundingPlatform.sol\":6645:6665  uint256 contribution */\n      0x00\n        /* \"contract/CrowdfundingPlatform.sol\":6667:6685  bool refundClaimed */\n      dup1\n        /* \"contract/CrowdfundingPlatform.sol\":6698:6723  Campaign storage campaign */\n      0x00\n        /* \"contract/CrowdfundingPlatform.sol\":6726:6735  campaigns */\n      0x01\n        /* \"contract/CrowdfundingPlatform.sol\":6726:6748  campaigns[_campaignId] */\n      0x00\n        /* \"contract/CrowdfundingPlatform.sol\":6736:6747  _campaignId */\n      dup7\n        /* \"contract/CrowdfundingPlatform.sol\":6726:6748  campaigns[_campaignId] */\n      dup2\n      mstore\n      0x20\n      add\n      swap1\n      dup2\n      mstore\n      0x20\n      add\n      0x00\n      keccak256\n        /* \"contract/CrowdfundingPlatform.sol\":6698:6748  Campaign storage campaign = campaigns[_campaignId] */\n      swap1\n      pop\n        /* \"contract/CrowdfundingPlatform.sol\":6781:6789  campaign */\n      dup1\n        /* \"contract/CrowdfundingPlatform.sol\":6781:6803  campaign.contributions */\n      0x09\n      add\n        /* \"contract/CrowdfundingPlatform.sol\":6781:6817  campaign.contributions[_contributor] */\n      0x00\n        /* \"contract/CrowdfundingPlatform.sol\":6804:6816  _contributor */\n      dup6\n        /* \"contract/CrowdfundingPlatform.sol\":6781:6817  campaign.contributions[_contributor] */\n      0xffffffffffffffffffffffffffffffffffffffff\n      and\n      0xffffffffffffffffffffffffffffffffffffffff\n      and\n      dup2\n      mstore\n      0x20\n      add\n      swap1\n      dup2\n      mstore\n      0x20\n      add\n      0x00\n      keccak256\n      sload\n        /* \"contract/CrowdfundingPlatform.sol\":6832:6840  campaign */\n      dup2\n        /* \"contract/CrowdfundingPlatform.sol\":6832:6855  campaign.refundsClaimed */\n      0x0a\n      add\n        /* \"contract/CrowdfundingPlatform.sol\":6832:6869  campaign.refundsClaimed[_contributor] */\n      0x00\n        /* \"contract/CrowdfundingPlatform.sol\":6856:6868  _contributor */\n      dup7\n        /* \"contract/CrowdfundingPlatform.sol\":6832:6869  campaign.refundsClaimed[_contributor] */\n      0xffffffffffffffffffffffffffffffffffffffff\n      and\n      0xffffffffffffffffffffffffffffffffffffffff\n      and\n      dup2\n      mstore\n      0x20\n      add\n      swap1\n      dup2\n      mstore\n      0x20\n      add\n      0x00\n      keccak256\n      0x00\n      swap1\n      sload\n      swap1\n      0x0100\n      exp\n      swap1\n      div\n      0xff\n      and\n        /* \"contract/CrowdfundingPlatform.sol\":6759:6880  return (... */\n      swap3\n      pop\n      swap3\n      pop\n      pop\n        /* \"contract/CrowdfundingPlatform.sol\":6553:6888  function getContributorInfo(uint256 _campaignId, address _contributor) public view returns (uint256 contribution, bool refundClaimed) {... */\n      swap3\n      pop\n      swap3\n      swap1\n      pop\n      jump\t// out\n        /* \"contract/CrowdfundingPlatform.sol\":2917:3678  function contribute(uint256 _campaignId) public payable {... */\n    tag_62:\n        /* \"contract/CrowdfundingPlatform.sol\":2984:3009  Campaign storage campaign */\n      0x00\n        /* \"contract/CrowdfundingPlatform.sol\":3012:3021  campaigns */\n      0x01\n        /* \"contract/CrowdfundingPlatform.sol\":3012:3034  campaigns[_campaignId] */\n      0x00\n        /* \"contract/CrowdfundingPlatform.sol\":3022:3033  _campaignId */\n      dup4\n        /* \"contract/CrowdfundingPlatform.sol\":3012:3034  campaigns[_campaignId] */\n      dup2\n      mstore\n      0x20\n      add\n      swap1\n      dup2\n      mstore\n      0x20\n      add\n      0x00\n      keccak256\n        /* \"contract/CrowdfundingPlatform.sol\":2984:3034  Campaign storage campaign = campaigns[_campaignId] */\n      swap1\n      pop\n        /* \"contract/CrowdfundingPlatform.sol\":3071:3079  campaign */\n      dup1\n        /* \"contract/CrowdfundingPlatform.sol\":3071:3088  campaign.deadline */\n      0x04\n      add\n      sload\n        /* \"contract/CrowdfundingPlatform.sol\":3053:3068  block.timestamp */\n      timestamp\n        /* \"contract/CrowdfundingPlatform.sol\":3053:3088  block.timestamp < campaign.deadline */\n      lt\n        /* \"contract/CrowdfundingPlatform.sol\":3045:3111  require(block.timestamp < campaign.deadline, \"Campaign has ended\") */\n      tag_188\n      jumpi\n      mload(0x40)\n      0x08c379a000000000000000000000000000000000000000000000000000000000\n      dup2\n      mstore\n      0x04\n      add\n      tag_189\n      swap1\n      tag_190\n      jump\t// in\n    tag_189:\n      mload(0x40)\n      dup1\n      swap2\n      sub\n      swap1\n      revert\n    tag_188:\n        /* \"contract/CrowdfundingPlatform.sol\":3158:3166  campaign */\n      dup1\n        /* \"contract/CrowdfundingPlatform.sol\":3158:3179  campaign.targetAmount */\n      0x03\n      add\n      sload\n        /* \"contract/CrowdfundingPlatform.sol\":3130:3138  campaign */\n      dup2\n        /* \"contract/CrowdfundingPlatform.sol\":3130:3155  campaign.totalContributed */\n      0x06\n      add\n      sload\n        /* \"contract/CrowdfundingPlatform.sol\":3130:3179  campaign.totalContributed < campaign.targetAmount */\n      lt\n        /* \"contract/CrowdfundingPlatform.sol\":3122:3213  require(campaign.totalContributed < campaign.targetAmount, \"Campaign funding goal reached\") */\n      tag_191\n      jumpi\n      mload(0x40)\n      0x08c379a000000000000000000000000000000000000000000000000000000000\n      dup2\n      mstore\n      0x04\n      add\n      tag_192\n      swap1\n      tag_193\n      jump\t// in\n    tag_192:\n      mload(0x40)\n      dup1\n      swap2\n      sub\n      swap1\n      revert\n    tag_191:\n        /* \"contract/CrowdfundingPlatform.sol\":3251:3272  CampaignStatus.Active */\n      0x00\n        /* \"contract/CrowdfundingPlatform.sol\":3232:3272  campaign.status == CampaignStatus.Active */\n      0x02\n      dup2\n      gt\n      iszero\n      tag_194\n      jumpi\n      tag_195\n      tag_130\n      jump\t// in\n    tag_195:\n    tag_194:\n        /* \"contract/CrowdfundingPlatform.sol\":3232:3240  campaign */\n      dup2\n        /* \"contract/CrowdfundingPlatform.sol\":3232:3247  campaign.status */\n      0x07\n      add\n      0x00\n      swap1\n      sload\n      swap1\n      0x0100\n      exp\n      swap1\n      div\n      0xff\n      and\n        /* \"contract/CrowdfundingPlatform.sol\":3232:3272  campaign.status == CampaignStatus.Active */\n      0x02\n      dup2\n      gt\n      iszero\n      tag_196\n      jumpi\n      tag_197\n      tag_130\n      jump\t// in\n    tag_197:\n    tag_196:\n      eq\n        /* \"contract/CrowdfundingPlatform.sol\":3224:3299  require(campaign.status == CampaignStatus.Active, \"Campaign is not active\") */\n      tag_198\n      jumpi\n      mload(0x40)\n      0x08c379a000000000000000000000000000000000000000000000000000000000\n      dup2\n      mstore\n      0x04\n      add\n      tag_199\n      swap1\n      tag_200\n      jump\t// in\n    tag_199:\n      mload(0x40)\n      dup1\n      swap2\n      sub\n      swap1\n      revert\n    tag_198:\n        /* \"contract/CrowdfundingPlatform.sol\":3354:3355  0 */\n      0x00\n        /* \"contract/CrowdfundingPlatform.sol\":3316:3324  campaign */\n      dup2\n        /* \"contract/CrowdfundingPlatform.sol\":3316:3338  campaign.contributions */\n      0x09\n      add\n        /* \"contract/CrowdfundingPlatform.sol\":3316:3350  campaign.contributions[msg.sender] */\n      0x00\n        /* \"contract/CrowdfundingPlatform.sol\":3339:3349  msg.sender */\n      caller\n        /* \"contract/CrowdfundingPlatform.sol\":3316:3350  campaign.contributions[msg.sender] */\n      0xffffffffffffffffffffffffffffffffffffffff\n      and\n      0xffffffffffffffffffffffffffffffffffffffff\n      and\n      dup2\n      mstore\n      0x20\n      add\n      swap1\n      dup2\n      mstore\n      0x20\n      add\n      0x00\n      keccak256\n      sload\n        /* \"contract/CrowdfundingPlatform.sol\":3316:3355  campaign.contributions[msg.sender] == 0 */\n      sub\n        /* \"contract/CrowdfundingPlatform.sol\":3312:3492  if (campaign.contributions[msg.sender] == 0) {... */\n      tag_201\n      jumpi\n        /* \"contract/CrowdfundingPlatform.sol\":3372:3380  campaign */\n      dup1\n        /* \"contract/CrowdfundingPlatform.sol\":3372:3393  campaign.contributors */\n      0x0b\n      add\n        /* \"contract/CrowdfundingPlatform.sol\":3399:3409  msg.sender */\n      caller\n        /* \"contract/CrowdfundingPlatform.sol\":3372:3410  campaign.contributors.push(msg.sender) */\n      swap1\n      dup1\n      0x01\n      dup2\n      sload\n      add\n      dup1\n      dup3\n      sstore\n      dup1\n      swap2\n      pop\n      pop\n      0x01\n      swap1\n      sub\n      swap1\n      0x00\n      mstore\n      keccak256(0x00, 0x20)\n      add\n      0x00\n      swap1\n      swap2\n      swap1\n      swap2\n      swap1\n      swap2\n      0x0100\n      exp\n      dup2\n      sload\n      dup2\n      0xffffffffffffffffffffffffffffffffffffffff\n      mul\n      not\n      and\n      swap1\n      dup4\n      0xffffffffffffffffffffffffffffffffffffffff\n      and\n      mul\n      or\n      swap1\n      sstore\n      pop\n        /* \"contract/CrowdfundingPlatform.sol\":3453:3461  campaign */\n      dup1\n        /* \"contract/CrowdfundingPlatform.sol\":3453:3478  campaign.contributorCount */\n      0x0c\n      add\n      0x00\n        /* \"contract/CrowdfundingPlatform.sol\":3453:3480  campaign.contributorCount++ */\n      dup2\n      sload\n      dup1\n      swap3\n      swap2\n      swap1\n      tag_203\n      swap1\n      tag_108\n      jump\t// in\n    tag_203:\n      swap2\n      swap1\n      pop\n      sstore\n      pop\n        /* \"contract/CrowdfundingPlatform.sol\":3312:3492  if (campaign.contributions[msg.sender] == 0) {... */\n    tag_201:\n        /* \"contract/CrowdfundingPlatform.sol\":3542:3551  msg.value */\n      callvalue\n        /* \"contract/CrowdfundingPlatform.sol\":3504:3512  campaign */\n      dup2\n        /* \"contract/CrowdfundingPlatform.sol\":3504:3526  campaign.contributions */\n      0x09\n      add\n        /* \"contract/CrowdfundingPlatform.sol\":3504:3538  campaign.contributions[msg.sender] */\n      0x00\n        /* \"contract/CrowdfundingPlatform.sol\":3527:3537  msg.sender */\n      caller\n        /* \"contract/CrowdfundingPlatform.sol\":3504:3538  campaign.contributions[msg.sender] */\n      0xffffffffffffffffffffffffffffffffffffffff\n      and\n      0xffffffffffffffffffffffffffffffffffffffff\n      and\n      dup2\n      mstore\n      0x20\n      add\n      swap1\n      dup2\n      mstore\n      0x20\n      add\n      0x00\n      keccak256\n      0x00\n        /* \"contract/CrowdfundingPlatform.sol\":3504:3551  campaign.contributions[msg.sender] += msg.value */\n      dup3\n      dup3\n      sload\n      tag_204\n      swap2\n      swap1\n      tag_205\n      jump\t// in\n    tag_204:\n      swap3\n      pop\n      pop\n      dup2\n      swap1\n      sstore\n      pop\n        /* \"contract/CrowdfundingPlatform.sol\":3591:3600  msg.value */\n      callvalue\n        /* \"contract/CrowdfundingPlatform.sol\":3562:3570  campaign */\n      dup2\n        /* \"contract/CrowdfundingPlatform.sol\":3562:3587  campaign.totalContributed */\n      0x06\n      add\n      0x00\n        /* \"contract/CrowdfundingPlatform.sol\":3562:3600  campaign.totalContributed += msg.value */\n      dup3\n      dup3\n      sload\n      tag_206\n      swap2\n      swap1\n      tag_205\n      jump\t// in\n    tag_206:\n      swap3\n      pop\n      pop\n      dup2\n      swap1\n      sstore\n      pop\n        /* \"contract/CrowdfundingPlatform.sol\":3648:3658  msg.sender */\n      caller\n        /* \"contract/CrowdfundingPlatform.sol\":3618:3670  ContributionMade(_campaignId, msg.sender, msg.value) */\n      0xffffffffffffffffffffffffffffffffffffffff\n      and\n        /* \"contract/CrowdfundingPlatform.sol\":3635:3646  _campaignId */\n      dup3\n        /* \"contract/CrowdfundingPlatform.sol\":3618:3670  ContributionMade(_campaignId, msg.sender, msg.value) */\n      0x0a4a91237423e0a1766a761c7cb029311d8b95d6b1b81db1b949a70c98b4e08e\n        /* \"contract/CrowdfundingPlatform.sol\":3660:3669  msg.value */\n      callvalue\n        /* \"contract/CrowdfundingPlatform.sol\":3618:3670  ContributionMade(_campaignId, msg.sender, msg.value) */\n      mload(0x40)\n      tag_207\n      swap2\n      swap1\n      tag_43\n      jump\t// in\n    tag_207:\n      mload(0x40)\n      dup1\n      swap2\n      sub\n      swap1\n      log3\n        /* \"contract/CrowdfundingPlatform.sol\":2973:3678  {... */\n      pop\n        /* \"contract/CrowdfundingPlatform.sol\":2917:3678  function contribute(uint256 _campaignId) public payable {... */\n      pop\n      jump\t// out\n        /* \"contract/CrowdfundingPlatform.sol\":5848:6545  function getCampaignDetails(uint256 _campaignId) public view returns (... */\n    tag_66:\n        /* \"contract/CrowdfundingPlatform.sol\":5928:5946  string memory name */\n      0x60\n        /* \"contract/CrowdfundingPlatform.sol\":5957:5982  string memory description */\n      dup1\n        /* \"contract/CrowdfundingPlatform.sol\":5993:6013  uint256 targetAmount */\n      0x00\n        /* \"contract/CrowdfundingPlatform.sol\":6024:6048  uint256 totalContributed */\n      dup1\n        /* \"contract/CrowdfundingPlatform.sol\":6059:6075  uint256 deadline */\n      0x00\n        /* \"contract/CrowdfundingPlatform.sol\":6086:6101  address creator */\n      dup1\n        /* \"contract/CrowdfundingPlatform.sol\":6112:6133  CampaignStatus status */\n      0x00\n        /* \"contract/CrowdfundingPlatform.sol\":6144:6166  uint256 milestoneCount */\n      dup1\n        /* \"contract/CrowdfundingPlatform.sol\":6185:6210  Campaign storage campaign */\n      0x00\n        /* \"contract/CrowdfundingPlatform.sol\":6213:6222  campaigns */\n      0x01\n        /* \"contract/CrowdfundingPlatform.sol\":6213:6235  campaigns[_campaignId] */\n      0x00\n        /* \"contract/CrowdfundingPlatform.sol\":6223:6234  _campaignId */\n      dup12\n        /* \"contract/CrowdfundingPlatform.sol\":6213:6235  campaigns[_campaignId] */\n      dup2\n      mstore\n      0x20\n      add\n      swap1\n      dup2\n      mstore\n      0x20\n      add\n      0x00\n      keccak256\n        /* \"contract/CrowdfundingPlatform.sol\":6185:6235  Campaign storage campaign = campaigns[_campaignId] */\n      swap1\n      pop\n        /* \"contract/CrowdfundingPlatform.sol\":6268:6276  campaign */\n      dup1\n        /* \"contract/CrowdfundingPlatform.sol\":6268:6281  campaign.name */\n      0x01\n      add\n        /* \"contract/CrowdfundingPlatform.sol\":6296:6304  campaign */\n      dup2\n        /* \"contract/CrowdfundingPlatform.sol\":6296:6316  campaign.description */\n      0x02\n      add\n        /* \"contract/CrowdfundingPlatform.sol\":6331:6339  campaign */\n      dup3\n        /* \"contract/CrowdfundingPlatform.sol\":6331:6352  campaign.targetAmount */\n      0x03\n      add\n      sload\n        /* \"contract/CrowdfundingPlatform.sol\":6367:6375  campaign */\n      dup4\n        /* \"contract/CrowdfundingPlatform.sol\":6367:6392  campaign.totalContributed */\n      0x06\n      add\n      sload\n        /* \"contract/CrowdfundingPlatform.sol\":6407:6415  campaign */\n      dup5\n        /* \"contract/CrowdfundingPlatform.sol\":6407:6424  campaign.deadline */\n      0x04\n      add\n      sload\n        /* \"contract/CrowdfundingPlatform.sol\":6439:6447  campaign */\n      dup6\n        /* \"contract/CrowdfundingPlatform.sol\":6439:6455  campaign.creator */\n      0x05\n      add\n      0x00\n      swap1\n      sload\n      swap1\n      0x0100\n      exp\n      swap1\n      div\n      0xffffffffffffffffffffffffffffffffffffffff\n      and\n        /* \"contract/CrowdfundingPlatform.sol\":6470:6478  campaign */\n      dup7\n        /* \"contract/CrowdfundingPlatform.sol\":6470:6485  campaign.status */\n      0x07\n      add\n      0x00\n      swap1\n      sload\n      swap1\n      0x0100\n      exp\n      swap1\n      div\n      0xff\n      and\n        /* \"contract/CrowdfundingPlatform.sol\":6500:6508  campaign */\n      dup8\n        /* \"contract/CrowdfundingPlatform.sol\":6500:6519  campaign.milestones */\n      0x08\n      add\n        /* \"contract/CrowdfundingPlatform.sol\":6500:6526  campaign.milestones.length */\n      dup1\n      sload\n      swap1\n      pop\n        /* \"contract/CrowdfundingPlatform.sol\":6246:6537  return (... */\n      dup8\n      dup1\n      sload\n      tag_209\n      swap1\n      tag_86\n      jump\t// in\n    tag_209:\n      dup1\n      0x1f\n      add\n      0x20\n      dup1\n      swap2\n      div\n      mul\n      0x20\n      add\n      mload(0x40)\n      swap1\n      dup2\n      add\n      0x40\n      mstore\n      dup1\n      swap3\n      swap2\n      swap1\n      dup2\n      dup2\n      mstore\n      0x20\n      add\n      dup3\n      dup1\n      sload\n      tag_210\n      swap1\n      tag_86\n      jump\t// in\n    tag_210:\n      dup1\n      iszero\n      tag_211\n      jumpi\n      dup1\n      0x1f\n      lt\n      tag_212\n      jumpi\n      0x0100\n      dup1\n      dup4\n      sload\n      div\n      mul\n      dup4\n      mstore\n      swap2\n      0x20\n      add\n      swap2\n      jump(tag_211)\n    tag_212:\n      dup3\n      add\n      swap2\n      swap1\n      0x00\n      mstore\n      keccak256(0x00, 0x20)\n      swap1\n    tag_213:\n      dup2\n      sload\n      dup2\n      mstore\n      swap1\n      0x01\n      add\n      swap1\n      0x20\n      add\n      dup1\n      dup4\n      gt\n      tag_213\n      jumpi\n      dup3\n      swap1\n      sub\n      0x1f\n      and\n      dup3\n      add\n      swap2\n    tag_211:\n      pop\n      pop\n      pop\n      pop\n      pop\n      swap8\n      pop\n      dup7\n      dup1\n      sload\n      tag_214\n      swap1\n      tag_86\n      jump\t// in\n    tag_214:\n      dup1\n      0x1f\n      add\n      0x20\n      dup1\n      swap2\n      div\n      mul\n      0x20\n      add\n      mload(0x40)\n      swap1\n      dup2\n      add\n      0x40\n      mstore\n      dup1\n      swap3\n      swap2\n      swap1\n      dup2\n      dup2\n      mstore\n      0x20\n      add\n      dup3\n      dup1\n      sload\n      tag_215\n      swap1\n      tag_86\n      jump\t// in\n    tag_215:\n      dup1\n      iszero\n      tag_216\n      jumpi\n      dup1\n      0x1f\n      lt\n      tag_217\n      jumpi\n      0x0100\n      dup1\n      dup4\n      sload\n      div\n      mul\n      dup4\n      mstore\n      swap2\n      0x20\n      add\n      swap2\n      jump(tag_216)\n    tag_217:\n      dup3\n      add\n      swap2\n      swap1\n      0x00\n      mstore\n      keccak256(0x00, 0x20)\n      swap1\n    tag_218:\n      dup2\n      sload\n      dup2\n      mstore\n      swap1\n      0x01\n      add\n      swap1\n      0x20\n      add\n      dup1\n      dup4\n      gt\n      tag_218\n      jumpi\n      dup3\n      swap1\n      sub\n      0x1f\n      and\n      dup3\n      add\n      swap2\n    tag_216:\n      pop\n      pop\n      pop\n      pop\n      pop\n      swap7\n      pop\n      swap9\n      pop\n      swap9\n      pop\n      swap9\n      pop\n      swap9\n      pop\n      swap9\n      pop\n      swap9\n      pop\n      swap9\n      pop\n      swap9\n      pop\n      pop\n        /* \"contract/CrowdfundingPlatform.sol\":5848:6545  function getCampaignDetails(uint256 _campaignId) public view returns (... */\n      swap2\n      swap4\n      swap6\n      swap8\n      pop\n      swap2\n      swap4\n      swap6\n      swap8\n      jump\t// out\n        /* \"contract/CrowdfundingPlatform.sol\":6896:7385  function getMilestoneStatus(uint256 _campaignId, uint256 _milestoneIndex) public view returns (... */\n    tag_72:\n        /* \"contract/CrowdfundingPlatform.sol\":7001:7026  string memory description */\n      0x60\n        /* \"contract/CrowdfundingPlatform.sol\":7037:7051  uint256 amount */\n      0x00\n        /* \"contract/CrowdfundingPlatform.sol\":7062:7077  bool isApproved */\n      dup1\n        /* \"contract/CrowdfundingPlatform.sol\":7088:7109  uint256 approvalCount */\n      0x00\n        /* \"contract/CrowdfundingPlatform.sol\":7128:7155  Milestone storage milestone */\n      dup1\n        /* \"contract/CrowdfundingPlatform.sol\":7158:7167  campaigns */\n      0x01\n        /* \"contract/CrowdfundingPlatform.sol\":7158:7180  campaigns[_campaignId] */\n      0x00\n        /* \"contract/CrowdfundingPlatform.sol\":7168:7179  _campaignId */\n      dup9\n        /* \"contract/CrowdfundingPlatform.sol\":7158:7180  campaigns[_campaignId] */\n      dup2\n      mstore\n      0x20\n      add\n      swap1\n      dup2\n      mstore\n      0x20\n      add\n      0x00\n      keccak256\n        /* \"contract/CrowdfundingPlatform.sol\":7158:7191  campaigns[_campaignId].milestones */\n      0x08\n      add\n        /* \"contract/CrowdfundingPlatform.sol\":7192:7207  _milestoneIndex */\n      dup7\n        /* \"contract/CrowdfundingPlatform.sol\":7158:7208  campaigns[_campaignId].milestones[_milestoneIndex] */\n      dup2\n      sload\n      dup2\n      lt\n      tag_220\n      jumpi\n      tag_221\n      tag_99\n      jump\t// in\n    tag_221:\n    tag_220:\n      swap1\n      0x00\n      mstore\n      keccak256(0x00, 0x20)\n      swap1\n      0x05\n      mul\n      add\n        /* \"contract/CrowdfundingPlatform.sol\":7128:7208  Milestone storage milestone = campaigns[_campaignId].milestones[_milestoneIndex] */\n      swap1\n      pop\n        /* \"contract/CrowdfundingPlatform.sol\":7241:7250  milestone */\n      dup1\n        /* \"contract/CrowdfundingPlatform.sol\":7241:7262  milestone.description */\n      0x00\n      add\n        /* \"contract/CrowdfundingPlatform.sol\":7277:7286  milestone */\n      dup2\n        /* \"contract/CrowdfundingPlatform.sol\":7277:7293  milestone.amount */\n      0x01\n      add\n      sload\n        /* \"contract/CrowdfundingPlatform.sol\":7308:7317  milestone */\n      dup3\n        /* \"contract/CrowdfundingPlatform.sol\":7308:7328  milestone.isApproved */\n      0x02\n      add\n      0x00\n      swap1\n      sload\n      swap1\n      0x0100\n      exp\n      swap1\n      div\n      0xff\n      and\n        /* \"contract/CrowdfundingPlatform.sol\":7343:7352  milestone */\n      dup4\n        /* \"contract/CrowdfundingPlatform.sol\":7343:7366  milestone.approvalCount */\n      0x03\n      add\n      sload\n        /* \"contract/CrowdfundingPlatform.sol\":7219:7377  return (... */\n      dup4\n      dup1\n      sload\n      tag_223\n      swap1\n      tag_86\n      jump\t// in\n    tag_223:\n      dup1\n      0x1f\n      add\n      0x20\n      dup1\n      swap2\n      div\n      mul\n      0x20\n      add\n      mload(0x40)\n      swap1\n      dup2\n      add\n      0x40\n      mstore\n      dup1\n      swap3\n      swap2\n      swap1\n      dup2\n      dup2\n      mstore\n      0x20\n      add\n      dup3\n      dup1\n      sload\n      tag_224\n      swap1\n      tag_86\n      jump\t// in\n    tag_224:\n      dup1\n      iszero\n      tag_225\n      jumpi\n      dup1\n      0x1f\n      lt\n      tag_226\n      jumpi\n      0x0100\n      dup1\n      dup4\n      sload\n      div\n      mul\n      dup4\n      mstore\n      swap2\n      0x20\n      add\n      swap2\n      jump(tag_225)\n    tag_226:\n      dup3\n      add\n      swap2\n      swap1\n      0x00\n      mstore\n      keccak256(0x00, 0x20)\n      swap1\n    tag_227:\n      dup2\n      sload\n      dup2\n      mstore\n      swap1\n      0x01\n      add\n      swap1\n      0x20\n      add\n      dup1\n      dup4\n      gt\n      tag_227\n      jumpi\n      dup3\n      swap1\n      sub\n      0x1f\n      and\n      dup3\n      add\n      swap2\n    tag_225:\n      pop\n      pop\n      pop\n      pop\n      pop\n      swap4\n      pop\n      swap5\n      pop\n      swap5\n      pop\n      swap5\n      pop\n      swap5\n      pop\n      pop\n        /* \"contract/CrowdfundingPlatform.sol\":6896:7385  function getMilestoneStatus(uint256 _campaignId, uint256 _milestoneIndex) public view returns (... */\n      swap3\n      swap6\n      swap2\n      swap5\n      pop\n      swap3\n      pop\n      jump\t// out\n        /* \"contract/CrowdfundingPlatform.sol\":7682:7883  function getCampaignContributors(uint256 _campaignId) public view returns (address[] memory) {... */\n    tag_78:\n        /* \"contract/CrowdfundingPlatform.sol\":7757:7773  address[] memory */\n      0x60\n        /* \"contract/CrowdfundingPlatform.sol\":7786:7811  Campaign storage campaign */\n      0x00\n        /* \"contract/CrowdfundingPlatform.sol\":7814:7823  campaigns */\n      0x01\n        /* \"contract/CrowdfundingPlatform.sol\":7814:7836  campaigns[_campaignId] */\n      0x00\n        /* \"contract/CrowdfundingPlatform.sol\":7824:7835  _campaignId */\n      dup5\n        /* \"contract/CrowdfundingPlatform.sol\":7814:7836  campaigns[_campaignId] */\n      dup2\n      mstore\n      0x20\n      add\n      swap1\n      dup2\n      mstore\n      0x20\n      add\n      0x00\n      keccak256\n        /* \"contract/CrowdfundingPlatform.sol\":7786:7836  Campaign storage campaign = campaigns[_campaignId] */\n      swap1\n      pop\n        /* \"contract/CrowdfundingPlatform.sol\":7854:7862  campaign */\n      dup1\n        /* \"contract/CrowdfundingPlatform.sol\":7854:7875  campaign.contributors */\n      0x0b\n      add\n        /* \"contract/CrowdfundingPlatform.sol\":7847:7875  return campaign.contributors */\n      dup1\n      sload\n      dup1\n      0x20\n      mul\n      0x20\n      add\n      mload(0x40)\n      swap1\n      dup2\n      add\n      0x40\n      mstore\n      dup1\n      swap3\n      swap2\n      swap1\n      dup2\n      dup2\n      mstore\n      0x20\n      add\n      dup3\n      dup1\n      sload\n      dup1\n      iszero\n      tag_229\n      jumpi\n      0x20\n      mul\n      dup3\n      add\n      swap2\n      swap1\n      0x00\n      mstore\n      keccak256(0x00, 0x20)\n      swap1\n    tag_230:\n      dup2\n      0x00\n      swap1\n      sload\n      swap1\n      0x0100\n      exp\n      swap1\n      div\n      0xffffffffffffffffffffffffffffffffffffffff\n      and\n      0xffffffffffffffffffffffffffffffffffffffff\n      and\n      dup2\n      mstore\n      0x20\n      add\n      swap1\n      0x01\n      add\n      swap1\n      dup1\n      dup4\n      gt\n      tag_230\n      jumpi\n    tag_229:\n      pop\n      pop\n      pop\n      pop\n      pop\n      swap2\n      pop\n      pop\n        /* \"contract/CrowdfundingPlatform.sol\":7682:7883  function getCampaignContributors(uint256 _campaignId) public view returns (address[] memory) {... */\n      swap2\n      swap1\n      pop\n      jump\t// out\n        /* \"contract/CrowdfundingPlatform.sol\":849:879  uint256 public campaignCounter */\n    tag_83:\n      sload(0x00)\n      dup2\n      jump\t// out\n        /* \"#utility.yul\":7:82   */\n    tag_231:\n        /* \"#utility.yul\":40:46   */\n      0x00\n        /* \"#utility.yul\":73:75   */\n      0x40\n        /* \"#utility.yul\":67:76   */\n      mload\n        /* \"#utility.yul\":57:76   */\n      swap1\n      pop\n        /* \"#utility.yul\":7:82   */\n      swap1\n      jump\t// out\n        /* \"#utility.yul\":88:205   */\n    tag_232:\n        /* \"#utility.yul\":197:198   */\n      0x00\n        /* \"#utility.yul\":194:195   */\n      dup1\n        /* \"#utility.yul\":187:199   */\n      revert\n        /* \"#utility.yul\":211:328   */\n    tag_233:\n        /* \"#utility.yul\":320:321   */\n      0x00\n        /* \"#utility.yul\":317:318   */\n      dup1\n        /* \"#utility.yul\":310:322   */\n      revert\n        /* \"#utility.yul\":334:411   */\n    tag_234:\n        /* \"#utility.yul\":371:378   */\n      0x00\n        /* \"#utility.yul\":400:405   */\n      dup2\n        /* \"#utility.yul\":389:405   */\n      swap1\n      pop\n        /* \"#utility.yul\":334:411   */\n      swap2\n      swap1\n      pop\n      jump\t// out\n        /* \"#utility.yul\":417:539   */\n    tag_235:\n        /* \"#utility.yul\":490:514   */\n      tag_333\n        /* \"#utility.yul\":508:513   */\n      dup2\n        /* \"#utility.yul\":490:514   */\n      tag_234\n      jump\t// in\n    tag_333:\n        /* \"#utility.yul\":483:488   */\n      dup2\n        /* \"#utility.yul\":480:515   */\n      eq\n        /* \"#utility.yul\":470:533   */\n      tag_334\n      jumpi\n        /* \"#utility.yul\":529:530   */\n      0x00\n        /* \"#utility.yul\":526:527   */\n      dup1\n        /* \"#utility.yul\":519:531   */\n      revert\n        /* \"#utility.yul\":470:533   */\n    tag_334:\n        /* \"#utility.yul\":417:539   */\n      pop\n      jump\t// out\n        /* \"#utility.yul\":545:684   */\n    tag_236:\n        /* \"#utility.yul\":591:596   */\n      0x00\n        /* \"#utility.yul\":629:635   */\n      dup2\n        /* \"#utility.yul\":616:636   */\n      calldataload\n        /* \"#utility.yul\":607:636   */\n      swap1\n      pop\n        /* \"#utility.yul\":645:678   */\n      tag_336\n        /* \"#utility.yul\":672:677   */\n      dup2\n        /* \"#utility.yul\":645:678   */\n      tag_235\n      jump\t// in\n    tag_336:\n        /* \"#utility.yul\":545:684   */\n      swap3\n      swap2\n      pop\n      pop\n      jump\t// out\n        /* \"#utility.yul\":690:1019   */\n    tag_20:\n        /* \"#utility.yul\":749:755   */\n      0x00\n        /* \"#utility.yul\":798:800   */\n      0x20\n        /* \"#utility.yul\":786:795   */\n      dup3\n        /* \"#utility.yul\":777:784   */\n      dup5\n        /* \"#utility.yul\":773:796   */\n      sub\n        /* \"#utility.yul\":769:801   */\n      slt\n        /* \"#utility.yul\":766:885   */\n      iszero\n      tag_338\n      jumpi\n        /* \"#utility.yul\":804:883   */\n      tag_339\n      tag_232\n      jump\t// in\n    tag_339:\n        /* \"#utility.yul\":766:885   */\n    tag_338:\n        /* \"#utility.yul\":924:925   */\n      0x00\n        /* \"#utility.yul\":949:1002   */\n      tag_340\n        /* \"#utility.yul\":994:1001   */\n      dup5\n        /* \"#utility.yul\":985:991   */\n      dup3\n        /* \"#utility.yul\":974:983   */\n      dup6\n        /* \"#utility.yul\":970:992   */\n      add\n        /* \"#utility.yul\":949:1002   */\n      tag_236\n      jump\t// in\n    tag_340:\n        /* \"#utility.yul\":939:1002   */\n      swap2\n      pop\n        /* \"#utility.yul\":895:1012   */\n      pop\n        /* \"#utility.yul\":690:1019   */\n      swap3\n      swap2\n      pop\n      pop\n      jump\t// out\n        /* \"#utility.yul\":1025:1143   */\n    tag_237:\n        /* \"#utility.yul\":1112:1136   */\n      tag_342\n        /* \"#utility.yul\":1130:1135   */\n      dup2\n        /* \"#utility.yul\":1112:1136   */\n      tag_234\n      jump\t// in\n    tag_342:\n        /* \"#utility.yul\":1107:1110   */\n      dup3\n        /* \"#utility.yul\":1100:1137   */\n      mstore\n        /* \"#utility.yul\":1025:1143   */\n      pop\n      pop\n      jump\t// out\n        /* \"#utility.yul\":1149:1248   */\n    tag_238:\n        /* \"#utility.yul\":1201:1207   */\n      0x00\n        /* \"#utility.yul\":1235:1240   */\n      dup2\n        /* \"#utility.yul\":1229:1241   */\n      mload\n        /* \"#utility.yul\":1219:1241   */\n      swap1\n      pop\n        /* \"#utility.yul\":1149:1248   */\n      swap2\n      swap1\n      pop\n      jump\t// out\n        /* \"#utility.yul\":1254:1423   */\n    tag_239:\n        /* \"#utility.yul\":1338:1349   */\n      0x00\n        /* \"#utility.yul\":1372:1378   */\n      dup3\n        /* \"#utility.yul\":1367:1370   */\n      dup3\n        /* \"#utility.yul\":1360:1379   */\n      mstore\n        /* \"#utility.yul\":1412:1416   */\n      0x20\n        /* \"#utility.yul\":1407:1410   */\n      dup3\n        /* \"#utility.yul\":1403:1417   */\n      add\n        /* \"#utility.yul\":1388:1417   */\n      swap1\n      pop\n        /* \"#utility.yul\":1254:1423   */\n      swap3\n      swap2\n      pop\n      pop\n      jump\t// out\n        /* \"#utility.yul\":1429:1568   */\n    tag_240:\n        /* \"#utility.yul\":1518:1524   */\n      dup3\n        /* \"#utility.yul\":1513:1516   */\n      dup2\n        /* \"#utility.yul\":1508:1511   */\n      dup4\n        /* \"#utility.yul\":1502:1525   */\n      mcopy\n        /* \"#utility.yul\":1559:1560   */\n      0x00\n        /* \"#utility.yul\":1550:1556   */\n      dup4\n        /* \"#utility.yul\":1545:1548   */\n      dup4\n        /* \"#utility.yul\":1541:1557   */\n      add\n        /* \"#utility.yul\":1534:1561   */\n      mstore\n        /* \"#utility.yul\":1429:1568   */\n      pop\n      pop\n      pop\n      jump\t// out\n        /* \"#utility.yul\":1574:1676   */\n    tag_241:\n        /* \"#utility.yul\":1615:1621   */\n      0x00\n        /* \"#utility.yul\":1666:1668   */\n      0x1f\n        /* \"#utility.yul\":1662:1669   */\n      not\n        /* \"#utility.yul\":1657:1659   */\n      0x1f\n        /* \"#utility.yul\":1650:1655   */\n      dup4\n        /* \"#utility.yul\":1646:1660   */\n      add\n        /* \"#utility.yul\":1642:1670   */\n      and\n        /* \"#utility.yul\":1632:1670   */\n      swap1\n      pop\n        /* \"#utility.yul\":1574:1676   */\n      swap2\n      swap1\n      pop\n      jump\t// out\n        /* \"#utility.yul\":1682:2059   */\n    tag_242:\n        /* \"#utility.yul\":1770:1773   */\n      0x00\n        /* \"#utility.yul\":1798:1837   */\n      tag_348\n        /* \"#utility.yul\":1831:1836   */\n      dup3\n        /* \"#utility.yul\":1798:1837   */\n      tag_238\n      jump\t// in\n    tag_348:\n        /* \"#utility.yul\":1853:1924   */\n      tag_349\n        /* \"#utility.yul\":1917:1923   */\n      dup2\n        /* \"#utility.yul\":1912:1915   */\n      dup6\n        /* \"#utility.yul\":1853:1924   */\n      tag_239\n      jump\t// in\n    tag_349:\n        /* \"#utility.yul\":1846:1924   */\n      swap4\n      pop\n        /* \"#utility.yul\":1933:1998   */\n      tag_350\n        /* \"#utility.yul\":1991:1997   */\n      dup2\n        /* \"#utility.yul\":1986:1989   */\n      dup6\n        /* \"#utility.yul\":1979:1983   */\n      0x20\n        /* \"#utility.yul\":1972:1977   */\n      dup7\n        /* \"#utility.yul\":1968:1984   */\n      add\n        /* \"#utility.yul\":1933:1998   */\n      tag_240\n      jump\t// in\n    tag_350:\n        /* \"#utility.yul\":2023:2052   */\n      tag_351\n        /* \"#utility.yul\":2045:2051   */\n      dup2\n        /* \"#utility.yul\":2023:2052   */\n      tag_241\n      jump\t// in\n    tag_351:\n        /* \"#utility.yul\":2018:2021   */\n      dup5\n        /* \"#utility.yul\":2014:2053   */\n      add\n        /* \"#utility.yul\":2007:2053   */\n      swap2\n      pop\n        /* \"#utility.yul\":1774:2059   */\n      pop\n        /* \"#utility.yul\":1682:2059   */\n      swap3\n      swap2\n      pop\n      pop\n      jump\t// out\n        /* \"#utility.yul\":2065:2191   */\n    tag_243:\n        /* \"#utility.yul\":2102:2109   */\n      0x00\n        /* \"#utility.yul\":2142:2184   */\n      0xffffffffffffffffffffffffffffffffffffffff\n        /* \"#utility.yul\":2135:2140   */\n      dup3\n        /* \"#utility.yul\":2131:2185   */\n      and\n        /* \"#utility.yul\":2120:2185   */\n      swap1\n      pop\n        /* \"#utility.yul\":2065:2191   */\n      swap2\n      swap1\n      pop\n      jump\t// out\n        /* \"#utility.yul\":2197:2301   */\n    tag_244:\n        /* \"#utility.yul\":2242:2249   */\n      0x00\n        /* \"#utility.yul\":2271:2295   */\n      tag_354\n        /* \"#utility.yul\":2289:2294   */\n      dup3\n        /* \"#utility.yul\":2271:2295   */\n      tag_243\n      jump\t// in\n    tag_354:\n        /* \"#utility.yul\":2260:2295   */\n      swap1\n      pop\n        /* \"#utility.yul\":2197:2301   */\n      swap2\n      swap1\n      pop\n      jump\t// out\n        /* \"#utility.yul\":2307:2449   */\n    tag_245:\n        /* \"#utility.yul\":2410:2442   */\n      tag_356\n        /* \"#utility.yul\":2436:2441   */\n      dup2\n        /* \"#utility.yul\":2410:2442   */\n      tag_244\n      jump\t// in\n    tag_356:\n        /* \"#utility.yul\":2405:2408   */\n      dup3\n        /* \"#utility.yul\":2398:2443   */\n      mstore\n        /* \"#utility.yul\":2307:2449   */\n      pop\n      pop\n      jump\t// out\n        /* \"#utility.yul\":2455:2635   */\n    tag_130:\n        /* \"#utility.yul\":2503:2580   */\n      0x4e487b7100000000000000000000000000000000000000000000000000000000\n        /* \"#utility.yul\":2500:2501   */\n      0x00\n        /* \"#utility.yul\":2493:2581   */\n      mstore\n        /* \"#utility.yul\":2600:2604   */\n      0x21\n        /* \"#utility.yul\":2597:2598   */\n      0x04\n        /* \"#utility.yul\":2590:2605   */\n      mstore\n        /* \"#utility.yul\":2624:2628   */\n      0x24\n        /* \"#utility.yul\":2621:2622   */\n      0x00\n        /* \"#utility.yul\":2614:2629   */\n      revert\n        /* \"#utility.yul\":2641:2762   */\n    tag_246:\n        /* \"#utility.yul\":2730:2731   */\n      0x03\n        /* \"#utility.yul\":2723:2728   */\n      dup2\n        /* \"#utility.yul\":2720:2732   */\n      lt\n        /* \"#utility.yul\":2710:2756   */\n      tag_359\n      jumpi\n        /* \"#utility.yul\":2736:2754   */\n      tag_360\n      tag_130\n      jump\t// in\n    tag_360:\n        /* \"#utility.yul\":2710:2756   */\n    tag_359:\n        /* \"#utility.yul\":2641:2762   */\n      pop\n      jump\t// out\n        /* \"#utility.yul\":2768:2911   */\n    tag_247:\n        /* \"#utility.yul\":2821:2828   */\n      0x00\n        /* \"#utility.yul\":2850:2855   */\n      dup2\n        /* \"#utility.yul\":2839:2855   */\n      swap1\n      pop\n        /* \"#utility.yul\":2856:2905   */\n      tag_362\n        /* \"#utility.yul\":2899:2904   */\n      dup3\n        /* \"#utility.yul\":2856:2905   */\n      tag_246\n      jump\t// in\n    tag_362:\n        /* \"#utility.yul\":2768:2911   */\n      swap2\n      swap1\n      pop\n      jump\t// out\n        /* \"#utility.yul\":2917:3060   */\n    tag_248:\n        /* \"#utility.yul\":2981:2990   */\n      0x00\n        /* \"#utility.yul\":3014:3054   */\n      tag_364\n        /* \"#utility.yul\":3048:3053   */\n      dup3\n        /* \"#utility.yul\":3014:3054   */\n      tag_247\n      jump\t// in\n    tag_364:\n        /* \"#utility.yul\":3001:3054   */\n      swap1\n      pop\n        /* \"#utility.yul\":2917:3060   */\n      swap2\n      swap1\n      pop\n      jump\t// out\n        /* \"#utility.yul\":3066:3225   */\n    tag_249:\n        /* \"#utility.yul\":3167:3218   */\n      tag_366\n        /* \"#utility.yul\":3212:3217   */\n      dup2\n        /* \"#utility.yul\":3167:3218   */\n      tag_248\n      jump\t// in\n    tag_366:\n        /* \"#utility.yul\":3162:3165   */\n      dup3\n        /* \"#utility.yul\":3155:3219   */\n      mstore\n        /* \"#utility.yul\":3066:3225   */\n      pop\n      pop\n      jump\t// out\n        /* \"#utility.yul\":3231:4581   */\n    tag_23:\n        /* \"#utility.yul\":3618:3622   */\n      0x00\n        /* \"#utility.yul\":3656:3659   */\n      0x0120\n        /* \"#utility.yul\":3645:3654   */\n      dup3\n        /* \"#utility.yul\":3641:3660   */\n      add\n        /* \"#utility.yul\":3633:3660   */\n      swap1\n      pop\n        /* \"#utility.yul\":3670:3741   */\n      tag_368\n        /* \"#utility.yul\":3738:3739   */\n      0x00\n        /* \"#utility.yul\":3727:3736   */\n      dup4\n        /* \"#utility.yul\":3723:3740   */\n      add\n        /* \"#utility.yul\":3714:3720   */\n      dup13\n        /* \"#utility.yul\":3670:3741   */\n      tag_237\n      jump\t// in\n    tag_368:\n        /* \"#utility.yul\":3788:3797   */\n      dup2\n        /* \"#utility.yul\":3782:3786   */\n      dup2\n        /* \"#utility.yul\":3778:3798   */\n      sub\n        /* \"#utility.yul\":3773:3775   */\n      0x20\n        /* \"#utility.yul\":3762:3771   */\n      dup4\n        /* \"#utility.yul\":3758:3776   */\n      add\n        /* \"#utility.yul\":3751:3799   */\n      mstore\n        /* \"#utility.yul\":3816:3894   */\n      tag_369\n        /* \"#utility.yul\":3889:3893   */\n      dup2\n        /* \"#utility.yul\":3880:3886   */\n      dup12\n        /* \"#utility.yul\":3816:3894   */\n      tag_242\n      jump\t// in\n    tag_369:\n        /* \"#utility.yul\":3808:3894   */\n      swap1\n      pop\n        /* \"#utility.yul\":3941:3950   */\n      dup2\n        /* \"#utility.yul\":3935:3939   */\n      dup2\n        /* \"#utility.yul\":3931:3951   */\n      sub\n        /* \"#utility.yul\":3926:3928   */\n      0x40\n        /* \"#utility.yul\":3915:3924   */\n      dup4\n        /* \"#utility.yul\":3911:3929   */\n      add\n        /* \"#utility.yul\":3904:3952   */\n      mstore\n        /* \"#utility.yul\":3969:4047   */\n      tag_370\n        /* \"#utility.yul\":4042:4046   */\n      dup2\n        /* \"#utility.yul\":4033:4039   */\n      dup11\n        /* \"#utility.yul\":3969:4047   */\n      tag_242\n      jump\t// in\n    tag_370:\n        /* \"#utility.yul\":3961:4047   */\n      swap1\n      pop\n        /* \"#utility.yul\":4057:4129   */\n      tag_371\n        /* \"#utility.yul\":4125:4127   */\n      0x60\n        /* \"#utility.yul\":4114:4123   */\n      dup4\n        /* \"#utility.yul\":4110:4128   */\n      add\n        /* \"#utility.yul\":4101:4107   */\n      dup10\n        /* \"#utility.yul\":4057:4129   */\n      tag_237\n      jump\t// in\n    tag_371:\n        /* \"#utility.yul\":4139:4212   */\n      tag_372\n        /* \"#utility.yul\":4207:4210   */\n      0x80\n        /* \"#utility.yul\":4196:4205   */\n      dup4\n        /* \"#utility.yul\":4192:4211   */\n      add\n        /* \"#utility.yul\":4183:4189   */\n      dup9\n        /* \"#utility.yul\":4139:4212   */\n      tag_237\n      jump\t// in\n    tag_372:\n        /* \"#utility.yul\":4222:4311   */\n      tag_373\n        /* \"#utility.yul\":4306:4309   */\n      0xa0\n        /* \"#utility.yul\":4295:4304   */\n      dup4\n        /* \"#utility.yul\":4291:4310   */\n      add\n        /* \"#utility.yul\":4282:4288   */\n      dup8\n        /* \"#utility.yul\":4222:4311   */\n      tag_245\n      jump\t// in\n    tag_373:\n        /* \"#utility.yul\":4321:4394   */\n      tag_374\n        /* \"#utility.yul\":4389:4392   */\n      0xc0\n        /* \"#utility.yul\":4378:4387   */\n      dup4\n        /* \"#utility.yul\":4374:4393   */\n      add\n        /* \"#utility.yul\":4365:4371   */\n      dup7\n        /* \"#utility.yul\":4321:4394   */\n      tag_237\n      jump\t// in\n    tag_374:\n        /* \"#utility.yul\":4404:4491   */\n      tag_375\n        /* \"#utility.yul\":4486:4489   */\n      0xe0\n        /* \"#utility.yul\":4475:4484   */\n      dup4\n        /* \"#utility.yul\":4471:4490   */\n      add\n        /* \"#utility.yul\":4462:4468   */\n      dup6\n        /* \"#utility.yul\":4404:4491   */\n      tag_249\n      jump\t// in\n    tag_375:\n        /* \"#utility.yul\":4501:4574   */\n      tag_376\n        /* \"#utility.yul\":4569:4572   */\n      0x0100\n        /* \"#utility.yul\":4558:4567   */\n      dup4\n        /* \"#utility.yul\":4554:4573   */\n      add\n        /* \"#utility.yul\":4545:4551   */\n      dup5\n        /* \"#utility.yul\":4501:4574   */\n      tag_237\n      jump\t// in\n    tag_376:\n        /* \"#utility.yul\":3231:4581   */\n      swap11\n      swap10\n      pop\n      pop\n      pop\n      pop\n      pop\n      pop\n      pop\n      pop\n      pop\n      pop\n      jump\t// out\n        /* \"#utility.yul\":4587:5061   */\n    tag_27:\n        /* \"#utility.yul\":4655:4661   */\n      0x00\n        /* \"#utility.yul\":4663:4669   */\n      dup1\n        /* \"#utility.yul\":4712:4714   */\n      0x40\n        /* \"#utility.yul\":4700:4709   */\n      dup4\n        /* \"#utility.yul\":4691:4698   */\n      dup6\n        /* \"#utility.yul\":4687:4710   */\n      sub\n        /* \"#utility.yul\":4683:4715   */\n      slt\n        /* \"#utility.yul\":4680:4799   */\n      iszero\n      tag_378\n      jumpi\n        /* \"#utility.yul\":4718:4797   */\n      tag_379\n      tag_232\n      jump\t// in\n    tag_379:\n        /* \"#utility.yul\":4680:4799   */\n    tag_378:\n        /* \"#utility.yul\":4838:4839   */\n      0x00\n        /* \"#utility.yul\":4863:4916   */\n      tag_380\n        /* \"#utility.yul\":4908:4915   */\n      dup6\n        /* \"#utility.yul\":4899:4905   */\n      dup3\n        /* \"#utility.yul\":4888:4897   */\n      dup7\n        /* \"#utility.yul\":4884:4906   */\n      add\n        /* \"#utility.yul\":4863:4916   */\n      tag_236\n      jump\t// in\n    tag_380:\n        /* \"#utility.yul\":4853:4916   */\n      swap3\n      pop\n        /* \"#utility.yul\":4809:4926   */\n      pop\n        /* \"#utility.yul\":4965:4967   */\n      0x20\n        /* \"#utility.yul\":4991:5044   */\n      tag_381\n        /* \"#utility.yul\":5036:5043   */\n      dup6\n        /* \"#utility.yul\":5027:5033   */\n      dup3\n        /* \"#utility.yul\":5016:5025   */\n      dup7\n        /* \"#utility.yul\":5012:5034   */\n      add\n        /* \"#utility.yul\":4991:5044   */\n      tag_236\n      jump\t// in\n    tag_381:\n        /* \"#utility.yul\":4981:5044   */\n      swap2\n      pop\n        /* \"#utility.yul\":4936:5054   */\n      pop\n        /* \"#utility.yul\":4587:5061   */\n      swap3\n      pop\n      swap3\n      swap1\n      pop\n      jump\t// out\n        /* \"#utility.yul\":5067:5184   */\n    tag_250:\n        /* \"#utility.yul\":5176:5177   */\n      0x00\n        /* \"#utility.yul\":5173:5174   */\n      dup1\n        /* \"#utility.yul\":5166:5178   */\n      revert\n        /* \"#utility.yul\":5190:5307   */\n    tag_251:\n        /* \"#utility.yul\":5299:5300   */\n      0x00\n        /* \"#utility.yul\":5296:5297   */\n      dup1\n        /* \"#utility.yul\":5289:5301   */\n      revert\n        /* \"#utility.yul\":5313:5493   */\n    tag_176:\n        /* \"#utility.yul\":5361:5438   */\n      0x4e487b7100000000000000000000000000000000000000000000000000000000\n        /* \"#utility.yul\":5358:5359   */\n      0x00\n        /* \"#utility.yul\":5351:5439   */\n      mstore\n        /* \"#utility.yul\":5458:5462   */\n      0x41\n        /* \"#utility.yul\":5455:5456   */\n      0x04\n        /* \"#utility.yul\":5448:5463   */\n      mstore\n        /* \"#utility.yul\":5482:5486   */\n      0x24\n        /* \"#utility.yul\":5479:5480   */\n      0x00\n        /* \"#utility.yul\":5472:5487   */\n      revert\n        /* \"#utility.yul\":5499:5780   */\n    tag_252:\n        /* \"#utility.yul\":5582:5609   */\n      tag_386\n        /* \"#utility.yul\":5604:5608   */\n      dup3\n        /* \"#utility.yul\":5582:5609   */\n      tag_241\n      jump\t// in\n    tag_386:\n        /* \"#utility.yul\":5574:5580   */\n      dup2\n        /* \"#utility.yul\":5570:5610   */\n      add\n        /* \"#utility.yul\":5712:5718   */\n      dup2\n        /* \"#utility.yul\":5700:5710   */\n      dup2\n        /* \"#utility.yul\":5697:5719   */\n      lt\n        /* \"#utility.yul\":5676:5694   */\n      0xffffffffffffffff\n        /* \"#utility.yul\":5664:5674   */\n      dup3\n        /* \"#utility.yul\":5661:5695   */\n      gt\n        /* \"#utility.yul\":5658:5720   */\n      or\n        /* \"#utility.yul\":5655:5743   */\n      iszero\n      tag_387\n      jumpi\n        /* \"#utility.yul\":5723:5741   */\n      tag_388\n      tag_176\n      jump\t// in\n    tag_388:\n        /* \"#utility.yul\":5655:5743   */\n    tag_387:\n        /* \"#utility.yul\":5763:5773   */\n      dup1\n        /* \"#utility.yul\":5759:5761   */\n      0x40\n        /* \"#utility.yul\":5752:5774   */\n      mstore\n        /* \"#utility.yul\":5542:5780   */\n      pop\n        /* \"#utility.yul\":5499:5780   */\n      pop\n      pop\n      jump\t// out\n        /* \"#utility.yul\":5786:5915   */\n    tag_253:\n        /* \"#utility.yul\":5820:5826   */\n      0x00\n        /* \"#utility.yul\":5847:5867   */\n      tag_390\n      tag_231\n      jump\t// in\n    tag_390:\n        /* \"#utility.yul\":5837:5867   */\n      swap1\n      pop\n        /* \"#utility.yul\":5876:5909   */\n      tag_391\n        /* \"#utility.yul\":5904:5908   */\n      dup3\n        /* \"#utility.yul\":5896:5902   */\n      dup3\n        /* \"#utility.yul\":5876:5909   */\n      tag_252\n      jump\t// in\n    tag_391:\n        /* \"#utility.yul\":5786:5915   */\n      swap2\n      swap1\n      pop\n      jump\t// out\n        /* \"#utility.yul\":5921:6229   */\n    tag_254:\n        /* \"#utility.yul\":5983:5987   */\n      0x00\n        /* \"#utility.yul\":6073:6091   */\n      0xffffffffffffffff\n        /* \"#utility.yul\":6065:6071   */\n      dup3\n        /* \"#utility.yul\":6062:6092   */\n      gt\n        /* \"#utility.yul\":6059:6115   */\n      iszero\n      tag_393\n      jumpi\n        /* \"#utility.yul\":6095:6113   */\n      tag_394\n      tag_176\n      jump\t// in\n    tag_394:\n        /* \"#utility.yul\":6059:6115   */\n    tag_393:\n        /* \"#utility.yul\":6133:6162   */\n      tag_395\n        /* \"#utility.yul\":6155:6161   */\n      dup3\n        /* \"#utility.yul\":6133:6162   */\n      tag_241\n      jump\t// in\n    tag_395:\n        /* \"#utility.yul\":6125:6162   */\n      swap1\n      pop\n        /* \"#utility.yul\":6217:6221   */\n      0x20\n        /* \"#utility.yul\":6211:6215   */\n      dup2\n        /* \"#utility.yul\":6207:6222   */\n      add\n        /* \"#utility.yul\":6199:6222   */\n      swap1\n      pop\n        /* \"#utility.yul\":5921:6229   */\n      swap2\n      swap1\n      pop\n      jump\t// out\n        /* \"#utility.yul\":6235:6383   */\n    tag_255:\n        /* \"#utility.yul\":6333:6339   */\n      dup3\n        /* \"#utility.yul\":6328:6331   */\n      dup2\n        /* \"#utility.yul\":6323:6326   */\n      dup4\n        /* \"#utility.yul\":6310:6340   */\n      calldatacopy\n        /* \"#utility.yul\":6374:6375   */\n      0x00\n        /* \"#utility.yul\":6365:6371   */\n      dup4\n        /* \"#utility.yul\":6360:6363   */\n      dup4\n        /* \"#utility.yul\":6356:6372   */\n      add\n        /* \"#utility.yul\":6349:6376   */\n      mstore\n        /* \"#utility.yul\":6235:6383   */\n      pop\n      pop\n      pop\n      jump\t// out\n        /* \"#utility.yul\":6389:6814   */\n    tag_256:\n        /* \"#utility.yul\":6467:6472   */\n      0x00\n        /* \"#utility.yul\":6492:6558   */\n      tag_398\n        /* \"#utility.yul\":6508:6557   */\n      tag_399\n        /* \"#utility.yul\":6550:6556   */\n      dup5\n        /* \"#utility.yul\":6508:6557   */\n      tag_254\n      jump\t// in\n    tag_399:\n        /* \"#utility.yul\":6492:6558   */\n      tag_253\n      jump\t// in\n    tag_398:\n        /* \"#utility.yul\":6483:6558   */\n      swap1\n      pop\n        /* \"#utility.yul\":6581:6587   */\n      dup3\n        /* \"#utility.yul\":6574:6579   */\n      dup2\n        /* \"#utility.yul\":6567:6588   */\n      mstore\n        /* \"#utility.yul\":6619:6623   */\n      0x20\n        /* \"#utility.yul\":6612:6617   */\n      dup2\n        /* \"#utility.yul\":6608:6624   */\n      add\n        /* \"#utility.yul\":6657:6660   */\n      dup5\n        /* \"#utility.yul\":6648:6654   */\n      dup5\n        /* \"#utility.yul\":6643:6646   */\n      dup5\n        /* \"#utility.yul\":6639:6655   */\n      add\n        /* \"#utility.yul\":6636:6661   */\n      gt\n        /* \"#utility.yul\":6633:6745   */\n      iszero\n      tag_400\n      jumpi\n        /* \"#utility.yul\":6664:6743   */\n      tag_401\n      tag_251\n      jump\t// in\n    tag_401:\n        /* \"#utility.yul\":6633:6745   */\n    tag_400:\n        /* \"#utility.yul\":6754:6808   */\n      tag_402\n        /* \"#utility.yul\":6801:6807   */\n      dup5\n        /* \"#utility.yul\":6796:6799   */\n      dup3\n        /* \"#utility.yul\":6791:6794   */\n      dup6\n        /* \"#utility.yul\":6754:6808   */\n      tag_255\n      jump\t// in\n    tag_402:\n        /* \"#utility.yul\":6473:6814   */\n      pop\n        /* \"#utility.yul\":6389:6814   */\n      swap4\n      swap3\n      pop\n      pop\n      pop\n      jump\t// out\n        /* \"#utility.yul\":6834:7174   */\n    tag_257:\n        /* \"#utility.yul\":6890:6895   */\n      0x00\n        /* \"#utility.yul\":6939:6942   */\n      dup3\n        /* \"#utility.yul\":6932:6936   */\n      0x1f\n        /* \"#utility.yul\":6924:6930   */\n      dup4\n        /* \"#utility.yul\":6920:6937   */\n      add\n        /* \"#utility.yul\":6916:6943   */\n      slt\n        /* \"#utility.yul\":6906:7028   */\n      tag_404\n      jumpi\n        /* \"#utility.yul\":6947:7026   */\n      tag_405\n      tag_250\n      jump\t// in\n    tag_405:\n        /* \"#utility.yul\":6906:7028   */\n    tag_404:\n        /* \"#utility.yul\":7064:7070   */\n      dup2\n        /* \"#utility.yul\":7051:7071   */\n      calldataload\n        /* \"#utility.yul\":7089:7168   */\n      tag_406\n        /* \"#utility.yul\":7164:7167   */\n      dup5\n        /* \"#utility.yul\":7156:7162   */\n      dup3\n        /* \"#utility.yul\":7149:7153   */\n      0x20\n        /* \"#utility.yul\":7141:7147   */\n      dup7\n        /* \"#utility.yul\":7137:7154   */\n      add\n        /* \"#utility.yul\":7089:7168   */\n      tag_256\n      jump\t// in\n    tag_406:\n        /* \"#utility.yul\":7080:7168   */\n      swap2\n      pop\n        /* \"#utility.yul\":6896:7174   */\n      pop\n        /* \"#utility.yul\":6834:7174   */\n      swap3\n      swap2\n      pop\n      pop\n      jump\t// out\n        /* \"#utility.yul\":7180:7501   */\n    tag_258:\n        /* \"#utility.yul\":7267:7271   */\n      0x00\n        /* \"#utility.yul\":7357:7375   */\n      0xffffffffffffffff\n        /* \"#utility.yul\":7349:7355   */\n      dup3\n        /* \"#utility.yul\":7346:7376   */\n      gt\n        /* \"#utility.yul\":7343:7399   */\n      iszero\n      tag_408\n      jumpi\n        /* \"#utility.yul\":7379:7397   */\n      tag_409\n      tag_176\n      jump\t// in\n    tag_409:\n        /* \"#utility.yul\":7343:7399   */\n    tag_408:\n        /* \"#utility.yul\":7429:7433   */\n      0x20\n        /* \"#utility.yul\":7421:7427   */\n      dup3\n        /* \"#utility.yul\":7417:7434   */\n      mul\n        /* \"#utility.yul\":7409:7434   */\n      swap1\n      pop\n        /* \"#utility.yul\":7489:7493   */\n      0x20\n        /* \"#utility.yul\":7483:7487   */\n      dup2\n        /* \"#utility.yul\":7479:7494   */\n      add\n        /* \"#utility.yul\":7471:7494   */\n      swap1\n      pop\n        /* \"#utility.yul\":7180:7501   */\n      swap2\n      swap1\n      pop\n      jump\t// out\n        /* \"#utility.yul\":7507:7624   */\n    tag_259:\n        /* \"#utility.yul\":7616:7617   */\n      0x00\n        /* \"#utility.yul\":7613:7614   */\n      dup1\n        /* \"#utility.yul\":7606:7618   */\n      revert\n        /* \"#utility.yul\":7646:8591   */\n    tag_260:\n        /* \"#utility.yul\":7752:7757   */\n      0x00\n        /* \"#utility.yul\":7777:7868   */\n      tag_412\n        /* \"#utility.yul\":7793:7867   */\n      tag_413\n        /* \"#utility.yul\":7860:7866   */\n      dup5\n        /* \"#utility.yul\":7793:7867   */\n      tag_258\n      jump\t// in\n    tag_413:\n        /* \"#utility.yul\":7777:7868   */\n      tag_253\n      jump\t// in\n    tag_412:\n        /* \"#utility.yul\":7768:7868   */\n      swap1\n      pop\n        /* \"#utility.yul\":7888:7893   */\n      dup1\n        /* \"#utility.yul\":7917:7923   */\n      dup4\n        /* \"#utility.yul\":7910:7915   */\n      dup3\n        /* \"#utility.yul\":7903:7924   */\n      mstore\n        /* \"#utility.yul\":7951:7955   */\n      0x20\n        /* \"#utility.yul\":7944:7949   */\n      dup3\n        /* \"#utility.yul\":7940:7956   */\n      add\n        /* \"#utility.yul\":7933:7956   */\n      swap1\n      pop\n        /* \"#utility.yul\":8004:8008   */\n      0x20\n        /* \"#utility.yul\":7996:8002   */\n      dup5\n        /* \"#utility.yul\":7992:8009   */\n      mul\n        /* \"#utility.yul\":7984:7990   */\n      dup4\n        /* \"#utility.yul\":7980:8010   */\n      add\n        /* \"#utility.yul\":8033:8036   */\n      dup6\n        /* \"#utility.yul\":8025:8031   */\n      dup2\n        /* \"#utility.yul\":8022:8037   */\n      gt\n        /* \"#utility.yul\":8019:8141   */\n      iszero\n      tag_414\n      jumpi\n        /* \"#utility.yul\":8052:8131   */\n      tag_415\n      tag_259\n      jump\t// in\n    tag_415:\n        /* \"#utility.yul\":8019:8141   */\n    tag_414:\n        /* \"#utility.yul\":8167:8173   */\n      dup4\n        /* \"#utility.yul\":8150:8585   */\n    tag_416:\n        /* \"#utility.yul\":8184:8190   */\n      dup2\n        /* \"#utility.yul\":8179:8182   */\n      dup2\n        /* \"#utility.yul\":8176:8191   */\n      lt\n        /* \"#utility.yul\":8150:8585   */\n      iszero\n      tag_418\n      jumpi\n        /* \"#utility.yul\":8273:8276   */\n      dup1\n        /* \"#utility.yul\":8260:8277   */\n      calldataload\n        /* \"#utility.yul\":8309:8327   */\n      0xffffffffffffffff\n        /* \"#utility.yul\":8296:8307   */\n      dup2\n        /* \"#utility.yul\":8293:8328   */\n      gt\n        /* \"#utility.yul\":8290:8412   */\n      iszero\n      tag_419\n      jumpi\n        /* \"#utility.yul\":8331:8410   */\n      tag_420\n      tag_250\n      jump\t// in\n    tag_420:\n        /* \"#utility.yul\":8290:8412   */\n    tag_419:\n        /* \"#utility.yul\":8455:8466   */\n      dup1\n        /* \"#utility.yul\":8447:8453   */\n      dup7\n        /* \"#utility.yul\":8443:8467   */\n      add\n        /* \"#utility.yul\":8493:8540   */\n      tag_421\n        /* \"#utility.yul\":8536:8539   */\n      dup10\n        /* \"#utility.yul\":8524:8534   */\n      dup3\n        /* \"#utility.yul\":8493:8540   */\n      tag_257\n      jump\t// in\n    tag_421:\n        /* \"#utility.yul\":8488:8491   */\n      dup6\n        /* \"#utility.yul\":8481:8541   */\n      mstore\n        /* \"#utility.yul\":8570:8574   */\n      0x20\n        /* \"#utility.yul\":8565:8568   */\n      dup6\n        /* \"#utility.yul\":8561:8575   */\n      add\n        /* \"#utility.yul\":8554:8575   */\n      swap5\n      pop\n        /* \"#utility.yul\":8226:8585   */\n      pop\n      pop\n        /* \"#utility.yul\":8210:8214   */\n      0x20\n        /* \"#utility.yul\":8205:8208   */\n      dup2\n        /* \"#utility.yul\":8201:8215   */\n      add\n        /* \"#utility.yul\":8194:8215   */\n      swap1\n      pop\n        /* \"#utility.yul\":8150:8585   */\n      jump(tag_416)\n    tag_418:\n        /* \"#utility.yul\":8154:8175   */\n      pop\n        /* \"#utility.yul\":7758:8591   */\n      pop\n      pop\n        /* \"#utility.yul\":7646:8591   */\n      swap4\n      swap3\n      pop\n      pop\n      pop\n      jump\t// out\n        /* \"#utility.yul\":8613:9003   */\n    tag_261:\n        /* \"#utility.yul\":8694:8699   */\n      0x00\n        /* \"#utility.yul\":8743:8746   */\n      dup3\n        /* \"#utility.yul\":8736:8740   */\n      0x1f\n        /* \"#utility.yul\":8728:8734   */\n      dup4\n        /* \"#utility.yul\":8724:8741   */\n      add\n        /* \"#utility.yul\":8720:8747   */\n      slt\n        /* \"#utility.yul\":8710:8832   */\n      tag_423\n      jumpi\n        /* \"#utility.yul\":8751:8830   */\n      tag_424\n      tag_250\n      jump\t// in\n    tag_424:\n        /* \"#utility.yul\":8710:8832   */\n    tag_423:\n        /* \"#utility.yul\":8868:8874   */\n      dup2\n        /* \"#utility.yul\":8855:8875   */\n      calldataload\n        /* \"#utility.yul\":8893:8997   */\n      tag_425\n        /* \"#utility.yul\":8993:8996   */\n      dup5\n        /* \"#utility.yul\":8985:8991   */\n      dup3\n        /* \"#utility.yul\":8978:8982   */\n      0x20\n        /* \"#utility.yul\":8970:8976   */\n      dup7\n        /* \"#utility.yul\":8966:8983   */\n      add\n        /* \"#utility.yul\":8893:8997   */\n      tag_260\n      jump\t// in\n    tag_425:\n        /* \"#utility.yul\":8884:8997   */\n      swap2\n      pop\n        /* \"#utility.yul\":8700:9003   */\n      pop\n        /* \"#utility.yul\":8613:9003   */\n      swap3\n      swap2\n      pop\n      pop\n      jump\t// out\n        /* \"#utility.yul\":9009:9320   */\n    tag_262:\n        /* \"#utility.yul\":9086:9090   */\n      0x00\n        /* \"#utility.yul\":9176:9194   */\n      0xffffffffffffffff\n        /* \"#utility.yul\":9168:9174   */\n      dup3\n        /* \"#utility.yul\":9165:9195   */\n      gt\n        /* \"#utility.yul\":9162:9218   */\n      iszero\n      tag_427\n      jumpi\n        /* \"#utility.yul\":9198:9216   */\n      tag_428\n      tag_176\n      jump\t// in\n    tag_428:\n        /* \"#utility.yul\":9162:9218   */\n    tag_427:\n        /* \"#utility.yul\":9248:9252   */\n      0x20\n        /* \"#utility.yul\":9240:9246   */\n      dup3\n        /* \"#utility.yul\":9236:9253   */\n      mul\n        /* \"#utility.yul\":9228:9253   */\n      swap1\n      pop\n        /* \"#utility.yul\":9308:9312   */\n      0x20\n        /* \"#utility.yul\":9302:9306   */\n      dup2\n        /* \"#utility.yul\":9298:9313   */\n      add\n        /* \"#utility.yul\":9290:9313   */\n      swap1\n      pop\n        /* \"#utility.yul\":9009:9320   */\n      swap2\n      swap1\n      pop\n      jump\t// out\n        /* \"#utility.yul\":9343:10053   */\n    tag_263:\n        /* \"#utility.yul\":9439:9444   */\n      0x00\n        /* \"#utility.yul\":9464:9545   */\n      tag_430\n        /* \"#utility.yul\":9480:9544   */\n      tag_431\n        /* \"#utility.yul\":9537:9543   */\n      dup5\n        /* \"#utility.yul\":9480:9544   */\n      tag_262\n      jump\t// in\n    tag_431:\n        /* \"#utility.yul\":9464:9545   */\n      tag_253\n      jump\t// in\n    tag_430:\n        /* \"#utility.yul\":9455:9545   */\n      swap1\n      pop\n        /* \"#utility.yul\":9565:9570   */\n      dup1\n        /* \"#utility.yul\":9594:9600   */\n      dup4\n        /* \"#utility.yul\":9587:9592   */\n      dup3\n        /* \"#utility.yul\":9580:9601   */\n      mstore\n        /* \"#utility.yul\":9628:9632   */\n      0x20\n        /* \"#utility.yul\":9621:9626   */\n      dup3\n        /* \"#utility.yul\":9617:9633   */\n      add\n        /* \"#utility.yul\":9610:9633   */\n      swap1\n      pop\n        /* \"#utility.yul\":9681:9685   */\n      0x20\n        /* \"#utility.yul\":9673:9679   */\n      dup5\n        /* \"#utility.yul\":9669:9686   */\n      mul\n        /* \"#utility.yul\":9661:9667   */\n      dup4\n        /* \"#utility.yul\":9657:9687   */\n      add\n        /* \"#utility.yul\":9710:9713   */\n      dup6\n        /* \"#utility.yul\":9702:9708   */\n      dup2\n        /* \"#utility.yul\":9699:9714   */\n      gt\n        /* \"#utility.yul\":9696:9818   */\n      iszero\n      tag_432\n      jumpi\n        /* \"#utility.yul\":9729:9808   */\n      tag_433\n      tag_259\n      jump\t// in\n    tag_433:\n        /* \"#utility.yul\":9696:9818   */\n    tag_432:\n        /* \"#utility.yul\":9844:9850   */\n      dup4\n        /* \"#utility.yul\":9827:10047   */\n    tag_434:\n        /* \"#utility.yul\":9861:9867   */\n      dup2\n        /* \"#utility.yul\":9856:9859   */\n      dup2\n        /* \"#utility.yul\":9853:9868   */\n      lt\n        /* \"#utility.yul\":9827:10047   */\n      iszero\n      tag_436\n      jumpi\n        /* \"#utility.yul\":9936:9939   */\n      dup1\n        /* \"#utility.yul\":9965:10002   */\n      tag_437\n        /* \"#utility.yul\":9998:10001   */\n      dup9\n        /* \"#utility.yul\":9986:9996   */\n      dup3\n        /* \"#utility.yul\":9965:10002   */\n      tag_236\n      jump\t// in\n    tag_437:\n        /* \"#utility.yul\":9960:9963   */\n      dup5\n        /* \"#utility.yul\":9953:10003   */\n      mstore\n        /* \"#utility.yul\":10032:10036   */\n      0x20\n        /* \"#utility.yul\":10027:10030   */\n      dup5\n        /* \"#utility.yul\":10023:10037   */\n      add\n        /* \"#utility.yul\":10016:10037   */\n      swap4\n      pop\n        /* \"#utility.yul\":9903:10047   */\n      pop\n        /* \"#utility.yul\":9887:9891   */\n      0x20\n        /* \"#utility.yul\":9882:9885   */\n      dup2\n        /* \"#utility.yul\":9878:9892   */\n      add\n        /* \"#utility.yul\":9871:9892   */\n      swap1\n      pop\n        /* \"#utility.yul\":9827:10047   */\n      jump(tag_434)\n    tag_436:\n        /* \"#utility.yul\":9831:9852   */\n      pop\n        /* \"#utility.yul\":9445:10053   */\n      pop\n      pop\n        /* \"#utility.yul\":9343:10053   */\n      swap4\n      swap3\n      pop\n      pop\n      pop\n      jump\t// out\n        /* \"#utility.yul\":10076:10446   */\n    tag_264:\n        /* \"#utility.yul\":10147:10152   */\n      0x00\n        /* \"#utility.yul\":10196:10199   */\n      dup3\n        /* \"#utility.yul\":10189:10193   */\n      0x1f\n        /* \"#utility.yul\":10181:10187   */\n      dup4\n        /* \"#utility.yul\":10177:10194   */\n      add\n        /* \"#utility.yul\":10173:10200   */\n      slt\n        /* \"#utility.yul\":10163:10285   */\n      tag_439\n      jumpi\n        /* \"#utility.yul\":10204:10283   */\n      tag_440\n      tag_250\n      jump\t// in\n    tag_440:\n        /* \"#utility.yul\":10163:10285   */\n    tag_439:\n        /* \"#utility.yul\":10321:10327   */\n      dup2\n        /* \"#utility.yul\":10308:10328   */\n      calldataload\n        /* \"#utility.yul\":10346:10440   */\n      tag_441\n        /* \"#utility.yul\":10436:10439   */\n      dup5\n        /* \"#utility.yul\":10428:10434   */\n      dup3\n        /* \"#utility.yul\":10421:10425   */\n      0x20\n        /* \"#utility.yul\":10413:10419   */\n      dup7\n        /* \"#utility.yul\":10409:10426   */\n      add\n        /* \"#utility.yul\":10346:10440   */\n      tag_263\n      jump\t// in\n    tag_441:\n        /* \"#utility.yul\":10337:10440   */\n      swap2\n      pop\n        /* \"#utility.yul\":10153:10446   */\n      pop\n        /* \"#utility.yul\":10076:10446   */\n      swap3\n      swap2\n      pop\n      pop\n      jump\t// out\n        /* \"#utility.yul\":10452:12309   */\n    tag_32:\n        /* \"#utility.yul\":10636:10642   */\n      0x00\n        /* \"#utility.yul\":10644:10650   */\n      dup1\n        /* \"#utility.yul\":10652:10658   */\n      0x00\n        /* \"#utility.yul\":10660:10666   */\n      dup1\n        /* \"#utility.yul\":10668:10674   */\n      0x00\n        /* \"#utility.yul\":10676:10682   */\n      dup1\n        /* \"#utility.yul\":10725:10728   */\n      0xc0\n        /* \"#utility.yul\":10713:10722   */\n      dup8\n        /* \"#utility.yul\":10704:10711   */\n      dup10\n        /* \"#utility.yul\":10700:10723   */\n      sub\n        /* \"#utility.yul\":10696:10729   */\n      slt\n        /* \"#utility.yul\":10693:10813   */\n      iszero\n      tag_443\n      jumpi\n        /* \"#utility.yul\":10732:10811   */\n      tag_444\n      tag_232\n      jump\t// in\n    tag_444:\n        /* \"#utility.yul\":10693:10813   */\n    tag_443:\n        /* \"#utility.yul\":10880:10881   */\n      0x00\n        /* \"#utility.yul\":10869:10878   */\n      dup8\n        /* \"#utility.yul\":10865:10882   */\n      add\n        /* \"#utility.yul\":10852:10883   */\n      calldataload\n        /* \"#utility.yul\":10910:10928   */\n      0xffffffffffffffff\n        /* \"#utility.yul\":10902:10908   */\n      dup2\n        /* \"#utility.yul\":10899:10929   */\n      gt\n        /* \"#utility.yul\":10896:11013   */\n      iszero\n      tag_445\n      jumpi\n        /* \"#utility.yul\":10932:11011   */\n      tag_446\n      tag_233\n      jump\t// in\n    tag_446:\n        /* \"#utility.yul\":10896:11013   */\n    tag_445:\n        /* \"#utility.yul\":11037:11100   */\n      tag_447\n        /* \"#utility.yul\":11092:11099   */\n      dup10\n        /* \"#utility.yul\":11083:11089   */\n      dup3\n        /* \"#utility.yul\":11072:11081   */\n      dup11\n        /* \"#utility.yul\":11068:11090   */\n      add\n        /* \"#utility.yul\":11037:11100   */\n      tag_257\n      jump\t// in\n    tag_447:\n        /* \"#utility.yul\":11027:11100   */\n      swap7\n      pop\n        /* \"#utility.yul\":10823:11110   */\n      pop\n        /* \"#utility.yul\":11177:11179   */\n      0x20\n        /* \"#utility.yul\":11166:11175   */\n      dup8\n        /* \"#utility.yul\":11162:11180   */\n      add\n        /* \"#utility.yul\":11149:11181   */\n      calldataload\n        /* \"#utility.yul\":11208:11226   */\n      0xffffffffffffffff\n        /* \"#utility.yul\":11200:11206   */\n      dup2\n        /* \"#utility.yul\":11197:11227   */\n      gt\n        /* \"#utility.yul\":11194:11311   */\n      iszero\n      tag_448\n      jumpi\n        /* \"#utility.yul\":11230:11309   */\n      tag_449\n      tag_233\n      jump\t// in\n    tag_449:\n        /* \"#utility.yul\":11194:11311   */\n    tag_448:\n        /* \"#utility.yul\":11335:11398   */\n      tag_450\n        /* \"#utility.yul\":11390:11397   */\n      dup10\n        /* \"#utility.yul\":11381:11387   */\n      dup3\n        /* \"#utility.yul\":11370:11379   */\n      dup11\n        /* \"#utility.yul\":11366:11388   */\n      add\n        /* \"#utility.yul\":11335:11398   */\n      tag_257\n      jump\t// in\n    tag_450:\n        /* \"#utility.yul\":11325:11398   */\n      swap6\n      pop\n        /* \"#utility.yul\":11120:11408   */\n      pop\n        /* \"#utility.yul\":11447:11449   */\n      0x40\n        /* \"#utility.yul\":11473:11526   */\n      tag_451\n        /* \"#utility.yul\":11518:11525   */\n      dup10\n        /* \"#utility.yul\":11509:11515   */\n      dup3\n        /* \"#utility.yul\":11498:11507   */\n      dup11\n        /* \"#utility.yul\":11494:11516   */\n      add\n        /* \"#utility.yul\":11473:11526   */\n      tag_236\n      jump\t// in\n    tag_451:\n        /* \"#utility.yul\":11463:11526   */\n      swap5\n      pop\n        /* \"#utility.yul\":11418:11536   */\n      pop\n        /* \"#utility.yul\":11575:11577   */\n      0x60\n        /* \"#utility.yul\":11601:11654   */\n      tag_452\n        /* \"#utility.yul\":11646:11653   */\n      dup10\n        /* \"#utility.yul\":11637:11643   */\n      dup3\n        /* \"#utility.yul\":11626:11635   */\n      dup11\n        /* \"#utility.yul\":11622:11644   */\n      add\n        /* \"#utility.yul\":11601:11654   */\n      tag_236\n      jump\t// in\n    tag_452:\n        /* \"#utility.yul\":11591:11654   */\n      swap4\n      pop\n        /* \"#utility.yul\":11546:11664   */\n      pop\n        /* \"#utility.yul\":11731:11734   */\n      0x80\n        /* \"#utility.yul\":11720:11729   */\n      dup8\n        /* \"#utility.yul\":11716:11735   */\n      add\n        /* \"#utility.yul\":11703:11736   */\n      calldataload\n        /* \"#utility.yul\":11763:11781   */\n      0xffffffffffffffff\n        /* \"#utility.yul\":11755:11761   */\n      dup2\n        /* \"#utility.yul\":11752:11782   */\n      gt\n        /* \"#utility.yul\":11749:11866   */\n      iszero\n      tag_453\n      jumpi\n        /* \"#utility.yul\":11785:11864   */\n      tag_454\n      tag_233\n      jump\t// in\n    tag_454:\n        /* \"#utility.yul\":11749:11866   */\n    tag_453:\n        /* \"#utility.yul\":11890:11978   */\n      tag_455\n        /* \"#utility.yul\":11970:11977   */\n      dup10\n        /* \"#utility.yul\":11961:11967   */\n      dup3\n        /* \"#utility.yul\":11950:11959   */\n      dup11\n        /* \"#utility.yul\":11946:11968   */\n      add\n        /* \"#utility.yul\":11890:11978   */\n      tag_261\n      jump\t// in\n    tag_455:\n        /* \"#utility.yul\":11880:11978   */\n      swap3\n      pop\n        /* \"#utility.yul\":11674:11988   */\n      pop\n        /* \"#utility.yul\":12055:12058   */\n      0xa0\n        /* \"#utility.yul\":12044:12053   */\n      dup8\n        /* \"#utility.yul\":12040:12059   */\n      add\n        /* \"#utility.yul\":12027:12060   */\n      calldataload\n        /* \"#utility.yul\":12087:12105   */\n      0xffffffffffffffff\n        /* \"#utility.yul\":12079:12085   */\n      dup2\n        /* \"#utility.yul\":12076:12106   */\n      gt\n        /* \"#utility.yul\":12073:12190   */\n      iszero\n      tag_456\n      jumpi\n        /* \"#utility.yul\":12109:12188   */\n      tag_457\n      tag_233\n      jump\t// in\n    tag_457:\n        /* \"#utility.yul\":12073:12190   */\n    tag_456:\n        /* \"#utility.yul\":12214:12292   */\n      tag_458\n        /* \"#utility.yul\":12284:12291   */\n      dup10\n        /* \"#utility.yul\":12275:12281   */\n      dup3\n        /* \"#utility.yul\":12264:12273   */\n      dup11\n        /* \"#utility.yul\":12260:12282   */\n      add\n        /* \"#utility.yul\":12214:12292   */\n      tag_264\n      jump\t// in\n    tag_458:\n        /* \"#utility.yul\":12204:12292   */\n      swap2\n      pop\n        /* \"#utility.yul\":11998:12302   */\n      pop\n        /* \"#utility.yul\":10452:12309   */\n      swap3\n      swap6\n      pop\n      swap3\n      swap6\n      pop\n      swap3\n      swap6\n      jump\t// out\n        /* \"#utility.yul\":12315:12537   */\n    tag_43:\n        /* \"#utility.yul\":12408:12412   */\n      0x00\n        /* \"#utility.yul\":12446:12448   */\n      0x20\n        /* \"#utility.yul\":12435:12444   */\n      dup3\n        /* \"#utility.yul\":12431:12449   */\n      add\n        /* \"#utility.yul\":12423:12449   */\n      swap1\n      pop\n        /* \"#utility.yul\":12459:12530   */\n      tag_460\n        /* \"#utility.yul\":12527:12528   */\n      0x00\n        /* \"#utility.yul\":12516:12525   */\n      dup4\n        /* \"#utility.yul\":12512:12529   */\n      add\n        /* \"#utility.yul\":12503:12509   */\n      dup5\n        /* \"#utility.yul\":12459:12530   */\n      tag_237\n      jump\t// in\n    tag_460:\n        /* \"#utility.yul\":12315:12537   */\n      swap3\n      swap2\n      pop\n      pop\n      jump\t// out\n        /* \"#utility.yul\":12543:12657   */\n    tag_265:\n        /* \"#utility.yul\":12610:12616   */\n      0x00\n        /* \"#utility.yul\":12644:12649   */\n      dup2\n        /* \"#utility.yul\":12638:12650   */\n      mload\n        /* \"#utility.yul\":12628:12650   */\n      swap1\n      pop\n        /* \"#utility.yul\":12543:12657   */\n      swap2\n      swap1\n      pop\n      jump\t// out\n        /* \"#utility.yul\":12663:12847   */\n    tag_266:\n        /* \"#utility.yul\":12762:12773   */\n      0x00\n        /* \"#utility.yul\":12796:12802   */\n      dup3\n        /* \"#utility.yul\":12791:12794   */\n      dup3\n        /* \"#utility.yul\":12784:12803   */\n      mstore\n        /* \"#utility.yul\":12836:12840   */\n      0x20\n        /* \"#utility.yul\":12831:12834   */\n      dup3\n        /* \"#utility.yul\":12827:12841   */\n      add\n        /* \"#utility.yul\":12812:12841   */\n      swap1\n      pop\n        /* \"#utility.yul\":12663:12847   */\n      swap3\n      swap2\n      pop\n      pop\n      jump\t// out\n        /* \"#utility.yul\":12853:12985   */\n    tag_267:\n        /* \"#utility.yul\":12920:12924   */\n      0x00\n        /* \"#utility.yul\":12943:12946   */\n      dup2\n        /* \"#utility.yul\":12935:12946   */\n      swap1\n      pop\n        /* \"#utility.yul\":12973:12977   */\n      0x20\n        /* \"#utility.yul\":12968:12971   */\n      dup3\n        /* \"#utility.yul\":12964:12978   */\n      add\n        /* \"#utility.yul\":12956:12978   */\n      swap1\n      pop\n        /* \"#utility.yul\":12853:12985   */\n      swap2\n      swap1\n      pop\n      jump\t// out\n        /* \"#utility.yul\":12991:13099   */\n    tag_268:\n        /* \"#utility.yul\":13068:13092   */\n      tag_465\n        /* \"#utility.yul\":13086:13091   */\n      dup2\n        /* \"#utility.yul\":13068:13092   */\n      tag_234\n      jump\t// in\n    tag_465:\n        /* \"#utility.yul\":13063:13066   */\n      dup3\n        /* \"#utility.yul\":13056:13093   */\n      mstore\n        /* \"#utility.yul\":12991:13099   */\n      pop\n      pop\n      jump\t// out\n        /* \"#utility.yul\":13105:13284   */\n    tag_269:\n        /* \"#utility.yul\":13174:13184   */\n      0x00\n        /* \"#utility.yul\":13195:13241   */\n      tag_467\n        /* \"#utility.yul\":13237:13240   */\n      dup4\n        /* \"#utility.yul\":13229:13235   */\n      dup4\n        /* \"#utility.yul\":13195:13241   */\n      tag_268\n      jump\t// in\n    tag_467:\n        /* \"#utility.yul\":13273:13277   */\n      0x20\n        /* \"#utility.yul\":13268:13271   */\n      dup4\n        /* \"#utility.yul\":13264:13278   */\n      add\n        /* \"#utility.yul\":13250:13278   */\n      swap1\n      pop\n        /* \"#utility.yul\":13105:13284   */\n      swap3\n      swap2\n      pop\n      pop\n      jump\t// out\n        /* \"#utility.yul\":13290:13403   */\n    tag_270:\n        /* \"#utility.yul\":13360:13364   */\n      0x00\n        /* \"#utility.yul\":13392:13396   */\n      0x20\n        /* \"#utility.yul\":13387:13390   */\n      dup3\n        /* \"#utility.yul\":13383:13397   */\n      add\n        /* \"#utility.yul\":13375:13397   */\n      swap1\n      pop\n        /* \"#utility.yul\":13290:13403   */\n      swap2\n      swap1\n      pop\n      jump\t// out\n        /* \"#utility.yul\":13439:14171   */\n    tag_271:\n        /* \"#utility.yul\":13558:13561   */\n      0x00\n        /* \"#utility.yul\":13587:13641   */\n      tag_470\n        /* \"#utility.yul\":13635:13640   */\n      dup3\n        /* \"#utility.yul\":13587:13641   */\n      tag_265\n      jump\t// in\n    tag_470:\n        /* \"#utility.yul\":13657:13743   */\n      tag_471\n        /* \"#utility.yul\":13736:13742   */\n      dup2\n        /* \"#utility.yul\":13731:13734   */\n      dup6\n        /* \"#utility.yul\":13657:13743   */\n      tag_266\n      jump\t// in\n    tag_471:\n        /* \"#utility.yul\":13650:13743   */\n      swap4\n      pop\n        /* \"#utility.yul\":13767:13823   */\n      tag_472\n        /* \"#utility.yul\":13817:13822   */\n      dup4\n        /* \"#utility.yul\":13767:13823   */\n      tag_267\n      jump\t// in\n    tag_472:\n        /* \"#utility.yul\":13846:13853   */\n      dup1\n        /* \"#utility.yul\":13877:13878   */\n      0x00\n        /* \"#utility.yul\":13862:14146   */\n    tag_473:\n        /* \"#utility.yul\":13887:13893   */\n      dup4\n        /* \"#utility.yul\":13884:13885   */\n      dup2\n        /* \"#utility.yul\":13881:13894   */\n      lt\n        /* \"#utility.yul\":13862:14146   */\n      iszero\n      tag_475\n      jumpi\n        /* \"#utility.yul\":13963:13969   */\n      dup2\n        /* \"#utility.yul\":13957:13970   */\n      mload\n        /* \"#utility.yul\":13990:14053   */\n      tag_476\n        /* \"#utility.yul\":14049:14052   */\n      dup9\n        /* \"#utility.yul\":14034:14047   */\n      dup3\n        /* \"#utility.yul\":13990:14053   */\n      tag_269\n      jump\t// in\n    tag_476:\n        /* \"#utility.yul\":13983:14053   */\n      swap8\n      pop\n        /* \"#utility.yul\":14076:14136   */\n      tag_477\n        /* \"#utility.yul\":14129:14135   */\n      dup4\n        /* \"#utility.yul\":14076:14136   */\n      tag_270\n      jump\t// in\n    tag_477:\n        /* \"#utility.yul\":14066:14136   */\n      swap3\n      pop\n        /* \"#utility.yul\":13922:14146   */\n      pop\n        /* \"#utility.yul\":13909:13910   */\n      0x01\n        /* \"#utility.yul\":13906:13907   */\n      dup2\n        /* \"#utility.yul\":13902:13911   */\n      add\n        /* \"#utility.yul\":13897:13911   */\n      swap1\n      pop\n        /* \"#utility.yul\":13862:14146   */\n      jump(tag_473)\n    tag_475:\n        /* \"#utility.yul\":13866:13880   */\n      pop\n        /* \"#utility.yul\":14162:14165   */\n      dup6\n        /* \"#utility.yul\":14155:14165   */\n      swap4\n      pop\n        /* \"#utility.yul\":13563:14171   */\n      pop\n      pop\n      pop\n        /* \"#utility.yul\":13439:14171   */\n      swap3\n      swap2\n      pop\n      pop\n      jump\t// out\n        /* \"#utility.yul\":14177:14550   */\n    tag_52:\n        /* \"#utility.yul\":14320:14324   */\n      0x00\n        /* \"#utility.yul\":14358:14360   */\n      0x20\n        /* \"#utility.yul\":14347:14356   */\n      dup3\n        /* \"#utility.yul\":14343:14361   */\n      add\n        /* \"#utility.yul\":14335:14361   */\n      swap1\n      pop\n        /* \"#utility.yul\":14407:14416   */\n      dup2\n        /* \"#utility.yul\":14401:14405   */\n      dup2\n        /* \"#utility.yul\":14397:14417   */\n      sub\n        /* \"#utility.yul\":14393:14394   */\n      0x00\n        /* \"#utility.yul\":14382:14391   */\n      dup4\n        /* \"#utility.yul\":14378:14395   */\n      add\n        /* \"#utility.yul\":14371:14418   */\n      mstore\n        /* \"#utility.yul\":14435:14543   */\n      tag_479\n        /* \"#utility.yul\":14538:14542   */\n      dup2\n        /* \"#utility.yul\":14529:14535   */\n      dup5\n        /* \"#utility.yul\":14435:14543   */\n      tag_271\n      jump\t// in\n    tag_479:\n        /* \"#utility.yul\":14427:14543   */\n      swap1\n      pop\n        /* \"#utility.yul\":14177:14550   */\n      swap3\n      swap2\n      pop\n      pop\n      jump\t// out\n        /* \"#utility.yul\":14556:14652   */\n    tag_272:\n        /* \"#utility.yul\":14593:14600   */\n      0x00\n        /* \"#utility.yul\":14622:14646   */\n      tag_481\n        /* \"#utility.yul\":14640:14645   */\n      dup3\n        /* \"#utility.yul\":14622:14646   */\n      tag_243\n      jump\t// in\n    tag_481:\n        /* \"#utility.yul\":14611:14646   */\n      swap1\n      pop\n        /* \"#utility.yul\":14556:14652   */\n      swap2\n      swap1\n      pop\n      jump\t// out\n        /* \"#utility.yul\":14658:14780   */\n    tag_273:\n        /* \"#utility.yul\":14731:14755   */\n      tag_483\n        /* \"#utility.yul\":14749:14754   */\n      dup2\n        /* \"#utility.yul\":14731:14755   */\n      tag_272\n      jump\t// in\n    tag_483:\n        /* \"#utility.yul\":14724:14729   */\n      dup2\n        /* \"#utility.yul\":14721:14756   */\n      eq\n        /* \"#utility.yul\":14711:14774   */\n      tag_484\n      jumpi\n        /* \"#utility.yul\":14770:14771   */\n      0x00\n        /* \"#utility.yul\":14767:14768   */\n      dup1\n        /* \"#utility.yul\":14760:14772   */\n      revert\n        /* \"#utility.yul\":14711:14774   */\n    tag_484:\n        /* \"#utility.yul\":14658:14780   */\n      pop\n      jump\t// out\n        /* \"#utility.yul\":14786:14925   */\n    tag_274:\n        /* \"#utility.yul\":14832:14837   */\n      0x00\n        /* \"#utility.yul\":14870:14876   */\n      dup2\n        /* \"#utility.yul\":14857:14877   */\n      calldataload\n        /* \"#utility.yul\":14848:14877   */\n      swap1\n      pop\n        /* \"#utility.yul\":14886:14919   */\n      tag_486\n        /* \"#utility.yul\":14913:14918   */\n      dup2\n        /* \"#utility.yul\":14886:14919   */\n      tag_273\n      jump\t// in\n    tag_486:\n        /* \"#utility.yul\":14786:14925   */\n      swap3\n      swap2\n      pop\n      pop\n      jump\t// out\n        /* \"#utility.yul\":14931:15405   */\n    tag_56:\n        /* \"#utility.yul\":14999:15005   */\n      0x00\n        /* \"#utility.yul\":15007:15013   */\n      dup1\n        /* \"#utility.yul\":15056:15058   */\n      0x40\n        /* \"#utility.yul\":15044:15053   */\n      dup4\n        /* \"#utility.yul\":15035:15042   */\n      dup6\n        /* \"#utility.yul\":15031:15054   */\n      sub\n        /* \"#utility.yul\":15027:15059   */\n      slt\n        /* \"#utility.yul\":15024:15143   */\n      iszero\n      tag_488\n      jumpi\n        /* \"#utility.yul\":15062:15141   */\n      tag_489\n      tag_232\n      jump\t// in\n    tag_489:\n        /* \"#utility.yul\":15024:15143   */\n    tag_488:\n        /* \"#utility.yul\":15182:15183   */\n      0x00\n        /* \"#utility.yul\":15207:15260   */\n      tag_490\n        /* \"#utility.yul\":15252:15259   */\n      dup6\n        /* \"#utility.yul\":15243:15249   */\n      dup3\n        /* \"#utility.yul\":15232:15241   */\n      dup7\n        /* \"#utility.yul\":15228:15250   */\n      add\n        /* \"#utility.yul\":15207:15260   */\n      tag_236\n      jump\t// in\n    tag_490:\n        /* \"#utility.yul\":15197:15260   */\n      swap3\n      pop\n        /* \"#utility.yul\":15153:15270   */\n      pop\n        /* \"#utility.yul\":15309:15311   */\n      0x20\n        /* \"#utility.yul\":15335:15388   */\n      tag_491\n        /* \"#utility.yul\":15380:15387   */\n      dup6\n        /* \"#utility.yul\":15371:15377   */\n      dup3\n        /* \"#utility.yul\":15360:15369   */\n      dup7\n        /* \"#utility.yul\":15356:15378   */\n      add\n        /* \"#utility.yul\":15335:15388   */\n      tag_274\n      jump\t// in\n    tag_491:\n        /* \"#utility.yul\":15325:15388   */\n      swap2\n      pop\n        /* \"#utility.yul\":15280:15398   */\n      pop\n        /* \"#utility.yul\":14931:15405   */\n      swap3\n      pop\n      swap3\n      swap1\n      pop\n      jump\t// out\n        /* \"#utility.yul\":15411:15501   */\n    tag_275:\n        /* \"#utility.yul\":15445:15452   */\n      0x00\n        /* \"#utility.yul\":15488:15493   */\n      dup2\n        /* \"#utility.yul\":15481:15494   */\n      iszero\n        /* \"#utility.yul\":15474:15495   */\n      iszero\n        /* \"#utility.yul\":15463:15495   */\n      swap1\n      pop\n        /* \"#utility.yul\":15411:15501   */\n      swap2\n      swap1\n      pop\n      jump\t// out\n        /* \"#utility.yul\":15507:15616   */\n    tag_276:\n        /* \"#utility.yul\":15588:15609   */\n      tag_494\n        /* \"#utility.yul\":15603:15608   */\n      dup2\n        /* \"#utility.yul\":15588:15609   */\n      tag_275\n      jump\t// in\n    tag_494:\n        /* \"#utility.yul\":15583:15586   */\n      dup3\n        /* \"#utility.yul\":15576:15610   */\n      mstore\n        /* \"#utility.yul\":15507:15616   */\n      pop\n      pop\n      jump\t// out\n        /* \"#utility.yul\":15622:15942   */\n    tag_59:\n        /* \"#utility.yul\":15737:15741   */\n      0x00\n        /* \"#utility.yul\":15775:15777   */\n      0x40\n        /* \"#utility.yul\":15764:15773   */\n      dup3\n        /* \"#utility.yul\":15760:15778   */\n      add\n        /* \"#utility.yul\":15752:15778   */\n      swap1\n      pop\n        /* \"#utility.yul\":15788:15859   */\n      tag_496\n        /* \"#utility.yul\":15856:15857   */\n      0x00\n        /* \"#utility.yul\":15845:15854   */\n      dup4\n        /* \"#utility.yul\":15841:15858   */\n      add\n        /* \"#utility.yul\":15832:15838   */\n      dup6\n        /* \"#utility.yul\":15788:15859   */\n      tag_237\n      jump\t// in\n    tag_496:\n        /* \"#utility.yul\":15869:15935   */\n      tag_497\n        /* \"#utility.yul\":15931:15933   */\n      0x20\n        /* \"#utility.yul\":15920:15929   */\n      dup4\n        /* \"#utility.yul\":15916:15934   */\n      add\n        /* \"#utility.yul\":15907:15913   */\n      dup5\n        /* \"#utility.yul\":15869:15935   */\n      tag_276\n      jump\t// in\n    tag_497:\n        /* \"#utility.yul\":15622:15942   */\n      swap4\n      swap3\n      pop\n      pop\n      pop\n      jump\t// out\n        /* \"#utility.yul\":15948:16066   */\n    tag_277:\n        /* \"#utility.yul\":16035:16059   */\n      tag_499\n        /* \"#utility.yul\":16053:16058   */\n      dup2\n        /* \"#utility.yul\":16035:16059   */\n      tag_272\n      jump\t// in\n    tag_499:\n        /* \"#utility.yul\":16030:16033   */\n      dup3\n        /* \"#utility.yul\":16023:16060   */\n      mstore\n        /* \"#utility.yul\":15948:16066   */\n      pop\n      pop\n      jump\t// out\n        /* \"#utility.yul\":16072:17279   */\n    tag_68:\n        /* \"#utility.yul\":16415:16419   */\n      0x00\n        /* \"#utility.yul\":16453:16456   */\n      0x0100\n        /* \"#utility.yul\":16442:16451   */\n      dup3\n        /* \"#utility.yul\":16438:16457   */\n      add\n        /* \"#utility.yul\":16430:16457   */\n      swap1\n      pop\n        /* \"#utility.yul\":16503:16512   */\n      dup2\n        /* \"#utility.yul\":16497:16501   */\n      dup2\n        /* \"#utility.yul\":16493:16513   */\n      sub\n        /* \"#utility.yul\":16489:16490   */\n      0x00\n        /* \"#utility.yul\":16478:16487   */\n      dup4\n        /* \"#utility.yul\":16474:16491   */\n      add\n        /* \"#utility.yul\":16467:16514   */\n      mstore\n        /* \"#utility.yul\":16531:16609   */\n      tag_501\n        /* \"#utility.yul\":16604:16608   */\n      dup2\n        /* \"#utility.yul\":16595:16601   */\n      dup12\n        /* \"#utility.yul\":16531:16609   */\n      tag_242\n      jump\t// in\n    tag_501:\n        /* \"#utility.yul\":16523:16609   */\n      swap1\n      pop\n        /* \"#utility.yul\":16656:16665   */\n      dup2\n        /* \"#utility.yul\":16650:16654   */\n      dup2\n        /* \"#utility.yul\":16646:16666   */\n      sub\n        /* \"#utility.yul\":16641:16643   */\n      0x20\n        /* \"#utility.yul\":16630:16639   */\n      dup4\n        /* \"#utility.yul\":16626:16644   */\n      add\n        /* \"#utility.yul\":16619:16667   */\n      mstore\n        /* \"#utility.yul\":16684:16762   */\n      tag_502\n        /* \"#utility.yul\":16757:16761   */\n      dup2\n        /* \"#utility.yul\":16748:16754   */\n      dup11\n        /* \"#utility.yul\":16684:16762   */\n      tag_242\n      jump\t// in\n    tag_502:\n        /* \"#utility.yul\":16676:16762   */\n      swap1\n      pop\n        /* \"#utility.yul\":16772:16844   */\n      tag_503\n        /* \"#utility.yul\":16840:16842   */\n      0x40\n        /* \"#utility.yul\":16829:16838   */\n      dup4\n        /* \"#utility.yul\":16825:16843   */\n      add\n        /* \"#utility.yul\":16816:16822   */\n      dup10\n        /* \"#utility.yul\":16772:16844   */\n      tag_237\n      jump\t// in\n    tag_503:\n        /* \"#utility.yul\":16854:16926   */\n      tag_504\n        /* \"#utility.yul\":16922:16924   */\n      0x60\n        /* \"#utility.yul\":16911:16920   */\n      dup4\n        /* \"#utility.yul\":16907:16925   */\n      add\n        /* \"#utility.yul\":16898:16904   */\n      dup9\n        /* \"#utility.yul\":16854:16926   */\n      tag_237\n      jump\t// in\n    tag_504:\n        /* \"#utility.yul\":16936:17009   */\n      tag_505\n        /* \"#utility.yul\":17004:17007   */\n      0x80\n        /* \"#utility.yul\":16993:17002   */\n      dup4\n        /* \"#utility.yul\":16989:17008   */\n      add\n        /* \"#utility.yul\":16980:16986   */\n      dup8\n        /* \"#utility.yul\":16936:17009   */\n      tag_237\n      jump\t// in\n    tag_505:\n        /* \"#utility.yul\":17019:17092   */\n      tag_506\n        /* \"#utility.yul\":17087:17090   */\n      0xa0\n        /* \"#utility.yul\":17076:17085   */\n      dup4\n        /* \"#utility.yul\":17072:17091   */\n      add\n        /* \"#utility.yul\":17063:17069   */\n      dup7\n        /* \"#utility.yul\":17019:17092   */\n      tag_277\n      jump\t// in\n    tag_506:\n        /* \"#utility.yul\":17102:17189   */\n      tag_507\n        /* \"#utility.yul\":17184:17187   */\n      0xc0\n        /* \"#utility.yul\":17173:17182   */\n      dup4\n        /* \"#utility.yul\":17169:17188   */\n      add\n        /* \"#utility.yul\":17160:17166   */\n      dup6\n        /* \"#utility.yul\":17102:17189   */\n      tag_249\n      jump\t// in\n    tag_507:\n        /* \"#utility.yul\":17199:17272   */\n      tag_508\n        /* \"#utility.yul\":17267:17270   */\n      0xe0\n        /* \"#utility.yul\":17256:17265   */\n      dup4\n        /* \"#utility.yul\":17252:17271   */\n      add\n        /* \"#utility.yul\":17243:17249   */\n      dup5\n        /* \"#utility.yul\":17199:17272   */\n      tag_237\n      jump\t// in\n    tag_508:\n        /* \"#utility.yul\":16072:17279   */\n      swap10\n      swap9\n      pop\n      pop\n      pop\n      pop\n      pop\n      pop\n      pop\n      pop\n      pop\n      jump\t// out\n        /* \"#utility.yul\":17285:17917   */\n    tag_74:\n        /* \"#utility.yul\":17476:17480   */\n      0x00\n        /* \"#utility.yul\":17514:17517   */\n      0x80\n        /* \"#utility.yul\":17503:17512   */\n      dup3\n        /* \"#utility.yul\":17499:17518   */\n      add\n        /* \"#utility.yul\":17491:17518   */\n      swap1\n      pop\n        /* \"#utility.yul\":17564:17573   */\n      dup2\n        /* \"#utility.yul\":17558:17562   */\n      dup2\n        /* \"#utility.yul\":17554:17574   */\n      sub\n        /* \"#utility.yul\":17550:17551   */\n      0x00\n        /* \"#utility.yul\":17539:17548   */\n      dup4\n        /* \"#utility.yul\":17535:17552   */\n      add\n        /* \"#utility.yul\":17528:17575   */\n      mstore\n        /* \"#utility.yul\":17592:17670   */\n      tag_510\n        /* \"#utility.yul\":17665:17669   */\n      dup2\n        /* \"#utility.yul\":17656:17662   */\n      dup8\n        /* \"#utility.yul\":17592:17670   */\n      tag_242\n      jump\t// in\n    tag_510:\n        /* \"#utility.yul\":17584:17670   */\n      swap1\n      pop\n        /* \"#utility.yul\":17680:17752   */\n      tag_511\n        /* \"#utility.yul\":17748:17750   */\n      0x20\n        /* \"#utility.yul\":17737:17746   */\n      dup4\n        /* \"#utility.yul\":17733:17751   */\n      add\n        /* \"#utility.yul\":17724:17730   */\n      dup7\n        /* \"#utility.yul\":17680:17752   */\n      tag_237\n      jump\t// in\n    tag_511:\n        /* \"#utility.yul\":17762:17828   */\n      tag_512\n        /* \"#utility.yul\":17824:17826   */\n      0x40\n        /* \"#utility.yul\":17813:17822   */\n      dup4\n        /* \"#utility.yul\":17809:17827   */\n      add\n        /* \"#utility.yul\":17800:17806   */\n      dup6\n        /* \"#utility.yul\":17762:17828   */\n      tag_276\n      jump\t// in\n    tag_512:\n        /* \"#utility.yul\":17838:17910   */\n      tag_513\n        /* \"#utility.yul\":17906:17908   */\n      0x60\n        /* \"#utility.yul\":17895:17904   */\n      dup4\n        /* \"#utility.yul\":17891:17909   */\n      add\n        /* \"#utility.yul\":17882:17888   */\n      dup5\n        /* \"#utility.yul\":17838:17910   */\n      tag_237\n      jump\t// in\n    tag_513:\n        /* \"#utility.yul\":17285:17917   */\n      swap6\n      swap5\n      pop\n      pop\n      pop\n      pop\n      pop\n      jump\t// out\n        /* \"#utility.yul\":17923:18037   */\n    tag_278:\n        /* \"#utility.yul\":17990:17996   */\n      0x00\n        /* \"#utility.yul\":18024:18029   */\n      dup2\n        /* \"#utility.yul\":18018:18030   */\n      mload\n        /* \"#utility.yul\":18008:18030   */\n      swap1\n      pop\n        /* \"#utility.yul\":17923:18037   */\n      swap2\n      swap1\n      pop\n      jump\t// out\n        /* \"#utility.yul\":18043:18227   */\n    tag_279:\n        /* \"#utility.yul\":18142:18153   */\n      0x00\n        /* \"#utility.yul\":18176:18182   */\n      dup3\n        /* \"#utility.yul\":18171:18174   */\n      dup3\n        /* \"#utility.yul\":18164:18183   */\n      mstore\n        /* \"#utility.yul\":18216:18220   */\n      0x20\n        /* \"#utility.yul\":18211:18214   */\n      dup3\n        /* \"#utility.yul\":18207:18221   */\n      add\n        /* \"#utility.yul\":18192:18221   */\n      swap1\n      pop\n        /* \"#utility.yul\":18043:18227   */\n      swap3\n      swap2\n      pop\n      pop\n      jump\t// out\n        /* \"#utility.yul\":18233:18365   */\n    tag_280:\n        /* \"#utility.yul\":18300:18304   */\n      0x00\n        /* \"#utility.yul\":18323:18326   */\n      dup2\n        /* \"#utility.yul\":18315:18326   */\n      swap1\n      pop\n        /* \"#utility.yul\":18353:18357   */\n      0x20\n        /* \"#utility.yul\":18348:18351   */\n      dup3\n        /* \"#utility.yul\":18344:18358   */\n      add\n        /* \"#utility.yul\":18336:18358   */\n      swap1\n      pop\n        /* \"#utility.yul\":18233:18365   */\n      swap2\n      swap1\n      pop\n      jump\t// out\n        /* \"#utility.yul\":18371:18479   */\n    tag_281:\n        /* \"#utility.yul\":18448:18472   */\n      tag_518\n        /* \"#utility.yul\":18466:18471   */\n      dup2\n        /* \"#utility.yul\":18448:18472   */\n      tag_272\n      jump\t// in\n    tag_518:\n        /* \"#utility.yul\":18443:18446   */\n      dup3\n        /* \"#utility.yul\":18436:18473   */\n      mstore\n        /* \"#utility.yul\":18371:18479   */\n      pop\n      pop\n      jump\t// out\n        /* \"#utility.yul\":18485:18664   */\n    tag_282:\n        /* \"#utility.yul\":18554:18564   */\n      0x00\n        /* \"#utility.yul\":18575:18621   */\n      tag_520\n        /* \"#utility.yul\":18617:18620   */\n      dup4\n        /* \"#utility.yul\":18609:18615   */\n      dup4\n        /* \"#utility.yul\":18575:18621   */\n      tag_281\n      jump\t// in\n    tag_520:\n        /* \"#utility.yul\":18653:18657   */\n      0x20\n        /* \"#utility.yul\":18648:18651   */\n      dup4\n        /* \"#utility.yul\":18644:18658   */\n      add\n        /* \"#utility.yul\":18630:18658   */\n      swap1\n      pop\n        /* \"#utility.yul\":18485:18664   */\n      swap3\n      swap2\n      pop\n      pop\n      jump\t// out\n        /* \"#utility.yul\":18670:18783   */\n    tag_283:\n        /* \"#utility.yul\":18740:18744   */\n      0x00\n        /* \"#utility.yul\":18772:18776   */\n      0x20\n        /* \"#utility.yul\":18767:18770   */\n      dup3\n        /* \"#utility.yul\":18763:18777   */\n      add\n        /* \"#utility.yul\":18755:18777   */\n      swap1\n      pop\n        /* \"#utility.yul\":18670:18783   */\n      swap2\n      swap1\n      pop\n      jump\t// out\n        /* \"#utility.yul\":18819:19551   */\n    tag_284:\n        /* \"#utility.yul\":18938:18941   */\n      0x00\n        /* \"#utility.yul\":18967:19021   */\n      tag_523\n        /* \"#utility.yul\":19015:19020   */\n      dup3\n        /* \"#utility.yul\":18967:19021   */\n      tag_278\n      jump\t// in\n    tag_523:\n        /* \"#utility.yul\":19037:19123   */\n      tag_524\n        /* \"#utility.yul\":19116:19122   */\n      dup2\n        /* \"#utility.yul\":19111:19114   */\n      dup6\n        /* \"#utility.yul\":19037:19123   */\n      tag_279\n      jump\t// in\n    tag_524:\n        /* \"#utility.yul\":19030:19123   */\n      swap4\n      pop\n        /* \"#utility.yul\":19147:19203   */\n      tag_525\n        /* \"#utility.yul\":19197:19202   */\n      dup4\n        /* \"#utility.yul\":19147:19203   */\n      tag_280\n      jump\t// in\n    tag_525:\n        /* \"#utility.yul\":19226:19233   */\n      dup1\n        /* \"#utility.yul\":19257:19258   */\n      0x00\n        /* \"#utility.yul\":19242:19526   */\n    tag_526:\n        /* \"#utility.yul\":19267:19273   */\n      dup4\n        /* \"#utility.yul\":19264:19265   */\n      dup2\n        /* \"#utility.yul\":19261:19274   */\n      lt\n        /* \"#utility.yul\":19242:19526   */\n      iszero\n      tag_528\n      jumpi\n        /* \"#utility.yul\":19343:19349   */\n      dup2\n        /* \"#utility.yul\":19337:19350   */\n      mload\n        /* \"#utility.yul\":19370:19433   */\n      tag_529\n        /* \"#utility.yul\":19429:19432   */\n      dup9\n        /* \"#utility.yul\":19414:19427   */\n      dup3\n        /* \"#utility.yul\":19370:19433   */\n      tag_282\n      jump\t// in\n    tag_529:\n        /* \"#utility.yul\":19363:19433   */\n      swap8\n      pop\n        /* \"#utility.yul\":19456:19516   */\n      tag_530\n        /* \"#utility.yul\":19509:19515   */\n      dup4\n        /* \"#utility.yul\":19456:19516   */\n      tag_283\n      jump\t// in\n    tag_530:\n        /* \"#utility.yul\":19446:19516   */\n      swap3\n      pop\n        /* \"#utility.yul\":19302:19526   */\n      pop\n        /* \"#utility.yul\":19289:19290   */\n      0x01\n        /* \"#utility.yul\":19286:19287   */\n      dup2\n        /* \"#utility.yul\":19282:19291   */\n      add\n        /* \"#utility.yul\":19277:19291   */\n      swap1\n      pop\n        /* \"#utility.yul\":19242:19526   */\n      jump(tag_526)\n    tag_528:\n        /* \"#utility.yul\":19246:19260   */\n      pop\n        /* \"#utility.yul\":19542:19545   */\n      dup6\n        /* \"#utility.yul\":19535:19545   */\n      swap4\n      pop\n        /* \"#utility.yul\":18943:19551   */\n      pop\n      pop\n      pop\n        /* \"#utility.yul\":18819:19551   */\n      swap3\n      swap2\n      pop\n      pop\n      jump\t// out\n        /* \"#utility.yul\":19557:19930   */\n    tag_80:\n        /* \"#utility.yul\":19700:19704   */\n      0x00\n        /* \"#utility.yul\":19738:19740   */\n      0x20\n        /* \"#utility.yul\":19727:19736   */\n      dup3\n        /* \"#utility.yul\":19723:19741   */\n      add\n        /* \"#utility.yul\":19715:19741   */\n      swap1\n      pop\n        /* \"#utility.yul\":19787:19796   */\n      dup2\n        /* \"#utility.yul\":19781:19785   */\n      dup2\n        /* \"#utility.yul\":19777:19797   */\n      sub\n        /* \"#utility.yul\":19773:19774   */\n      0x00\n        /* \"#utility.yul\":19762:19771   */\n      dup4\n        /* \"#utility.yul\":19758:19775   */\n      add\n        /* \"#utility.yul\":19751:19798   */\n      mstore\n        /* \"#utility.yul\":19815:19923   */\n      tag_532\n        /* \"#utility.yul\":19918:19922   */\n      dup2\n        /* \"#utility.yul\":19909:19915   */\n      dup5\n        /* \"#utility.yul\":19815:19923   */\n      tag_284\n      jump\t// in\n    tag_532:\n        /* \"#utility.yul\":19807:19923   */\n      swap1\n      pop\n        /* \"#utility.yul\":19557:19930   */\n      swap3\n      swap2\n      pop\n      pop\n      jump\t// out\n        /* \"#utility.yul\":19936:20116   */\n    tag_285:\n        /* \"#utility.yul\":19984:20061   */\n      0x4e487b7100000000000000000000000000000000000000000000000000000000\n        /* \"#utility.yul\":19981:19982   */\n      0x00\n        /* \"#utility.yul\":19974:20062   */\n      mstore\n        /* \"#utility.yul\":20081:20085   */\n      0x22\n        /* \"#utility.yul\":20078:20079   */\n      0x04\n        /* \"#utility.yul\":20071:20086   */\n      mstore\n        /* \"#utility.yul\":20105:20109   */\n      0x24\n        /* \"#utility.yul\":20102:20103   */\n      0x00\n        /* \"#utility.yul\":20095:20110   */\n      revert\n        /* \"#utility.yul\":20122:20442   */\n    tag_86:\n        /* \"#utility.yul\":20166:20172   */\n      0x00\n        /* \"#utility.yul\":20203:20204   */\n      0x02\n        /* \"#utility.yul\":20197:20201   */\n      dup3\n        /* \"#utility.yul\":20193:20205   */\n      div\n        /* \"#utility.yul\":20183:20205   */\n      swap1\n      pop\n        /* \"#utility.yul\":20250:20251   */\n      0x01\n        /* \"#utility.yul\":20244:20248   */\n      dup3\n        /* \"#utility.yul\":20240:20252   */\n      and\n        /* \"#utility.yul\":20271:20289   */\n      dup1\n        /* \"#utility.yul\":20261:20342   */\n      tag_535\n      jumpi\n        /* \"#utility.yul\":20327:20331   */\n      0x7f\n        /* \"#utility.yul\":20319:20325   */\n      dup3\n        /* \"#utility.yul\":20315:20332   */\n      and\n        /* \"#utility.yul\":20305:20332   */\n      swap2\n      pop\n        /* \"#utility.yul\":20261:20342   */\n    tag_535:\n        /* \"#utility.yul\":20389:20391   */\n      0x20\n        /* \"#utility.yul\":20381:20387   */\n      dup3\n        /* \"#utility.yul\":20378:20392   */\n      lt\n        /* \"#utility.yul\":20358:20376   */\n      dup2\n        /* \"#utility.yul\":20355:20393   */\n      sub\n        /* \"#utility.yul\":20352:20436   */\n      tag_536\n      jumpi\n        /* \"#utility.yul\":20408:20426   */\n      tag_537\n      tag_285\n      jump\t// in\n    tag_537:\n        /* \"#utility.yul\":20352:20436   */\n    tag_536:\n        /* \"#utility.yul\":20173:20442   */\n      pop\n        /* \"#utility.yul\":20122:20442   */\n      swap2\n      swap1\n      pop\n      jump\t// out\n        /* \"#utility.yul\":20448:20628   */\n    tag_99:\n        /* \"#utility.yul\":20496:20573   */\n      0x4e487b7100000000000000000000000000000000000000000000000000000000\n        /* \"#utility.yul\":20493:20494   */\n      0x00\n        /* \"#utility.yul\":20486:20574   */\n      mstore\n        /* \"#utility.yul\":20593:20597   */\n      0x32\n        /* \"#utility.yul\":20590:20591   */\n      0x04\n        /* \"#utility.yul\":20583:20598   */\n      mstore\n        /* \"#utility.yul\":20617:20621   */\n      0x24\n        /* \"#utility.yul\":20614:20615   */\n      0x00\n        /* \"#utility.yul\":20607:20622   */\n      revert\n        /* \"#utility.yul\":20634:20810   */\n    tag_286:\n        /* \"#utility.yul\":20774:20802   */\n      0x4f6e6c7920636f6e7472696275746f72732063616e20766f7465000000000000\n        /* \"#utility.yul\":20770:20771   */\n      0x00\n        /* \"#utility.yul\":20762:20768   */\n      dup3\n        /* \"#utility.yul\":20758:20772   */\n      add\n        /* \"#utility.yul\":20751:20803   */\n      mstore\n        /* \"#utility.yul\":20634:20810   */\n      pop\n      jump\t// out\n        /* \"#utility.yul\":20816:21182   */\n    tag_287:\n        /* \"#utility.yul\":20958:20961   */\n      0x00\n        /* \"#utility.yul\":20979:21046   */\n      tag_541\n        /* \"#utility.yul\":21043:21045   */\n      0x1a\n        /* \"#utility.yul\":21038:21041   */\n      dup4\n        /* \"#utility.yul\":20979:21046   */\n      tag_239\n      jump\t// in\n    tag_541:\n        /* \"#utility.yul\":20972:21046   */\n      swap2\n      pop\n        /* \"#utility.yul\":21055:21148   */\n      tag_542\n        /* \"#utility.yul\":21144:21147   */\n      dup3\n        /* \"#utility.yul\":21055:21148   */\n      tag_286\n      jump\t// in\n    tag_542:\n        /* \"#utility.yul\":21173:21175   */\n      0x20\n        /* \"#utility.yul\":21168:21171   */\n      dup3\n        /* \"#utility.yul\":21164:21176   */\n      add\n        /* \"#utility.yul\":21157:21176   */\n      swap1\n      pop\n        /* \"#utility.yul\":20816:21182   */\n      swap2\n      swap1\n      pop\n      jump\t// out\n        /* \"#utility.yul\":21188:21607   */\n    tag_103:\n        /* \"#utility.yul\":21354:21358   */\n      0x00\n        /* \"#utility.yul\":21392:21394   */\n      0x20\n        /* \"#utility.yul\":21381:21390   */\n      dup3\n        /* \"#utility.yul\":21377:21395   */\n      add\n        /* \"#utility.yul\":21369:21395   */\n      swap1\n      pop\n        /* \"#utility.yul\":21441:21450   */\n      dup2\n        /* \"#utility.yul\":21435:21439   */\n      dup2\n        /* \"#utility.yul\":21431:21451   */\n      sub\n        /* \"#utility.yul\":21427:21428   */\n      0x00\n        /* \"#utility.yul\":21416:21425   */\n      dup4\n        /* \"#utility.yul\":21412:21429   */\n      add\n        /* \"#utility.yul\":21405:21452   */\n      mstore\n        /* \"#utility.yul\":21469:21600   */\n      tag_544\n        /* \"#utility.yul\":21595:21599   */\n      dup2\n        /* \"#utility.yul\":21469:21600   */\n      tag_287\n      jump\t// in\n    tag_544:\n        /* \"#utility.yul\":21461:21600   */\n      swap1\n      pop\n        /* \"#utility.yul\":21188:21607   */\n      swap2\n      swap1\n      pop\n      jump\t// out\n        /* \"#utility.yul\":21613:21841   */\n    tag_288:\n        /* \"#utility.yul\":21753:21787   */\n      0x596f75206861766520616c726561647920766f74656420666f72207468697320\n        /* \"#utility.yul\":21749:21750   */\n      0x00\n        /* \"#utility.yul\":21741:21747   */\n      dup3\n        /* \"#utility.yul\":21737:21751   */\n      add\n        /* \"#utility.yul\":21730:21788   */\n      mstore\n        /* \"#utility.yul\":21822:21833   */\n      0x6d696c6573746f6e650000000000000000000000000000000000000000000000\n        /* \"#utility.yul\":21817:21819   */\n      0x20\n        /* \"#utility.yul\":21809:21815   */\n      dup3\n        /* \"#utility.yul\":21805:21820   */\n      add\n        /* \"#utility.yul\":21798:21834   */\n      mstore\n        /* \"#utility.yul\":21613:21841   */\n      pop\n      jump\t// out\n        /* \"#utility.yul\":21847:22213   */\n    tag_289:\n        /* \"#utility.yul\":21989:21992   */\n      0x00\n        /* \"#utility.yul\":22010:22077   */\n      tag_547\n        /* \"#utility.yul\":22074:22076   */\n      0x29\n        /* \"#utility.yul\":22069:22072   */\n      dup4\n        /* \"#utility.yul\":22010:22077   */\n      tag_239\n      jump\t// in\n    tag_547:\n        /* \"#utility.yul\":22003:22077   */\n      swap2\n      pop\n        /* \"#utility.yul\":22086:22179   */\n      tag_548\n        /* \"#utility.yul\":22175:22178   */\n      dup3\n        /* \"#utility.yul\":22086:22179   */\n      tag_288\n      jump\t// in\n    tag_548:\n        /* \"#utility.yul\":22204:22206   */\n      0x40\n        /* \"#utility.yul\":22199:22202   */\n      dup3\n        /* \"#utility.yul\":22195:22207   */\n      add\n        /* \"#utility.yul\":22188:22207   */\n      swap1\n      pop\n        /* \"#utility.yul\":21847:22213   */\n      swap2\n      swap1\n      pop\n      jump\t// out\n        /* \"#utility.yul\":22219:22638   */\n    tag_106:\n        /* \"#utility.yul\":22385:22389   */\n      0x00\n        /* \"#utility.yul\":22423:22425   */\n      0x20\n        /* \"#utility.yul\":22412:22421   */\n      dup3\n        /* \"#utility.yul\":22408:22426   */\n      add\n        /* \"#utility.yul\":22400:22426   */\n      swap1\n      pop\n        /* \"#utility.yul\":22472:22481   */\n      dup2\n        /* \"#utility.yul\":22466:22470   */\n      dup2\n        /* \"#utility.yul\":22462:22482   */\n      sub\n        /* \"#utility.yul\":22458:22459   */\n      0x00\n        /* \"#utility.yul\":22447:22456   */\n      dup4\n        /* \"#utility.yul\":22443:22460   */\n      add\n        /* \"#utility.yul\":22436:22483   */\n      mstore\n        /* \"#utility.yul\":22500:22631   */\n      tag_550\n        /* \"#utility.yul\":22626:22630   */\n      dup2\n        /* \"#utility.yul\":22500:22631   */\n      tag_289\n      jump\t// in\n    tag_550:\n        /* \"#utility.yul\":22492:22631   */\n      swap1\n      pop\n        /* \"#utility.yul\":22219:22638   */\n      swap2\n      swap1\n      pop\n      jump\t// out\n        /* \"#utility.yul\":22644:22824   */\n    tag_290:\n        /* \"#utility.yul\":22692:22769   */\n      0x4e487b7100000000000000000000000000000000000000000000000000000000\n        /* \"#utility.yul\":22689:22690   */\n      0x00\n        /* \"#utility.yul\":22682:22770   */\n      mstore\n        /* \"#utility.yul\":22789:22793   */\n      0x11\n        /* \"#utility.yul\":22786:22787   */\n      0x04\n        /* \"#utility.yul\":22779:22794   */\n      mstore\n        /* \"#utility.yul\":22813:22817   */\n      0x24\n        /* \"#utility.yul\":22810:22811   */\n      0x00\n        /* \"#utility.yul\":22803:22818   */\n      revert\n        /* \"#utility.yul\":22830:23063   */\n    tag_108:\n        /* \"#utility.yul\":22869:22872   */\n      0x00\n        /* \"#utility.yul\":22892:22916   */\n      tag_553\n        /* \"#utility.yul\":22910:22915   */\n      dup3\n        /* \"#utility.yul\":22892:22916   */\n      tag_234\n      jump\t// in\n    tag_553:\n        /* \"#utility.yul\":22883:22916   */\n      swap2\n      pop\n        /* \"#utility.yul\":22938:23004   */\n      0xffffffffffffffffffffffffffffffffffffffffffffffffffffffffffffffff\n        /* \"#utility.yul\":22931:22936   */\n      dup3\n        /* \"#utility.yul\":22928:23005   */\n      sub\n        /* \"#utility.yul\":22925:23028   */\n      tag_554\n      jumpi\n        /* \"#utility.yul\":23008:23026   */\n      tag_555\n      tag_290\n      jump\t// in\n    tag_555:\n        /* \"#utility.yul\":22925:23028   */\n    tag_554:\n        /* \"#utility.yul\":23055:23056   */\n      0x01\n        /* \"#utility.yul\":23048:23053   */\n      dup3\n        /* \"#utility.yul\":23044:23057   */\n      add\n        /* \"#utility.yul\":23037:23057   */\n      swap1\n      pop\n        /* \"#utility.yul\":22830:23063   */\n      swap2\n      swap1\n      pop\n      jump\t// out\n        /* \"#utility.yul\":23069:23249   */\n    tag_291:\n        /* \"#utility.yul\":23117:23194   */\n      0x4e487b7100000000000000000000000000000000000000000000000000000000\n        /* \"#utility.yul\":23114:23115   */\n      0x00\n        /* \"#utility.yul\":23107:23195   */\n      mstore\n        /* \"#utility.yul\":23214:23218   */\n      0x12\n        /* \"#utility.yul\":23211:23212   */\n      0x04\n        /* \"#utility.yul\":23204:23219   */\n      mstore\n        /* \"#utility.yul\":23238:23242   */\n      0x24\n        /* \"#utility.yul\":23235:23236   */\n      0x00\n        /* \"#utility.yul\":23228:23243   */\n      revert\n        /* \"#utility.yul\":23255:23440   */\n    tag_110:\n        /* \"#utility.yul\":23295:23296   */\n      0x00\n        /* \"#utility.yul\":23312:23332   */\n      tag_558\n        /* \"#utility.yul\":23330:23331   */\n      dup3\n        /* \"#utility.yul\":23312:23332   */\n      tag_234\n      jump\t// in\n    tag_558:\n        /* \"#utility.yul\":23307:23332   */\n      swap2\n      pop\n        /* \"#utility.yul\":23346:23366   */\n      tag_559\n        /* \"#utility.yul\":23364:23365   */\n      dup4\n        /* \"#utility.yul\":23346:23366   */\n      tag_234\n      jump\t// in\n    tag_559:\n        /* \"#utility.yul\":23341:23366   */\n      swap3\n      pop\n        /* \"#utility.yul\":23385:23386   */\n      dup3\n        /* \"#utility.yul\":23375:23410   */\n      tag_560\n      jumpi\n        /* \"#utility.yul\":23390:23408   */\n      tag_561\n      tag_291\n      jump\t// in\n    tag_561:\n        /* \"#utility.yul\":23375:23410   */\n    tag_560:\n        /* \"#utility.yul\":23432:23433   */\n      dup3\n        /* \"#utility.yul\":23429:23430   */\n      dup3\n        /* \"#utility.yul\":23425:23434   */\n      div\n        /* \"#utility.yul\":23420:23434   */\n      swap1\n      pop\n        /* \"#utility.yul\":23255:23440   */\n      swap3\n      swap2\n      pop\n      pop\n      jump\t// out\n        /* \"#utility.yul\":23446:23778   */\n    tag_116:\n        /* \"#utility.yul\":23567:23571   */\n      0x00\n        /* \"#utility.yul\":23605:23607   */\n      0x40\n        /* \"#utility.yul\":23594:23603   */\n      dup3\n        /* \"#utility.yul\":23590:23608   */\n      add\n        /* \"#utility.yul\":23582:23608   */\n      swap1\n      pop\n        /* \"#utility.yul\":23618:23689   */\n      tag_563\n        /* \"#utility.yul\":23686:23687   */\n      0x00\n        /* \"#utility.yul\":23675:23684   */\n      dup4\n        /* \"#utility.yul\":23671:23688   */\n      add\n        /* \"#utility.yul\":23662:23668   */\n      dup6\n        /* \"#utility.yul\":23618:23689   */\n      tag_237\n      jump\t// in\n    tag_563:\n        /* \"#utility.yul\":23699:23771   */\n      tag_564\n        /* \"#utility.yul\":23767:23769   */\n      0x20\n        /* \"#utility.yul\":23756:23765   */\n      dup4\n        /* \"#utility.yul\":23752:23770   */\n      add\n        /* \"#utility.yul\":23743:23749   */\n      dup5\n        /* \"#utility.yul\":23699:23771   */\n      tag_237\n      jump\t// in\n    tag_564:\n        /* \"#utility.yul\":23446:23778   */\n      swap4\n      swap3\n      pop\n      pop\n      pop\n      jump\t// out\n        /* \"#utility.yul\":23784:23964   */\n    tag_292:\n        /* \"#utility.yul\":23924:23956   */\n      0x446561646c696e65206d75737420626520696e20746865206675747572650000\n        /* \"#utility.yul\":23920:23921   */\n      0x00\n        /* \"#utility.yul\":23912:23918   */\n      dup3\n        /* \"#utility.yul\":23908:23922   */\n      add\n        /* \"#utility.yul\":23901:23957   */\n      mstore\n        /* \"#utility.yul\":23784:23964   */\n      pop\n      jump\t// out\n        /* \"#utility.yul\":23970:24336   */\n    tag_293:\n        /* \"#utility.yul\":24112:24115   */\n      0x00\n        /* \"#utility.yul\":24133:24200   */\n      tag_567\n        /* \"#utility.yul\":24197:24199   */\n      0x1e\n        /* \"#utility.yul\":24192:24195   */\n      dup4\n        /* \"#utility.yul\":24133:24200   */\n      tag_239\n      jump\t// in\n    tag_567:\n        /* \"#utility.yul\":24126:24200   */\n      swap2\n      pop\n        /* \"#utility.yul\":24209:24302   */\n      tag_568\n        /* \"#utility.yul\":24298:24301   */\n      dup3\n        /* \"#utility.yul\":24209:24302   */\n      tag_292\n      jump\t// in\n    tag_568:\n        /* \"#utility.yul\":24327:24329   */\n      0x20\n        /* \"#utility.yul\":24322:24325   */\n      dup3\n        /* \"#utility.yul\":24318:24330   */\n      add\n        /* \"#utility.yul\":24311:24330   */\n      swap1\n      pop\n        /* \"#utility.yul\":23970:24336   */\n      swap2\n      swap1\n      pop\n      jump\t// out\n        /* \"#utility.yul\":24342:24761   */\n    tag_120:\n        /* \"#utility.yul\":24508:24512   */\n      0x00\n        /* \"#utility.yul\":24546:24548   */\n      0x20\n        /* \"#utility.yul\":24535:24544   */\n      dup3\n        /* \"#utility.yul\":24531:24549   */\n      add\n        /* \"#utility.yul\":24523:24549   */\n      swap1\n      pop\n        /* \"#utility.yul\":24595:24604   */\n      dup2\n        /* \"#utility.yul\":24589:24593   */\n      dup2\n        /* \"#utility.yul\":24585:24605   */\n      sub\n        /* \"#utility.yul\":24581:24582   */\n      0x00\n        /* \"#utility.yul\":24570:24579   */\n      dup4\n        /* \"#utility.yul\":24566:24583   */\n      add\n        /* \"#utility.yul\":24559:24606   */\n      mstore\n        /* \"#utility.yul\":24623:24754   */\n      tag_570\n        /* \"#utility.yul\":24749:24753   */\n      dup2\n        /* \"#utility.yul\":24623:24754   */\n      tag_293\n      jump\t// in\n    tag_570:\n        /* \"#utility.yul\":24615:24754   */\n      swap1\n      pop\n        /* \"#utility.yul\":24342:24761   */\n      swap2\n      swap1\n      pop\n      jump\t// out\n        /* \"#utility.yul\":24767:24941   */\n    tag_294:\n        /* \"#utility.yul\":24907:24933   */\n      0x4d696c6573746f6e65732064617461206d69736d617463680000000000000000\n        /* \"#utility.yul\":24903:24904   */\n      0x00\n        /* \"#utility.yul\":24895:24901   */\n      dup3\n        /* \"#utility.yul\":24891:24905   */\n      add\n        /* \"#utility.yul\":24884:24934   */\n      mstore\n        /* \"#utility.yul\":24767:24941   */\n      pop\n      jump\t// out\n        /* \"#utility.yul\":24947:25313   */\n    tag_295:\n        /* \"#utility.yul\":25089:25092   */\n      0x00\n        /* \"#utility.yul\":25110:25177   */\n      tag_573\n        /* \"#utility.yul\":25174:25176   */\n      0x18\n        /* \"#utility.yul\":25169:25172   */\n      dup4\n        /* \"#utility.yul\":25110:25177   */\n      tag_239\n      jump\t// in\n    tag_573:\n        /* \"#utility.yul\":25103:25177   */\n      swap2\n      pop\n        /* \"#utility.yul\":25186:25279   */\n      tag_574\n        /* \"#utility.yul\":25275:25278   */\n      dup3\n        /* \"#utility.yul\":25186:25279   */\n      tag_294\n      jump\t// in\n    tag_574:\n        /* \"#utility.yul\":25304:25306   */\n      0x20\n        /* \"#utility.yul\":25299:25302   */\n      dup3\n        /* \"#utility.yul\":25295:25307   */\n      add\n        /* \"#utility.yul\":25288:25307   */\n      swap1\n      pop\n        /* \"#utility.yul\":24947:25313   */\n      swap2\n      swap1\n      pop\n      jump\t// out\n        /* \"#utility.yul\":25319:25738   */\n    tag_123:\n        /* \"#utility.yul\":25485:25489   */\n      0x00\n        /* \"#utility.yul\":25523:25525   */\n      0x20\n        /* \"#utility.yul\":25512:25521   */\n      dup3\n        /* \"#utility.yul\":25508:25526   */\n      add\n        /* \"#utility.yul\":25500:25526   */\n      swap1\n      pop\n        /* \"#utility.yul\":25572:25581   */\n      dup2\n        /* \"#utility.yul\":25566:25570   */\n      dup2\n        /* \"#utility.yul\":25562:25582   */\n      sub\n        /* \"#utility.yul\":25558:25559   */\n      0x00\n        /* \"#utility.yul\":25547:25556   */\n      dup4\n        /* \"#utility.yul\":25543:25560   */\n      add\n        /* \"#utility.yul\":25536:25583   */\n      mstore\n        /* \"#utility.yul\":25600:25731   */\n      tag_576\n        /* \"#utility.yul\":25726:25730   */\n      dup2\n        /* \"#utility.yul\":25600:25731   */\n      tag_295\n      jump\t// in\n    tag_576:\n        /* \"#utility.yul\":25592:25731   */\n      swap1\n      pop\n        /* \"#utility.yul\":25319:25738   */\n      swap2\n      swap1\n      pop\n      jump\t// out\n        /* \"#utility.yul\":25744:25885   */\n    tag_296:\n        /* \"#utility.yul\":25793:25797   */\n      0x00\n        /* \"#utility.yul\":25816:25819   */\n      dup2\n        /* \"#utility.yul\":25808:25819   */\n      swap1\n      pop\n        /* \"#utility.yul\":25839:25842   */\n      dup2\n        /* \"#utility.yul\":25836:25837   */\n      0x00\n        /* \"#utility.yul\":25829:25843   */\n      mstore\n        /* \"#utility.yul\":25873:25877   */\n      0x20\n        /* \"#utility.yul\":25870:25871   */\n      0x00\n        /* \"#utility.yul\":25860:25878   */\n      keccak256\n        /* \"#utility.yul\":25852:25878   */\n      swap1\n      pop\n        /* \"#utility.yul\":25744:25885   */\n      swap2\n      swap1\n      pop\n      jump\t// out\n        /* \"#utility.yul\":25891:25984   */\n    tag_297:\n        /* \"#utility.yul\":25928:25934   */\n      0x00\n        /* \"#utility.yul\":25975:25977   */\n      0x20\n        /* \"#utility.yul\":25970:25972   */\n      0x1f\n        /* \"#utility.yul\":25963:25968   */\n      dup4\n        /* \"#utility.yul\":25959:25973   */\n      add\n        /* \"#utility.yul\":25955:25978   */\n      div\n        /* \"#utility.yul\":25945:25978   */\n      swap1\n      pop\n        /* \"#utility.yul\":25891:25984   */\n      swap2\n      swap1\n      pop\n      jump\t// out\n        /* \"#utility.yul\":25990:26097   */\n    tag_298:\n        /* \"#utility.yul\":26034:26042   */\n      0x00\n        /* \"#utility.yul\":26084:26089   */\n      dup3\n        /* \"#utility.yul\":26078:26082   */\n      dup3\n        /* \"#utility.yul\":26074:26090   */\n      shl\n        /* \"#utility.yul\":26053:26090   */\n      swap1\n      pop\n        /* \"#utility.yul\":25990:26097   */\n      swap3\n      swap2\n      pop\n      pop\n      jump\t// out\n        /* \"#utility.yul\":26103:26496   */\n    tag_299:\n        /* \"#utility.yul\":26172:26178   */\n      0x00\n        /* \"#utility.yul\":26222:26223   */\n      0x08\n        /* \"#utility.yul\":26210:26220   */\n      dup4\n        /* \"#utility.yul\":26206:26224   */\n      mul\n        /* \"#utility.yul\":26245:26342   */\n      tag_581\n        /* \"#utility.yul\":26275:26341   */\n      0xffffffffffffffffffffffffffffffffffffffffffffffffffffffffffffffff\n        /* \"#utility.yul\":26264:26273   */\n      dup3\n        /* \"#utility.yul\":26245:26342   */\n      tag_298\n      jump\t// in\n    tag_581:\n        /* \"#utility.yul\":26363:26402   */\n      tag_582\n        /* \"#utility.yul\":26393:26401   */\n      dup7\n        /* \"#utility.yul\":26382:26391   */\n      dup4\n        /* \"#utility.yul\":26363:26402   */\n      tag_298\n      jump\t// in\n    tag_582:\n        /* \"#utility.yul\":26351:26402   */\n      swap6\n      pop\n        /* \"#utility.yul\":26435:26439   */\n      dup1\n        /* \"#utility.yul\":26431:26440   */\n      not\n        /* \"#utility.yul\":26424:26429   */\n      dup5\n        /* \"#utility.yul\":26420:26441   */\n      and\n        /* \"#utility.yul\":26411:26441   */\n      swap4\n      pop\n        /* \"#utility.yul\":26484:26488   */\n      dup1\n        /* \"#utility.yul\":26474:26482   */\n      dup7\n        /* \"#utility.yul\":26470:26489   */\n      and\n        /* \"#utility.yul\":26463:26468   */\n      dup5\n        /* \"#utility.yul\":26460:26490   */\n      or\n        /* \"#utility.yul\":26450:26490   */\n      swap3\n      pop\n        /* \"#utility.yul\":26179:26496   */\n      pop\n      pop\n        /* \"#utility.yul\":26103:26496   */\n      swap4\n      swap3\n      pop\n      pop\n      pop\n      jump\t// out\n        /* \"#utility.yul\":26502:26562   */\n    tag_300:\n        /* \"#utility.yul\":26530:26533   */\n      0x00\n        /* \"#utility.yul\":26551:26556   */\n      dup2\n        /* \"#utility.yul\":26544:26556   */\n      swap1\n      pop\n        /* \"#utility.yul\":26502:26562   */\n      swap2\n      swap1\n      pop\n      jump\t// out\n        /* \"#utility.yul\":26568:26710   */\n    tag_301:\n        /* \"#utility.yul\":26618:26627   */\n      0x00\n        /* \"#utility.yul\":26651:26704   */\n      tag_585\n        /* \"#utility.yul\":26669:26703   */\n      tag_586\n        /* \"#utility.yul\":26678:26702   */\n      tag_587\n        /* \"#utility.yul\":26696:26701   */\n      dup5\n        /* \"#utility.yul\":26678:26702   */\n      tag_234\n      jump\t// in\n    tag_587:\n        /* \"#utility.yul\":26669:26703   */\n      tag_300\n      jump\t// in\n    tag_586:\n        /* \"#utility.yul\":26651:26704   */\n      tag_234\n      jump\t// in\n    tag_585:\n        /* \"#utility.yul\":26638:26704   */\n      swap1\n      pop\n        /* \"#utility.yul\":26568:26710   */\n      swap2\n      swap1\n      pop\n      jump\t// out\n        /* \"#utility.yul\":26716:26791   */\n    tag_302:\n        /* \"#utility.yul\":26759:26762   */\n      0x00\n        /* \"#utility.yul\":26780:26785   */\n      dup2\n        /* \"#utility.yul\":26773:26785   */\n      swap1\n      pop\n        /* \"#utility.yul\":26716:26791   */\n      swap2\n      swap1\n      pop\n      jump\t// out\n        /* \"#utility.yul\":26797:27066   */\n    tag_303:\n        /* \"#utility.yul\":26907:26946   */\n      tag_590\n        /* \"#utility.yul\":26938:26945   */\n      dup4\n        /* \"#utility.yul\":26907:26946   */\n      tag_301\n      jump\t// in\n    tag_590:\n        /* \"#utility.yul\":26968:27059   */\n      tag_591\n        /* \"#utility.yul\":27017:27058   */\n      tag_592\n        /* \"#utility.yul\":27041:27057   */\n      dup3\n        /* \"#utility.yul\":27017:27058   */\n      tag_302\n      jump\t// in\n    tag_592:\n        /* \"#utility.yul\":27009:27015   */\n      dup5\n        /* \"#utility.yul\":27002:27006   */\n      dup5\n        /* \"#utility.yul\":26996:27007   */\n      sload\n        /* \"#utility.yul\":26968:27059   */\n      tag_299\n      jump\t// in\n    tag_591:\n        /* \"#utility.yul\":26962:26966   */\n      dup3\n        /* \"#utility.yul\":26955:27060   */\n      sstore\n        /* \"#utility.yul\":26873:27066   */\n      pop\n        /* \"#utility.yul\":26797:27066   */\n      pop\n      pop\n      pop\n      jump\t// out\n        /* \"#utility.yul\":27072:27145   */\n    tag_304:\n        /* \"#utility.yul\":27117:27120   */\n      0x00\n        /* \"#utility.yul\":27072:27145   */\n      swap1\n      jump\t// out\n        /* \"#utility.yul\":27151:27340   */\n    tag_305:\n        /* \"#utility.yul\":27228:27260   */\n      tag_595\n      tag_304\n      jump\t// in\n    tag_595:\n        /* \"#utility.yul\":27269:27334   */\n      tag_596\n        /* \"#utility.yul\":27327:27333   */\n      dup2\n        /* \"#utility.yul\":27319:27325   */\n      dup5\n        /* \"#utility.yul\":27313:27317   */\n      dup5\n        /* \"#utility.yul\":27269:27334   */\n      tag_303\n      jump\t// in\n    tag_596:\n        /* \"#utility.yul\":27204:27340   */\n      pop\n        /* \"#utility.yul\":27151:27340   */\n      pop\n      pop\n      jump\t// out\n        /* \"#utility.yul\":27346:27532   */\n    tag_306:\n        /* \"#utility.yul\":27406:27526   */\n    tag_598:\n        /* \"#utility.yul\":27423:27426   */\n      dup2\n        /* \"#utility.yul\":27416:27421   */\n      dup2\n        /* \"#utility.yul\":27413:27427   */\n      lt\n        /* \"#utility.yul\":27406:27526   */\n      iszero\n      tag_600\n      jumpi\n        /* \"#utility.yul\":27477:27516   */\n      tag_601\n        /* \"#utility.yul\":27514:27515   */\n      0x00\n        /* \"#utility.yul\":27507:27512   */\n      dup3\n        /* \"#utility.yul\":27477:27516   */\n      tag_305\n      jump\t// in\n    tag_601:\n        /* \"#utility.yul\":27450:27451   */\n      0x01\n        /* \"#utility.yul\":27443:27448   */\n      dup2\n        /* \"#utility.yul\":27439:27452   */\n      add\n        /* \"#utility.yul\":27430:27452   */\n      swap1\n      pop\n        /* \"#utility.yul\":27406:27526   */\n      jump(tag_598)\n    tag_600:\n        /* \"#utility.yul\":27346:27532   */\n      pop\n      pop\n      jump\t// out\n        /* \"#utility.yul\":27538:28081   */\n    tag_307:\n        /* \"#utility.yul\":27639:27641   */\n      0x1f\n        /* \"#utility.yul\":27634:27637   */\n      dup3\n        /* \"#utility.yul\":27631:27642   */\n      gt\n        /* \"#utility.yul\":27628:28074   */\n      iszero\n      tag_603\n      jumpi\n        /* \"#utility.yul\":27673:27711   */\n      tag_604\n        /* \"#utility.yul\":27705:27710   */\n      dup2\n        /* \"#utility.yul\":27673:27711   */\n      tag_296\n      jump\t// in\n    tag_604:\n        /* \"#utility.yul\":27757:27786   */\n      tag_605\n        /* \"#utility.yul\":27775:27785   */\n      dup5\n        /* \"#utility.yul\":27757:27786   */\n      tag_297\n      jump\t// in\n    tag_605:\n        /* \"#utility.yul\":27747:27755   */\n      dup2\n        /* \"#utility.yul\":27743:27787   */\n      add\n        /* \"#utility.yul\":27940:27942   */\n      0x20\n        /* \"#utility.yul\":27928:27938   */\n      dup6\n        /* \"#utility.yul\":27925:27943   */\n      lt\n        /* \"#utility.yul\":27922:27971   */\n      iszero\n      tag_606\n      jumpi\n        /* \"#utility.yul\":27961:27969   */\n      dup2\n        /* \"#utility.yul\":27946:27969   */\n      swap1\n      pop\n        /* \"#utility.yul\":27922:27971   */\n    tag_606:\n        /* \"#utility.yul\":27984:28064   */\n      tag_607\n        /* \"#utility.yul\":28040:28062   */\n      tag_608\n        /* \"#utility.yul\":28058:28061   */\n      dup6\n        /* \"#utility.yul\":28040:28062   */\n      tag_297\n      jump\t// in\n    tag_608:\n        /* \"#utility.yul\":28030:28038   */\n      dup4\n        /* \"#utility.yul\":28026:28063   */\n      add\n        /* \"#utility.yul\":28013:28024   */\n      dup3\n        /* \"#utility.yul\":27984:28064   */\n      tag_306\n      jump\t// in\n    tag_607:\n        /* \"#utility.yul\":27643:28074   */\n      pop\n      pop\n        /* \"#utility.yul\":27628:28074   */\n    tag_603:\n        /* \"#utility.yul\":27538:28081   */\n      pop\n      pop\n      pop\n      jump\t// out\n        /* \"#utility.yul\":28087:28204   */\n    tag_308:\n        /* \"#utility.yul\":28141:28149   */\n      0x00\n        /* \"#utility.yul\":28191:28196   */\n      dup3\n        /* \"#utility.yul\":28185:28189   */\n      dup3\n        /* \"#utility.yul\":28181:28197   */\n      shr\n        /* \"#utility.yul\":28160:28197   */\n      swap1\n      pop\n        /* \"#utility.yul\":28087:28204   */\n      swap3\n      swap2\n      pop\n      pop\n      jump\t// out\n        /* \"#utility.yul\":28210:28379   */\n    tag_309:\n        /* \"#utility.yul\":28254:28260   */\n      0x00\n        /* \"#utility.yul\":28287:28338   */\n      tag_611\n        /* \"#utility.yul\":28335:28336   */\n      0x00\n        /* \"#utility.yul\":28331:28337   */\n      not\n        /* \"#utility.yul\":28323:28328   */\n      dup5\n        /* \"#utility.yul\":28320:28321   */\n      0x08\n        /* \"#utility.yul\":28316:28329   */\n      mul\n        /* \"#utility.yul\":28287:28338   */\n      tag_308\n      jump\t// in\n    tag_611:\n        /* \"#utility.yul\":28283:28339   */\n      not\n        /* \"#utility.yul\":28368:28372   */\n      dup1\n        /* \"#utility.yul\":28362:28366   */\n      dup4\n        /* \"#utility.yul\":28358:28373   */\n      and\n        /* \"#utility.yul\":28348:28373   */\n      swap2\n      pop\n        /* \"#utility.yul\":28261:28379   */\n      pop\n        /* \"#utility.yul\":28210:28379   */\n      swap3\n      swap2\n      pop\n      pop\n      jump\t// out\n        /* \"#utility.yul\":28384:28679   */\n    tag_310:\n        /* \"#utility.yul\":28460:28464   */\n      0x00\n        /* \"#utility.yul\":28606:28635   */\n      tag_613\n        /* \"#utility.yul\":28631:28634   */\n      dup4\n        /* \"#utility.yul\":28625:28629   */\n      dup4\n        /* \"#utility.yul\":28606:28635   */\n      tag_309\n      jump\t// in\n    tag_613:\n        /* \"#utility.yul\":28598:28635   */\n      swap2\n      pop\n        /* \"#utility.yul\":28668:28671   */\n      dup3\n        /* \"#utility.yul\":28665:28666   */\n      0x02\n        /* \"#utility.yul\":28661:28672   */\n      mul\n        /* \"#utility.yul\":28655:28659   */\n      dup3\n        /* \"#utility.yul\":28652:28673   */\n      or\n        /* \"#utility.yul\":28644:28673   */\n      swap1\n      pop\n        /* \"#utility.yul\":28384:28679   */\n      swap3\n      swap2\n      pop\n      pop\n      jump\t// out\n        /* \"#utility.yul\":28684:30079   */\n    tag_126:\n        /* \"#utility.yul\":28801:28838   */\n      tag_615\n        /* \"#utility.yul\":28834:28837   */\n      dup3\n        /* \"#utility.yul\":28801:28838   */\n      tag_238\n      jump\t// in\n    tag_615:\n        /* \"#utility.yul\":28903:28921   */\n      0xffffffffffffffff\n        /* \"#utility.yul\":28895:28901   */\n      dup2\n        /* \"#utility.yul\":28892:28922   */\n      gt\n        /* \"#utility.yul\":28889:28945   */\n      iszero\n      tag_616\n      jumpi\n        /* \"#utility.yul\":28925:28943   */\n      tag_617\n      tag_176\n      jump\t// in\n    tag_617:\n        /* \"#utility.yul\":28889:28945   */\n    tag_616:\n        /* \"#utility.yul\":28969:29007   */\n      tag_618\n        /* \"#utility.yul\":29001:29005   */\n      dup3\n        /* \"#utility.yul\":28995:29006   */\n      sload\n        /* \"#utility.yul\":28969:29007   */\n      tag_86\n      jump\t// in\n    tag_618:\n        /* \"#utility.yul\":29054:29121   */\n      tag_619\n        /* \"#utility.yul\":29114:29120   */\n      dup3\n        /* \"#utility.yul\":29106:29112   */\n      dup3\n        /* \"#utility.yul\":29100:29104   */\n      dup6\n        /* \"#utility.yul\":29054:29121   */\n      tag_307\n      jump\t// in\n    tag_619:\n        /* \"#utility.yul\":29148:29149   */\n      0x00\n        /* \"#utility.yul\":29172:29176   */\n      0x20\n        /* \"#utility.yul\":29159:29176   */\n      swap1\n      pop\n        /* \"#utility.yul\":29204:29206   */\n      0x1f\n        /* \"#utility.yul\":29196:29202   */\n      dup4\n        /* \"#utility.yul\":29193:29207   */\n      gt\n        /* \"#utility.yul\":29221:29222   */\n      0x01\n        /* \"#utility.yul\":29216:29834   */\n      dup2\n      eq\n      tag_621\n      jumpi\n        /* \"#utility.yul\":29878:29879   */\n      0x00\n        /* \"#utility.yul\":29895:29901   */\n      dup5\n        /* \"#utility.yul\":29892:29969   */\n      iszero\n      tag_622\n      jumpi\n        /* \"#utility.yul\":29944:29953   */\n      dup3\n        /* \"#utility.yul\":29939:29942   */\n      dup8\n        /* \"#utility.yul\":29935:29954   */\n      add\n        /* \"#utility.yul\":29929:29955   */\n      mload\n        /* \"#utility.yul\":29920:29955   */\n      swap1\n      pop\n        /* \"#utility.yul\":29892:29969   */\n    tag_622:\n        /* \"#utility.yul\":29995:30062   */\n      tag_623\n        /* \"#utility.yul\":30055:30061   */\n      dup6\n        /* \"#utility.yul\":30048:30053   */\n      dup3\n        /* \"#utility.yul\":29995:30062   */\n      tag_310\n      jump\t// in\n    tag_623:\n        /* \"#utility.yul\":29989:29993   */\n      dup7\n        /* \"#utility.yul\":29982:30063   */\n      sstore\n        /* \"#utility.yul\":29851:30073   */\n      pop\n        /* \"#utility.yul\":29186:30073   */\n      jump(tag_620)\n        /* \"#utility.yul\":29216:29834   */\n    tag_621:\n        /* \"#utility.yul\":29268:29272   */\n      0x1f\n        /* \"#utility.yul\":29264:29273   */\n      not\n        /* \"#utility.yul\":29256:29262   */\n      dup5\n        /* \"#utility.yul\":29252:29274   */\n      and\n        /* \"#utility.yul\":29302:29339   */\n      tag_624\n        /* \"#utility.yul\":29334:29338   */\n      dup7\n        /* \"#utility.yul\":29302:29339   */\n      tag_296\n      jump\t// in\n    tag_624:\n        /* \"#utility.yul\":29361:29362   */\n      0x00\n        /* \"#utility.yul\":29375:29583   */\n    tag_625:\n        /* \"#utility.yul\":29389:29396   */\n      dup3\n        /* \"#utility.yul\":29386:29387   */\n      dup2\n        /* \"#utility.yul\":29383:29397   */\n      lt\n        /* \"#utility.yul\":29375:29583   */\n      iszero\n      tag_627\n      jumpi\n        /* \"#utility.yul\":29468:29477   */\n      dup5\n        /* \"#utility.yul\":29463:29466   */\n      dup10\n        /* \"#utility.yul\":29459:29478   */\n      add\n        /* \"#utility.yul\":29453:29479   */\n      mload\n        /* \"#utility.yul\":29445:29451   */\n      dup3\n        /* \"#utility.yul\":29438:29480   */\n      sstore\n        /* \"#utility.yul\":29519:29520   */\n      0x01\n        /* \"#utility.yul\":29511:29517   */\n      dup3\n        /* \"#utility.yul\":29507:29521   */\n      add\n        /* \"#utility.yul\":29497:29521   */\n      swap2\n      pop\n        /* \"#utility.yul\":29566:29568   */\n      0x20\n        /* \"#utility.yul\":29555:29564   */\n      dup6\n        /* \"#utility.yul\":29551:29569   */\n      add\n        /* \"#utility.yul\":29538:29569   */\n      swap5\n      pop\n        /* \"#utility.yul\":29412:29416   */\n      0x20\n        /* \"#utility.yul\":29409:29410   */\n      dup2\n        /* \"#utility.yul\":29405:29417   */\n      add\n        /* \"#utility.yul\":29400:29417   */\n      swap1\n      pop\n        /* \"#utility.yul\":29375:29583   */\n      jump(tag_625)\n    tag_627:\n        /* \"#utility.yul\":29611:29617   */\n      dup7\n        /* \"#utility.yul\":29602:29609   */\n      dup4\n        /* \"#utility.yul\":29599:29618   */\n      lt\n        /* \"#utility.yul\":29596:29775   */\n      iszero\n      tag_628\n      jumpi\n        /* \"#utility.yul\":29669:29678   */\n      dup5\n        /* \"#utility.yul\":29664:29667   */\n      dup10\n        /* \"#utility.yul\":29660:29679   */\n      add\n        /* \"#utility.yul\":29654:29680   */\n      mload\n        /* \"#utility.yul\":29712:29760   */\n      tag_629\n        /* \"#utility.yul\":29754:29758   */\n      0x1f\n        /* \"#utility.yul\":29746:29752   */\n      dup10\n        /* \"#utility.yul\":29742:29759   */\n      and\n        /* \"#utility.yul\":29731:29740   */\n      dup3\n        /* \"#utility.yul\":29712:29760   */\n      tag_309\n      jump\t// in\n    tag_629:\n        /* \"#utility.yul\":29704:29710   */\n      dup4\n        /* \"#utility.yul\":29697:29761   */\n      sstore\n        /* \"#utility.yul\":29619:29775   */\n      pop\n        /* \"#utility.yul\":29596:29775   */\n    tag_628:\n        /* \"#utility.yul\":29821:29822   */\n      0x01\n        /* \"#utility.yul\":29817:29818   */\n      0x02\n        /* \"#utility.yul\":29809:29815   */\n      dup9\n        /* \"#utility.yul\":29805:29819   */\n      mul\n        /* \"#utility.yul\":29801:29823   */\n      add\n        /* \"#utility.yul\":29795:29799   */\n      dup9\n        /* \"#utility.yul\":29788:29824   */\n      sstore\n        /* \"#utility.yul\":29223:29834   */\n      pop\n      pop\n      pop\n        /* \"#utility.yul\":29186:30073   */\n    tag_620:\n      pop\n        /* \"#utility.yul\":28776:30079   */\n      pop\n      pop\n      pop\n        /* \"#utility.yul\":28684:30079   */\n      pop\n      pop\n      jump\t// out\n        /* \"#utility.yul\":30085:30729   */\n    tag_141:\n        /* \"#utility.yul\":30282:30286   */\n      0x00\n        /* \"#utility.yul\":30320:30323   */\n      0x80\n        /* \"#utility.yul\":30309:30318   */\n      dup3\n        /* \"#utility.yul\":30305:30324   */\n      add\n        /* \"#utility.yul\":30297:30324   */\n      swap1\n      pop\n        /* \"#utility.yul\":30370:30379   */\n      dup2\n        /* \"#utility.yul\":30364:30368   */\n      dup2\n        /* \"#utility.yul\":30360:30380   */\n      sub\n        /* \"#utility.yul\":30356:30357   */\n      0x00\n        /* \"#utility.yul\":30345:30354   */\n      dup4\n        /* \"#utility.yul\":30341:30358   */\n      add\n        /* \"#utility.yul\":30334:30381   */\n      mstore\n        /* \"#utility.yul\":30398:30476   */\n      tag_631\n        /* \"#utility.yul\":30471:30475   */\n      dup2\n        /* \"#utility.yul\":30462:30468   */\n      dup8\n        /* \"#utility.yul\":30398:30476   */\n      tag_242\n      jump\t// in\n    tag_631:\n        /* \"#utility.yul\":30390:30476   */\n      swap1\n      pop\n        /* \"#utility.yul\":30486:30558   */\n      tag_632\n        /* \"#utility.yul\":30554:30556   */\n      0x20\n        /* \"#utility.yul\":30543:30552   */\n      dup4\n        /* \"#utility.yul\":30539:30557   */\n      add\n        /* \"#utility.yul\":30530:30536   */\n      dup7\n        /* \"#utility.yul\":30486:30558   */\n      tag_237\n      jump\t// in\n    tag_632:\n        /* \"#utility.yul\":30568:30640   */\n      tag_633\n        /* \"#utility.yul\":30636:30638   */\n      0x40\n        /* \"#utility.yul\":30625:30634   */\n      dup4\n        /* \"#utility.yul\":30621:30639   */\n      add\n        /* \"#utility.yul\":30612:30618   */\n      dup6\n        /* \"#utility.yul\":30568:30640   */\n      tag_237\n      jump\t// in\n    tag_633:\n        /* \"#utility.yul\":30650:30722   */\n      tag_634\n        /* \"#utility.yul\":30718:30720   */\n      0x60\n        /* \"#utility.yul\":30707:30716   */\n      dup4\n        /* \"#utility.yul\":30703:30721   */\n      add\n        /* \"#utility.yul\":30694:30700   */\n      dup5\n        /* \"#utility.yul\":30650:30722   */\n      tag_277\n      jump\t// in\n    tag_634:\n        /* \"#utility.yul\":30085:30729   */\n      swap6\n      swap5\n      pop\n      pop\n      pop\n      pop\n      pop\n      jump\t// out\n        /* \"#utility.yul\":30735:30909   */\n    tag_311:\n        /* \"#utility.yul\":30875:30901   */\n      0x43616d706169676e206973207374696c6c206163746976650000000000000000\n        /* \"#utility.yul\":30871:30872   */\n      0x00\n        /* \"#utility.yul\":30863:30869   */\n      dup3\n        /* \"#utility.yul\":30859:30873   */\n      add\n        /* \"#utility.yul\":30852:30902   */\n      mstore\n        /* \"#utility.yul\":30735:30909   */\n      pop\n      jump\t// out\n        /* \"#utility.yul\":30915:31281   */\n    tag_312:\n        /* \"#utility.yul\":31057:31060   */\n      0x00\n        /* \"#utility.yul\":31078:31145   */\n      tag_637\n        /* \"#utility.yul\":31142:31144   */\n      0x18\n        /* \"#utility.yul\":31137:31140   */\n      dup4\n        /* \"#utility.yul\":31078:31145   */\n      tag_239\n      jump\t// in\n    tag_637:\n        /* \"#utility.yul\":31071:31145   */\n      swap2\n      pop\n        /* \"#utility.yul\":31154:31247   */\n      tag_638\n        /* \"#utility.yul\":31243:31246   */\n      dup3\n        /* \"#utility.yul\":31154:31247   */\n      tag_311\n      jump\t// in\n    tag_638:\n        /* \"#utility.yul\":31272:31274   */\n      0x20\n        /* \"#utility.yul\":31267:31270   */\n      dup3\n        /* \"#utility.yul\":31263:31275   */\n      add\n        /* \"#utility.yul\":31256:31275   */\n      swap1\n      pop\n        /* \"#utility.yul\":30915:31281   */\n      swap2\n      swap1\n      pop\n      jump\t// out\n        /* \"#utility.yul\":31287:31706   */\n    tag_145:\n        /* \"#utility.yul\":31453:31457   */\n      0x00\n        /* \"#utility.yul\":31491:31493   */\n      0x20\n        /* \"#utility.yul\":31480:31489   */\n      dup3\n        /* \"#utility.yul\":31476:31494   */\n      add\n        /* \"#utility.yul\":31468:31494   */\n      swap1\n      pop\n        /* \"#utility.yul\":31540:31549   */\n      dup2\n        /* \"#utility.yul\":31534:31538   */\n      dup2\n        /* \"#utility.yul\":31530:31550   */\n      sub\n        /* \"#utility.yul\":31526:31527   */\n      0x00\n        /* \"#utility.yul\":31515:31524   */\n      dup4\n        /* \"#utility.yul\":31511:31528   */\n      add\n        /* \"#utility.yul\":31504:31551   */\n      mstore\n        /* \"#utility.yul\":31568:31699   */\n      tag_640\n        /* \"#utility.yul\":31694:31698   */\n      dup2\n        /* \"#utility.yul\":31568:31699   */\n      tag_312\n      jump\t// in\n    tag_640:\n        /* \"#utility.yul\":31560:31699   */\n      swap1\n      pop\n        /* \"#utility.yul\":31287:31706   */\n      swap2\n      swap1\n      pop\n      jump\t// out\n        /* \"#utility.yul\":31712:31885   */\n    tag_313:\n        /* \"#utility.yul\":31852:31877   */\n      0x43616d706169676e20776173207375636365737366756c000000000000000000\n        /* \"#utility.yul\":31848:31849   */\n      0x00\n        /* \"#utility.yul\":31840:31846   */\n      dup3\n        /* \"#utility.yul\":31836:31850   */\n      add\n        /* \"#utility.yul\":31829:31878   */\n      mstore\n        /* \"#utility.yul\":31712:31885   */\n      pop\n      jump\t// out\n        /* \"#utility.yul\":31891:32257   */\n    tag_314:\n        /* \"#utility.yul\":32033:32036   */\n      0x00\n        /* \"#utility.yul\":32054:32121   */\n      tag_643\n        /* \"#utility.yul\":32118:32120   */\n      0x17\n        /* \"#utility.yul\":32113:32116   */\n      dup4\n        /* \"#utility.yul\":32054:32121   */\n      tag_239\n      jump\t// in\n    tag_643:\n        /* \"#utility.yul\":32047:32121   */\n      swap2\n      pop\n        /* \"#utility.yul\":32130:32223   */\n      tag_644\n        /* \"#utility.yul\":32219:32222   */\n      dup3\n        /* \"#utility.yul\":32130:32223   */\n      tag_313\n      jump\t// in\n    tag_644:\n        /* \"#utility.yul\":32248:32250   */\n      0x20\n        /* \"#utility.yul\":32243:32246   */\n      dup3\n        /* \"#utility.yul\":32239:32251   */\n      add\n        /* \"#utility.yul\":32232:32251   */\n      swap1\n      pop\n        /* \"#utility.yul\":31891:32257   */\n      swap2\n      swap1\n      pop\n      jump\t// out\n        /* \"#utility.yul\":32263:32682   */\n    tag_148:\n        /* \"#utility.yul\":32429:32433   */\n      0x00\n        /* \"#utility.yul\":32467:32469   */\n      0x20\n        /* \"#utility.yul\":32456:32465   */\n      dup3\n        /* \"#utility.yul\":32452:32470   */\n      add\n        /* \"#utility.yul\":32444:32470   */\n      swap1\n      pop\n        /* \"#utility.yul\":32516:32525   */\n      dup2\n        /* \"#utility.yul\":32510:32514   */\n      dup2\n        /* \"#utility.yul\":32506:32526   */\n      sub\n        /* \"#utility.yul\":32502:32503   */\n      0x00\n        /* \"#utility.yul\":32491:32500   */\n      dup4\n        /* \"#utility.yul\":32487:32504   */\n      add\n        /* \"#utility.yul\":32480:32527   */\n      mstore\n        /* \"#utility.yul\":32544:32675   */\n      tag_646\n        /* \"#utility.yul\":32670:32674   */\n      dup2\n        /* \"#utility.yul\":32544:32675   */\n      tag_314\n      jump\t// in\n    tag_646:\n        /* \"#utility.yul\":32536:32675   */\n      swap1\n      pop\n        /* \"#utility.yul\":32263:32682   */\n      swap2\n      swap1\n      pop\n      jump\t// out\n        /* \"#utility.yul\":32688:32860   */\n    tag_315:\n        /* \"#utility.yul\":32828:32852   */\n      0x526566756e6420616c726561647920636c61696d656400000000000000000000\n        /* \"#utility.yul\":32824:32825   */\n      0x00\n        /* \"#utility.yul\":32816:32822   */\n      dup3\n        /* \"#utility.yul\":32812:32826   */\n      add\n        /* \"#utility.yul\":32805:32853   */\n      mstore\n        /* \"#utility.yul\":32688:32860   */\n      pop\n      jump\t// out\n        /* \"#utility.yul\":32866:33232   */\n    tag_316:\n        /* \"#utility.yul\":33008:33011   */\n      0x00\n        /* \"#utility.yul\":33029:33096   */\n      tag_649\n        /* \"#utility.yul\":33093:33095   */\n      0x16\n        /* \"#utility.yul\":33088:33091   */\n      dup4\n        /* \"#utility.yul\":33029:33096   */\n      tag_239\n      jump\t// in\n    tag_649:\n        /* \"#utility.yul\":33022:33096   */\n      swap2\n      pop\n        /* \"#utility.yul\":33105:33198   */\n      tag_650\n        /* \"#utility.yul\":33194:33197   */\n      dup3\n        /* \"#utility.yul\":33105:33198   */\n      tag_315\n      jump\t// in\n    tag_650:\n        /* \"#utility.yul\":33223:33225   */\n      0x20\n        /* \"#utility.yul\":33218:33221   */\n      dup3\n        /* \"#utility.yul\":33214:33226   */\n      add\n        /* \"#utility.yul\":33207:33226   */\n      swap1\n      pop\n        /* \"#utility.yul\":32866:33232   */\n      swap2\n      swap1\n      pop\n      jump\t// out\n        /* \"#utility.yul\":33238:33657   */\n    tag_151:\n        /* \"#utility.yul\":33404:33408   */\n      0x00\n        /* \"#utility.yul\":33442:33444   */\n      0x20\n        /* \"#utility.yul\":33431:33440   */\n      dup3\n        /* \"#utility.yul\":33427:33445   */\n      add\n        /* \"#utility.yul\":33419:33445   */\n      swap1\n      pop\n        /* \"#utility.yul\":33491:33500   */\n      dup2\n        /* \"#utility.yul\":33485:33489   */\n      dup2\n        /* \"#utility.yul\":33481:33501   */\n      sub\n        /* \"#utility.yul\":33477:33478   */\n      0x00\n        /* \"#utility.yul\":33466:33475   */\n      dup4\n        /* \"#utility.yul\":33462:33479   */\n      add\n        /* \"#utility.yul\":33455:33502   */\n      mstore\n        /* \"#utility.yul\":33519:33650   */\n      tag_652\n        /* \"#utility.yul\":33645:33649   */\n      dup2\n        /* \"#utility.yul\":33519:33650   */\n      tag_316\n      jump\t// in\n    tag_652:\n        /* \"#utility.yul\":33511:33650   */\n      swap1\n      pop\n        /* \"#utility.yul\":33238:33657   */\n      swap2\n      swap1\n      pop\n      jump\t// out\n        /* \"#utility.yul\":33663:33834   */\n    tag_317:\n        /* \"#utility.yul\":33803:33826   */\n      0x4e6f20636f6e747269627574696f6e73206d6164650000000000000000000000\n        /* \"#utility.yul\":33799:33800   */\n      0x00\n        /* \"#utility.yul\":33791:33797   */\n      dup3\n        /* \"#utility.yul\":33787:33801   */\n      add\n        /* \"#utility.yul\":33780:33827   */\n      mstore\n        /* \"#utility.yul\":33663:33834   */\n      pop\n      jump\t// out\n        /* \"#utility.yul\":33840:34206   */\n    tag_318:\n        /* \"#utility.yul\":33982:33985   */\n      0x00\n        /* \"#utility.yul\":34003:34070   */\n      tag_655\n        /* \"#utility.yul\":34067:34069   */\n      0x15\n        /* \"#utility.yul\":34062:34065   */\n      dup4\n        /* \"#utility.yul\":34003:34070   */\n      tag_239\n      jump\t// in\n    tag_655:\n        /* \"#utility.yul\":33996:34070   */\n      swap2\n      pop\n        /* \"#utility.yul\":34079:34172   */\n      tag_656\n        /* \"#utility.yul\":34168:34171   */\n      dup3\n        /* \"#utility.yul\":34079:34172   */\n      tag_317\n      jump\t// in\n    tag_656:\n        /* \"#utility.yul\":34197:34199   */\n      0x20\n        /* \"#utility.yul\":34192:34195   */\n      dup3\n        /* \"#utility.yul\":34188:34200   */\n      add\n        /* \"#utility.yul\":34181:34200   */\n      swap1\n      pop\n        /* \"#utility.yul\":33840:34206   */\n      swap2\n      swap1\n      pop\n      jump\t// out\n        /* \"#utility.yul\":34212:34631   */\n    tag_154:\n        /* \"#utility.yul\":34378:34382   */\n      0x00\n        /* \"#utility.yul\":34416:34418   */\n      0x20\n        /* \"#utility.yul\":34405:34414   */\n      dup3\n        /* \"#utility.yul\":34401:34419   */\n      add\n        /* \"#utility.yul\":34393:34419   */\n      swap1\n      pop\n        /* \"#utility.yul\":34465:34474   */\n      dup2\n        /* \"#utility.yul\":34459:34463   */\n      dup2\n        /* \"#utility.yul\":34455:34475   */\n      sub\n        /* \"#utility.yul\":34451:34452   */\n      0x00\n        /* \"#utility.yul\":34440:34449   */\n      dup4\n        /* \"#utility.yul\":34436:34453   */\n      add\n        /* \"#utility.yul\":34429:34476   */\n      mstore\n        /* \"#utility.yul\":34493:34624   */\n      tag_658\n        /* \"#utility.yul\":34619:34623   */\n      dup2\n        /* \"#utility.yul\":34493:34624   */\n      tag_318\n      jump\t// in\n    tag_658:\n        /* \"#utility.yul\":34485:34624   */\n      swap1\n      pop\n        /* \"#utility.yul\":34212:34631   */\n      swap2\n      swap1\n      pop\n      jump\t// out\n        /* \"#utility.yul\":34637:34862   */\n    tag_319:\n        /* \"#utility.yul\":34777:34811   */\n      0x4f6e6c79207468652063616d706169676e2063726561746f722063616e206669\n        /* \"#utility.yul\":34773:34774   */\n      0x00\n        /* \"#utility.yul\":34765:34771   */\n      dup3\n        /* \"#utility.yul\":34761:34775   */\n      add\n        /* \"#utility.yul\":34754:34812   */\n      mstore\n        /* \"#utility.yul\":34846:34854   */\n      0x6e616c697a650000000000000000000000000000000000000000000000000000\n        /* \"#utility.yul\":34841:34843   */\n      0x20\n        /* \"#utility.yul\":34833:34839   */\n      dup3\n        /* \"#utility.yul\":34829:34844   */\n      add\n        /* \"#utility.yul\":34822:34855   */\n      mstore\n        /* \"#utility.yul\":34637:34862   */\n      pop\n      jump\t// out\n        /* \"#utility.yul\":34868:35234   */\n    tag_320:\n        /* \"#utility.yul\":35010:35013   */\n      0x00\n        /* \"#utility.yul\":35031:35098   */\n      tag_661\n        /* \"#utility.yul\":35095:35097   */\n      0x26\n        /* \"#utility.yul\":35090:35093   */\n      dup4\n        /* \"#utility.yul\":35031:35098   */\n      tag_239\n      jump\t// in\n    tag_661:\n        /* \"#utility.yul\":35024:35098   */\n      swap2\n      pop\n        /* \"#utility.yul\":35107:35200   */\n      tag_662\n        /* \"#utility.yul\":35196:35199   */\n      dup3\n        /* \"#utility.yul\":35107:35200   */\n      tag_319\n      jump\t// in\n    tag_662:\n        /* \"#utility.yul\":35225:35227   */\n      0x40\n        /* \"#utility.yul\":35220:35223   */\n      dup3\n        /* \"#utility.yul\":35216:35228   */\n      add\n        /* \"#utility.yul\":35209:35228   */\n      swap1\n      pop\n        /* \"#utility.yul\":34868:35234   */\n      swap2\n      swap1\n      pop\n      jump\t// out\n        /* \"#utility.yul\":35240:35659   */\n    tag_164:\n        /* \"#utility.yul\":35406:35410   */\n      0x00\n        /* \"#utility.yul\":35444:35446   */\n      0x20\n        /* \"#utility.yul\":35433:35442   */\n      dup3\n        /* \"#utility.yul\":35429:35447   */\n      add\n        /* \"#utility.yul\":35421:35447   */\n      swap1\n      pop\n        /* \"#utility.yul\":35493:35502   */\n      dup2\n        /* \"#utility.yul\":35487:35491   */\n      dup2\n        /* \"#utility.yul\":35483:35503   */\n      sub\n        /* \"#utility.yul\":35479:35480   */\n      0x00\n        /* \"#utility.yul\":35468:35477   */\n      dup4\n        /* \"#utility.yul\":35464:35481   */\n      add\n        /* \"#utility.yul\":35457:35504   */\n      mstore\n        /* \"#utility.yul\":35521:35652   */\n      tag_664\n        /* \"#utility.yul\":35647:35651   */\n      dup2\n        /* \"#utility.yul\":35521:35652   */\n      tag_320\n      jump\t// in\n    tag_664:\n        /* \"#utility.yul\":35513:35652   */\n      swap1\n      pop\n        /* \"#utility.yul\":35240:35659   */\n      swap2\n      swap1\n      pop\n      jump\t// out\n        /* \"#utility.yul\":35665:35915   */\n    tag_172:\n        /* \"#utility.yul\":35772:35776   */\n      0x00\n        /* \"#utility.yul\":35810:35812   */\n      0x20\n        /* \"#utility.yul\":35799:35808   */\n      dup3\n        /* \"#utility.yul\":35795:35813   */\n      add\n        /* \"#utility.yul\":35787:35813   */\n      swap1\n      pop\n        /* \"#utility.yul\":35823:35908   */\n      tag_666\n        /* \"#utility.yul\":35905:35906   */\n      0x00\n        /* \"#utility.yul\":35894:35903   */\n      dup4\n        /* \"#utility.yul\":35890:35907   */\n      add\n        /* \"#utility.yul\":35881:35887   */\n      dup5\n        /* \"#utility.yul\":35823:35908   */\n      tag_249\n      jump\t// in\n    tag_666:\n        /* \"#utility.yul\":35665:35915   */\n      swap3\n      swap2\n      pop\n      pop\n      jump\t// out\n        /* \"#utility.yul\":35921:36115   */\n    tag_182:\n        /* \"#utility.yul\":35961:35965   */\n      0x00\n        /* \"#utility.yul\":35981:36001   */\n      tag_668\n        /* \"#utility.yul\":35999:36000   */\n      dup3\n        /* \"#utility.yul\":35981:36001   */\n      tag_234\n      jump\t// in\n    tag_668:\n        /* \"#utility.yul\":35976:36001   */\n      swap2\n      pop\n        /* \"#utility.yul\":36015:36035   */\n      tag_669\n        /* \"#utility.yul\":36033:36034   */\n      dup4\n        /* \"#utility.yul\":36015:36035   */\n      tag_234\n      jump\t// in\n    tag_669:\n        /* \"#utility.yul\":36010:36035   */\n      swap3\n      pop\n        /* \"#utility.yul\":36059:36060   */\n      dup3\n        /* \"#utility.yul\":36056:36057   */\n      dup3\n        /* \"#utility.yul\":36052:36061   */\n      sub\n        /* \"#utility.yul\":36044:36061   */\n      swap1\n      pop\n        /* \"#utility.yul\":36083:36084   */\n      dup2\n        /* \"#utility.yul\":36077:36081   */\n      dup2\n        /* \"#utility.yul\":36074:36085   */\n      gt\n        /* \"#utility.yul\":36071:36108   */\n      iszero\n      tag_670\n      jumpi\n        /* \"#utility.yul\":36088:36106   */\n      tag_671\n      tag_290\n      jump\t// in\n    tag_671:\n        /* \"#utility.yul\":36071:36108   */\n    tag_670:\n        /* \"#utility.yul\":35921:36115   */\n      swap3\n      swap2\n      pop\n      pop\n      jump\t// out\n        /* \"#utility.yul\":36121:36289   */\n    tag_321:\n        /* \"#utility.yul\":36261:36281   */\n      0x43616d706169676e2068617320656e6465640000000000000000000000000000\n        /* \"#utility.yul\":36257:36258   */\n      0x00\n        /* \"#utility.yul\":36249:36255   */\n      dup3\n        /* \"#utility.yul\":36245:36259   */\n      add\n        /* \"#utility.yul\":36238:36282   */\n      mstore\n        /* \"#utility.yul\":36121:36289   */\n      pop\n      jump\t// out\n        /* \"#utility.yul\":36295:36661   */\n    tag_322:\n        /* \"#utility.yul\":36437:36440   */\n      0x00\n        /* \"#utility.yul\":36458:36525   */\n      tag_674\n        /* \"#utility.yul\":36522:36524   */\n      0x12\n        /* \"#utility.yul\":36517:36520   */\n      dup4\n        /* \"#utility.yul\":36458:36525   */\n      tag_239\n      jump\t// in\n    tag_674:\n        /* \"#utility.yul\":36451:36525   */\n      swap2\n      pop\n        /* \"#utility.yul\":36534:36627   */\n      tag_675\n        /* \"#utility.yul\":36623:36626   */\n      dup3\n        /* \"#utility.yul\":36534:36627   */\n      tag_321\n      jump\t// in\n    tag_675:\n        /* \"#utility.yul\":36652:36654   */\n      0x20\n        /* \"#utility.yul\":36647:36650   */\n      dup3\n        /* \"#utility.yul\":36643:36655   */\n      add\n        /* \"#utility.yul\":36636:36655   */\n      swap1\n      pop\n        /* \"#utility.yul\":36295:36661   */\n      swap2\n      swap1\n      pop\n      jump\t// out\n        /* \"#utility.yul\":36667:37086   */\n    tag_190:\n        /* \"#utility.yul\":36833:36837   */\n      0x00\n        /* \"#utility.yul\":36871:36873   */\n      0x20\n        /* \"#utility.yul\":36860:36869   */\n      dup3\n        /* \"#utility.yul\":36856:36874   */\n      add\n        /* \"#utility.yul\":36848:36874   */\n      swap1\n      pop\n        /* \"#utility.yul\":36920:36929   */\n      dup2\n        /* \"#utility.yul\":36914:36918   */\n      dup2\n        /* \"#utility.yul\":36910:36930   */\n      sub\n        /* \"#utility.yul\":36906:36907   */\n      0x00\n        /* \"#utility.yul\":36895:36904   */\n      dup4\n        /* \"#utility.yul\":36891:36908   */\n      add\n        /* \"#utility.yul\":36884:36931   */\n      mstore\n        /* \"#utility.yul\":36948:37079   */\n      tag_677\n        /* \"#utility.yul\":37074:37078   */\n      dup2\n        /* \"#utility.yul\":36948:37079   */\n      tag_322\n      jump\t// in\n    tag_677:\n        /* \"#utility.yul\":36940:37079   */\n      swap1\n      pop\n        /* \"#utility.yul\":36667:37086   */\n      swap2\n      swap1\n      pop\n      jump\t// out\n        /* \"#utility.yul\":37092:37271   */\n    tag_323:\n        /* \"#utility.yul\":37232:37263   */\n      0x43616d706169676e2066756e64696e6720676f616c2072656163686564000000\n        /* \"#utility.yul\":37228:37229   */\n      0x00\n        /* \"#utility.yul\":37220:37226   */\n      dup3\n        /* \"#utility.yul\":37216:37230   */\n      add\n        /* \"#utility.yul\":37209:37264   */\n      mstore\n        /* \"#utility.yul\":37092:37271   */\n      pop\n      jump\t// out\n        /* \"#utility.yul\":37277:37643   */\n    tag_324:\n        /* \"#utility.yul\":37419:37422   */\n      0x00\n        /* \"#utility.yul\":37440:37507   */\n      tag_680\n        /* \"#utility.yul\":37504:37506   */\n      0x1d\n        /* \"#utility.yul\":37499:37502   */\n      dup4\n        /* \"#utility.yul\":37440:37507   */\n      tag_239\n      jump\t// in\n    tag_680:\n        /* \"#utility.yul\":37433:37507   */\n      swap2\n      pop\n        /* \"#utility.yul\":37516:37609   */\n      tag_681\n        /* \"#utility.yul\":37605:37608   */\n      dup3\n        /* \"#utility.yul\":37516:37609   */\n      tag_323\n      jump\t// in\n    tag_681:\n        /* \"#utility.yul\":37634:37636   */\n      0x20\n        /* \"#utility.yul\":37629:37632   */\n      dup3\n        /* \"#utility.yul\":37625:37637   */\n      add\n        /* \"#utility.yul\":37618:37637   */\n      swap1\n      pop\n        /* \"#utility.yul\":37277:37643   */\n      swap2\n      swap1\n      pop\n      jump\t// out\n        /* \"#utility.yul\":37649:38068   */\n    tag_193:\n        /* \"#utility.yul\":37815:37819   */\n      0x00\n        /* \"#utility.yul\":37853:37855   */\n      0x20\n        /* \"#utility.yul\":37842:37851   */\n      dup3\n        /* \"#utility.yul\":37838:37856   */\n      add\n        /* \"#utility.yul\":37830:37856   */\n      swap1\n      pop\n        /* \"#utility.yul\":37902:37911   */\n      dup2\n        /* \"#utility.yul\":37896:37900   */\n      dup2\n        /* \"#utility.yul\":37892:37912   */\n      sub\n        /* \"#utility.yul\":37888:37889   */\n      0x00\n        /* \"#utility.yul\":37877:37886   */\n      dup4\n        /* \"#utility.yul\":37873:37890   */\n      add\n        /* \"#utility.yul\":37866:37913   */\n      mstore\n        /* \"#utility.yul\":37930:38061   */\n      tag_683\n        /* \"#utility.yul\":38056:38060   */\n      dup2\n        /* \"#utility.yul\":37930:38061   */\n      tag_324\n      jump\t// in\n    tag_683:\n        /* \"#utility.yul\":37922:38061   */\n      swap1\n      pop\n        /* \"#utility.yul\":37649:38068   */\n      swap2\n      swap1\n      pop\n      jump\t// out\n        /* \"#utility.yul\":38074:38246   */\n    tag_325:\n        /* \"#utility.yul\":38214:38238   */\n      0x43616d706169676e206973206e6f742061637469766500000000000000000000\n        /* \"#utility.yul\":38210:38211   */\n      0x00\n        /* \"#utility.yul\":38202:38208   */\n      dup3\n        /* \"#utility.yul\":38198:38212   */\n      add\n        /* \"#utility.yul\":38191:38239   */\n      mstore\n        /* \"#utility.yul\":38074:38246   */\n      pop\n      jump\t// out\n        /* \"#utility.yul\":38252:38618   */\n    tag_326:\n        /* \"#utility.yul\":38394:38397   */\n      0x00\n        /* \"#utility.yul\":38415:38482   */\n      tag_686\n        /* \"#utility.yul\":38479:38481   */\n      0x16\n        /* \"#utility.yul\":38474:38477   */\n      dup4\n        /* \"#utility.yul\":38415:38482   */\n      tag_239\n      jump\t// in\n    tag_686:\n        /* \"#utility.yul\":38408:38482   */\n      swap2\n      pop\n        /* \"#utility.yul\":38491:38584   */\n      tag_687\n        /* \"#utility.yul\":38580:38583   */\n      dup3\n        /* \"#utility.yul\":38491:38584   */\n      tag_325\n      jump\t// in\n    tag_687:\n        /* \"#utility.yul\":38609:38611   */\n      0x20\n        /* \"#utility.yul\":38604:38607   */\n      dup3\n        /* \"#utility.yul\":38600:38612   */\n      add\n        /* \"#utility.yul\":38593:38612   */\n      swap1\n      pop\n        /* \"#utility.yul\":38252:38618   */\n      swap2\n      swap1\n      pop\n      jump\t// out\n        /* \"#utility.yul\":38624:39043   */\n    tag_200:\n        /* \"#utility.yul\":38790:38794   */\n      0x00\n        /* \"#utility.yul\":38828:38830   */\n      0x20\n        /* \"#utility.yul\":38817:38826   */\n      dup3\n        /* \"#utility.yul\":38813:38831   */\n      add\n        /* \"#utility.yul\":38805:38831   */\n      swap1\n      pop\n        /* \"#utility.yul\":38877:38886   */\n      dup2\n        /* \"#utility.yul\":38871:38875   */\n      dup2\n        /* \"#utility.yul\":38867:38887   */\n      sub\n        /* \"#utility.yul\":38863:38864   */\n      0x00\n        /* \"#utility.yul\":38852:38861   */\n      dup4\n        /* \"#utility.yul\":38848:38865   */\n      add\n        /* \"#utility.yul\":38841:38888   */\n      mstore\n        /* \"#utility.yul\":38905:39036   */\n      tag_689\n        /* \"#utility.yul\":39031:39035   */\n      dup2\n        /* \"#utility.yul\":38905:39036   */\n      tag_326\n      jump\t// in\n    tag_689:\n        /* \"#utility.yul\":38897:39036   */\n      swap1\n      pop\n        /* \"#utility.yul\":38624:39043   */\n      swap2\n      swap1\n      pop\n      jump\t// out\n        /* \"#utility.yul\":39049:39240   */\n    tag_205:\n        /* \"#utility.yul\":39089:39092   */\n      0x00\n        /* \"#utility.yul\":39108:39128   */\n      tag_691\n        /* \"#utility.yul\":39126:39127   */\n      dup3\n        /* \"#utility.yul\":39108:39128   */\n      tag_234\n      jump\t// in\n    tag_691:\n        /* \"#utility.yul\":39103:39128   */\n      swap2\n      pop\n        /* \"#utility.yul\":39142:39162   */\n      tag_692\n        /* \"#utility.yul\":39160:39161   */\n      dup4\n        /* \"#utility.yul\":39142:39162   */\n      tag_234\n      jump\t// in\n    tag_692:\n        /* \"#utility.yul\":39137:39162   */\n      swap3\n      pop\n        /* \"#utility.yul\":39185:39186   */\n      dup3\n        /* \"#utility.yul\":39182:39183   */\n      dup3\n        /* \"#utility.yul\":39178:39187   */\n      add\n        /* \"#utility.yul\":39171:39187   */\n      swap1\n      pop\n        /* \"#utility.yul\":39206:39209   */\n      dup1\n        /* \"#utility.yul\":39203:39204   */\n      dup3\n        /* \"#utility.yul\":39200:39210   */\n      gt\n        /* \"#utility.yul\":39197:39233   */\n      iszero\n      tag_693\n      jumpi\n        /* \"#utility.yul\":39213:39231   */\n      tag_694\n      tag_290\n      jump\t// in\n    tag_694:\n        /* \"#utility.yul\":39197:39233   */\n    tag_693:\n        /* \"#utility.yul\":39049:39240   */\n      swap3\n      swap2\n      pop\n      pop\n      jump\t// out\n\n    auxdata: 0xa2646970667358221220b248be818011e3c74ca7e80a69dbde2bf741647119e40b6fca2cadc953f28be564736f6c634300081a0033\n}\n",
				"bytecode": {
					"linkReferences": {},
					"object": "6080604052348015600e575f80fd5b506129508061001c5f395ff3fe6080604052600436106100c1575f3560e01c806386cdf6041161007e578063d993de6211610058578063d993de6214610268578063e8049da1146102ab578063e9dea525146102ea578063fca604d714610326576100c1565b806386cdf604146101e55780638f9eae2a1461020f578063c1cbbca71461024c576100c1565b8063141961bc146100c557806320913da51461010957806337c6bcaf146101315780635b7baf64146101595780635bd1baaf146101815780636b5ca27d146101bd575b5f80fd5b3480156100d0575f80fd5b506100eb60048036038101906100e691906115d9565b610350565b60405161010099989796959493929190611735565b60405180910390f35b348015610114575f80fd5b5061012f600480360381019061012a91906117ce565b6104d1565b005b34801561013c575f80fd5b5061015760048036038101906101529190611ada565b6107a7565b005b348015610164575f80fd5b5061017f600480360381019061017a91906115d9565b6109fb565b005b34801561018c575f80fd5b506101a760048036038101906101a291906115d9565b610ca0565b6040516101b49190611bd3565b60405180910390f35b3480156101c8575f80fd5b506101e360048036038101906101de91906115d9565b610cc2565b005b3480156101f0575f80fd5b506101f9610e67565b6040516102069190611ca3565b60405180910390f35b34801561021a575f80fd5b5061023560048036038101906102309190611cfe565b610f0b565b604051610243929190611d56565b60405180910390f35b610266600480360381019061026191906115d9565b610fb9565b005b348015610273575f80fd5b5061028e600480360381019061028991906115d9565b611257565b6040516102a2989796959493929190611d8c565b60405180910390f35b3480156102b6575f80fd5b506102d160048036038101906102cc91906117ce565b6113f8565b6040516102e19493929190611e16565b60405180910390f35b3480156102f5575f80fd5b50610310600480360381019061030b91906115d9565b6114ec565b60405161031d9190611f17565b60405180910390f35b348015610331575f80fd5b5061033a611590565b6040516103479190611bd3565b60405180910390f35b6001602052805f5260405f205f91509050805f01549080600101805461037590611f64565b80601f01602080910402602001604051908101604052809291908181526020018280546103a190611f64565b80156103ec5780601f106103c3576101008083540402835291602001916103ec565b820191905f5260205f20905b8154815290600101906020018083116103cf57829003601f168201915b50505050509080600201805461040190611f64565b80601f016020809104026020016040519081016040528092919081815260200182805461042d90611f64565b80156104785780601f1061044f57610100808354040283529160200191610478565b820191905f5260205f20905b81548152906001019060200180831161045b57829003601f168201915b505050505090806003015490806004015490806005015f9054906101000a900473ffffffffffffffffffffffffffffffffffffffff1690806006015490806007015f9054906101000a900460ff169080600c0154905089565b5f60015f8481526020019081526020015f2090505f8160080183815481106104fc576104fb611f94565b5b905f5260205f20906005020190505f826009015f3373ffffffffffffffffffffffffffffffffffffffff1673ffffffffffffffffffffffffffffffffffffffff1681526020019081526020015f20541161058b576040517f08c379a00000000000000000000000000000000000000000000000000000000081526004016105829061200b565b60405180910390fd5b806004015f3373ffffffffffffffffffffffffffffffffffffffff1673ffffffffffffffffffffffffffffffffffffffff1681526020019081526020015f205f9054906101000a900460ff1615610617576040517f08c379a000000000000000000000000000000000000000000000000000000000815260040161060e90612099565b60405180910390fd5b6001816004015f3373ffffffffffffffffffffffffffffffffffffffff1673ffffffffffffffffffffffffffffffffffffffff1681526020019081526020015f205f6101000a81548160ff021916908315150217905550806003015f815480929190610682906120e4565b9190505550600282600c01546106989190612158565b816003015411156107a1576001816002015f6101000a81548160ff021916908315150217905550816005015f9054906101000a900473ffffffffffffffffffffffffffffffffffffffff1673ffffffffffffffffffffffffffffffffffffffff166108fc826001015490811502906040515f60405180830381858888f19350505050158015610729573d5f803e3d5ffd5b50837f939da3b627c123c81fe5aacebf925163337a0d4f8a03724640618078cad248948460405161075a9190611bd3565b60405180910390a2837f24d2f6e8ac6c13d1e7610752ab0b7ce03d5043806a65d3d631ae859ad81d159b848360010154604051610798929190612188565b60405180910390a25b50505050565b4283116107e9576040517f08c379a00000000000000000000000000000000000000000000000000000000081526004016107e0906121f9565b60405180910390fd5b805182511461082d576040517f08c379a000000000000000000000000000000000000000000000000000000000815260040161082490612261565b60405180910390fd5b5f8081548092919061083e906120e4565b91905055505f60015f805481526020019081526020015f2090505f54815f018190555086816001019081610872919061241c565b5085816002019081610884919061241c565b5084816003018190555083816004018190555033816005015f6101000a81548173ffffffffffffffffffffffffffffffffffffffff021916908373ffffffffffffffffffffffffffffffffffffffff1602179055505f816007015f6101000a81548160ff021916908360028111156108ff576108fe6116c2565b5b02179055505f5b83518110156109b2575f8260080160018160018154018082558091505003905f5260205f209060050201905084828151811061094557610944611f94565b5b6020026020010151815f01908161095c919061241c565b508382815181106109705761096f611f94565b5b602002602001015181600101819055505f816002015f6101000a81548160ff0219169083151502179055505f8160030181905550508080600101915050610906565b505f547f55c246c9acac35defa7b5b11325208f9615273b139a7d1642a880afb4568637e888787336040516109ea94939291906124eb565b60405180910390a250505050505050565b5f60015f8381526020019081526020015f2090508060040154421015610a56576040517f08c379a0000000000000000000000000000000000000000000000000000000008152600401610a4d9061257f565b60405180910390fd5b8060030154816006015410610aa0576040517f08c379a0000000000000000000000000000000000000000000000000000000008152600401610a97906125e7565b60405180910390fd5b80600a015f3373ffffffffffffffffffffffffffffffffffffffff1673ffffffffffffffffffffffffffffffffffffffff1681526020019081526020015f205f9054906101000a900460ff1615610b2c576040517f08c379a0000000000000000000000000000000000000000000000000000000008152600401610b239061264f565b60405180910390fd5b5f816009015f3373ffffffffffffffffffffffffffffffffffffffff1673ffffffffffffffffffffffffffffffffffffffff1681526020019081526020015f205490505f8111610bb1576040517f08c379a0000000000000000000000000000000000000000000000000000000008152600401610ba8906126b7565b60405180910390fd5b600182600a015f3373ffffffffffffffffffffffffffffffffffffffff1673ffffffffffffffffffffffffffffffffffffffff1681526020019081526020015f205f6101000a81548160ff0219169083151502179055503373ffffffffffffffffffffffffffffffffffffffff166108fc8290811502906040515f60405180830381858888f19350505050158015610c4b573d5f803e3d5ffd5b503373ffffffffffffffffffffffffffffffffffffffff16837ff3f402280ef0a7905e124aa621b65eaeb2725c343e8b36d398ed78c29daf285c83604051610c939190611bd3565b60405180910390a3505050565b5f8060015f8481526020019081526020015f2090508060060154915050919050565b5f60015f8381526020019081526020015f2090508060040154421015610d1d576040517f08c379a0000000000000000000000000000000000000000000000000000000008152600401610d149061257f565b60405180910390fd5b3373ffffffffffffffffffffffffffffffffffffffff16816005015f9054906101000a900473ffffffffffffffffffffffffffffffffffffffff1673ffffffffffffffffffffffffffffffffffffffff1614610dae576040517f08c379a0000000000000000000000000000000000000000000000000000000008152600401610da590612745565b60405180910390fd5b8060030154816006015410610dee576001816007015f6101000a81548160ff02191690836002811115610de457610de36116c2565b5b0217905550610e1b565b6002816007015f6101000a81548160ff02191690836002811115610e1557610e146116c2565b5b02179055505b817ffbdbee1007296104d763605c2eb31f467b3e4cc929953ced44b039a074178b09826007015f9054906101000a900460ff16604051610e5b9190612763565b60405180910390a25050565b60605f805467ffffffffffffffff811115610e8557610e84611814565b5b604051908082528060200260200182016040528015610eb35781602001602082028036833780820191505090505b5090505f600190505b5f548111610f03578082600183610ed3919061277c565b81518110610ee457610ee3611f94565b5b6020026020010181815250508080610efb906120e4565b915050610ebc565b508091505090565b5f805f60015f8681526020019081526020015f209050806009015f8573ffffffffffffffffffffffffffffffffffffffff1673ffffffffffffffffffffffffffffffffffffffff1681526020019081526020015f205481600a015f8673ffffffffffffffffffffffffffffffffffffffff1673ffffffffffffffffffffffffffffffffffffffff1681526020019081526020015f205f9054906101000a900460ff1692509250509250929050565b5f60015f8381526020019081526020015f20905080600401544210611013576040517f08c379a000000000000000000000000000000000000000000000000000000000815260040161100a906127f9565b60405180910390fd5b806003015481600601541061105d576040517f08c379a000000000000000000000000000000000000000000000000000000000815260040161105490612861565b60405180910390fd5b5f60028111156110705761106f6116c2565b5b816007015f9054906101000a900460ff166002811115611093576110926116c2565b5b146110d3576040517f08c379a00000000000000000000000000000000000000000000000000000000081526004016110ca906128c9565b60405180910390fd5b5f816009015f3373ffffffffffffffffffffffffffffffffffffffff1673ffffffffffffffffffffffffffffffffffffffff1681526020019081526020015f2054036111955780600b0133908060018154018082558091505060019003905f5260205f20015f9091909190916101000a81548173ffffffffffffffffffffffffffffffffffffffff021916908373ffffffffffffffffffffffffffffffffffffffff16021790555080600c015f81548092919061118f906120e4565b91905055505b34816009015f3373ffffffffffffffffffffffffffffffffffffffff1673ffffffffffffffffffffffffffffffffffffffff1681526020019081526020015f205f8282546111e391906128e7565b9250508190555034816006015f8282546111fd91906128e7565b925050819055503373ffffffffffffffffffffffffffffffffffffffff16827f0a4a91237423e0a1766a761c7cb029311d8b95d6b1b81db1b949a70c98b4e08e3460405161124b9190611bd3565b60405180910390a35050565b6060805f805f805f805f60015f8b81526020019081526020015f2090508060010181600201826003015483600601548460040154856005015f9054906101000a900473ffffffffffffffffffffffffffffffffffffffff16866007015f9054906101000a900460ff1687600801805490508780546112d490611f64565b80601f016020809104026020016040519081016040528092919081815260200182805461130090611f64565b801561134b5780601f106113225761010080835404028352916020019161134b565b820191905f5260205f20905b81548152906001019060200180831161132e57829003601f168201915b5050505050975086805461135e90611f64565b80601f016020809104026020016040519081016040528092919081815260200182805461138a90611f64565b80156113d55780601f106113ac576101008083540402835291602001916113d5565b820191905f5260205f20905b8154815290600101906020018083116113b857829003601f168201915b505050505096509850985098509850985098509850985050919395975091939597565b60605f805f8060015f8881526020019081526020015f20600801868154811061142457611423611f94565b5b905f5260205f2090600502019050805f018160010154826002015f9054906101000a900460ff16836003015483805461145c90611f64565b80601f016020809104026020016040519081016040528092919081815260200182805461148890611f64565b80156114d35780601f106114aa576101008083540402835291602001916114d3565b820191905f5260205f20905b8154815290600101906020018083116114b657829003601f168201915b5050505050935094509450945094505092959194509250565b60605f60015f8481526020019081526020015f20905080600b0180548060200260200160405190810160405280929190818152602001828054801561158357602002820191905f5260205f20905b815f9054906101000a900473ffffffffffffffffffffffffffffffffffffffff1673ffffffffffffffffffffffffffffffffffffffff168152602001906001019080831161153a575b5050505050915050919050565b5f5481565b5f604051905090565b5f80fd5b5f80fd5b5f819050919050565b6115b8816115a6565b81146115c2575f80fd5b50565b5f813590506115d3816115af565b92915050565b5f602082840312156115ee576115ed61159e565b5b5f6115fb848285016115c5565b91505092915050565b61160d816115a6565b82525050565b5f81519050919050565b5f82825260208201905092915050565b8281835e5f83830152505050565b5f601f19601f8301169050919050565b5f61165582611613565b61165f818561161d565b935061166f81856020860161162d565b6116788161163b565b840191505092915050565b5f73ffffffffffffffffffffffffffffffffffffffff82169050919050565b5f6116ac82611683565b9050919050565b6116bc816116a2565b82525050565b7f4e487b71000000000000000000000000000000000000000000000000000000005f52602160045260245ffd5b60038110611700576116ff6116c2565b5b50565b5f819050611710826116ef565b919050565b5f61171f82611703565b9050919050565b61172f81611715565b82525050565b5f610120820190506117495f83018c611604565b818103602083015261175b818b61164b565b9050818103604083015261176f818a61164b565b905061177e6060830189611604565b61178b6080830188611604565b61179860a08301876116b3565b6117a560c0830186611604565b6117b260e0830185611726565b6117c0610100830184611604565b9a9950505050505050505050565b5f80604083850312156117e4576117e361159e565b5b5f6117f1858286016115c5565b9250506020611802858286016115c5565b9150509250929050565b5f80fd5b5f80fd5b7f4e487b71000000000000000000000000000000000000000000000000000000005f52604160045260245ffd5b61184a8261163b565b810181811067ffffffffffffffff8211171561186957611868611814565b5b80604052505050565b5f61187b611595565b90506118878282611841565b919050565b5f67ffffffffffffffff8211156118a6576118a5611814565b5b6118af8261163b565b9050602081019050919050565b828183375f83830152505050565b5f6118dc6118d78461188c565b611872565b9050828152602081018484840111156118f8576118f7611810565b5b6119038482856118bc565b509392505050565b5f82601f83011261191f5761191e61180c565b5b813561192f8482602086016118ca565b91505092915050565b5f67ffffffffffffffff82111561195257611951611814565b5b602082029050602081019050919050565b5f80fd5b5f61197961197484611938565b611872565b9050808382526020820190506020840283018581111561199c5761199b611963565b5b835b818110156119e357803567ffffffffffffffff8111156119c1576119c061180c565b5b8086016119ce898261190b565b8552602085019450505060208101905061199e565b5050509392505050565b5f82601f830112611a0157611a0061180c565b5b8135611a11848260208601611967565b91505092915050565b5f67ffffffffffffffff821115611a3457611a33611814565b5b602082029050602081019050919050565b5f611a57611a5284611a1a565b611872565b90508083825260208201905060208402830185811115611a7a57611a79611963565b5b835b81811015611aa35780611a8f88826115c5565b845260208401935050602081019050611a7c565b5050509392505050565b5f82601f830112611ac157611ac061180c565b5b8135611ad1848260208601611a45565b91505092915050565b5f805f805f8060c08789031215611af457611af361159e565b5b5f87013567ffffffffffffffff811115611b1157611b106115a2565b5b611b1d89828a0161190b565b965050602087013567ffffffffffffffff811115611b3e57611b3d6115a2565b5b611b4a89828a0161190b565b9550506040611b5b89828a016115c5565b9450506060611b6c89828a016115c5565b935050608087013567ffffffffffffffff811115611b8d57611b8c6115a2565b5b611b9989828a016119ed565b92505060a087013567ffffffffffffffff811115611bba57611bb96115a2565b5b611bc689828a01611aad565b9150509295509295509295565b5f602082019050611be65f830184611604565b92915050565b5f81519050919050565b5f82825260208201905092915050565b5f819050602082019050919050565b611c1e816115a6565b82525050565b5f611c2f8383611c15565b60208301905092915050565b5f602082019050919050565b5f611c5182611bec565b611c5b8185611bf6565b9350611c6683611c06565b805f5b83811015611c96578151611c7d8882611c24565b9750611c8883611c3b565b925050600181019050611c69565b5085935050505092915050565b5f6020820190508181035f830152611cbb8184611c47565b905092915050565b5f611ccd82611683565b9050919050565b611cdd81611cc3565b8114611ce7575f80fd5b50565b5f81359050611cf881611cd4565b92915050565b5f8060408385031215611d1457611d1361159e565b5b5f611d21858286016115c5565b9250506020611d3285828601611cea565b9150509250929050565b5f8115159050919050565b611d5081611d3c565b82525050565b5f604082019050611d695f830185611604565b611d766020830184611d47565b9392505050565b611d8681611cc3565b82525050565b5f610100820190508181035f830152611da5818b61164b565b90508181036020830152611db9818a61164b565b9050611dc86040830189611604565b611dd56060830188611604565b611de26080830187611604565b611def60a0830186611d7d565b611dfc60c0830185611726565b611e0960e0830184611604565b9998505050505050505050565b5f6080820190508181035f830152611e2e818761164b565b9050611e3d6020830186611604565b611e4a6040830185611d47565b611e576060830184611604565b95945050505050565b5f81519050919050565b5f82825260208201905092915050565b5f819050602082019050919050565b611e9281611cc3565b82525050565b5f611ea38383611e89565b60208301905092915050565b5f602082019050919050565b5f611ec582611e60565b611ecf8185611e6a565b9350611eda83611e7a565b805f5b83811015611f0a578151611ef18882611e98565b9750611efc83611eaf565b925050600181019050611edd565b5085935050505092915050565b5f6020820190508181035f830152611f2f8184611ebb565b905092915050565b7f4e487b71000000000000000000000000000000000000000000000000000000005f52602260045260245ffd5b5f6002820490506001821680611f7b57607f821691505b602082108103611f8e57611f8d611f37565b5b50919050565b7f4e487b71000000000000000000000000000000000000000000000000000000005f52603260045260245ffd5b7f4f6e6c7920636f6e7472696275746f72732063616e20766f74650000000000005f82015250565b5f611ff5601a8361161d565b915061200082611fc1565b602082019050919050565b5f6020820190508181035f83015261202281611fe9565b9050919050565b7f596f75206861766520616c726561647920766f74656420666f722074686973205f8201527f6d696c6573746f6e650000000000000000000000000000000000000000000000602082015250565b5f61208360298361161d565b915061208e82612029565b604082019050919050565b5f6020820190508181035f8301526120b081612077565b9050919050565b7f4e487b71000000000000000000000000000000000000000000000000000000005f52601160045260245ffd5b5f6120ee826115a6565b91507fffffffffffffffffffffffffffffffffffffffffffffffffffffffffffffffff82036121205761211f6120b7565b5b600182019050919050565b7f4e487b71000000000000000000000000000000000000000000000000000000005f52601260045260245ffd5b5f612162826115a6565b915061216d836115a6565b92508261217d5761217c61212b565b5b828204905092915050565b5f60408201905061219b5f830185611604565b6121a86020830184611604565b9392505050565b7f446561646c696e65206d75737420626520696e207468652066757475726500005f82015250565b5f6121e3601e8361161d565b91506121ee826121af565b602082019050919050565b5f6020820190508181035f830152612210816121d7565b9050919050565b7f4d696c6573746f6e65732064617461206d69736d6174636800000000000000005f82015250565b5f61224b60188361161d565b915061225682612217565b602082019050919050565b5f6020820190508181035f8301526122788161223f565b9050919050565b5f819050815f5260205f209050919050565b5f6020601f8301049050919050565b5f82821b905092915050565b5f600883026122db7fffffffffffffffffffffffffffffffffffffffffffffffffffffffffffffffff826122a0565b6122e586836122a0565b95508019841693508086168417925050509392505050565b5f819050919050565b5f61232061231b612316846115a6565b6122fd565b6115a6565b9050919050565b5f819050919050565b61233983612306565b61234d61234582612327565b8484546122ac565b825550505050565b5f90565b612361612355565b61236c818484612330565b505050565b5b8181101561238f576123845f82612359565b600181019050612372565b5050565b601f8211156123d4576123a58161227f565b6123ae84612291565b810160208510156123bd578190505b6123d16123c985612291565b830182612371565b50505b505050565b5f82821c905092915050565b5f6123f45f19846008026123d9565b1980831691505092915050565b5f61240c83836123e5565b9150826002028217905092915050565b61242582611613565b67ffffffffffffffff81111561243e5761243d611814565b5b6124488254611f64565b612453828285612393565b5f60209050601f831160018114612484575f8415612472578287015190505b61247c8582612401565b8655506124e3565b601f1984166124928661227f565b5f5b828110156124b957848901518255600182019150602085019450602081019050612494565b868310156124d657848901516124d2601f8916826123e5565b8355505b6001600288020188555050505b505050505050565b5f6080820190508181035f830152612503818761164b565b90506125126020830186611604565b61251f6040830185611604565b61252c6060830184611d7d565b95945050505050565b7f43616d706169676e206973207374696c6c2061637469766500000000000000005f82015250565b5f61256960188361161d565b915061257482612535565b602082019050919050565b5f6020820190508181035f8301526125968161255d565b9050919050565b7f43616d706169676e20776173207375636365737366756c0000000000000000005f82015250565b5f6125d160178361161d565b91506125dc8261259d565b602082019050919050565b5f6020820190508181035f8301526125fe816125c5565b9050919050565b7f526566756e6420616c726561647920636c61696d6564000000000000000000005f82015250565b5f61263960168361161d565b915061264482612605565b602082019050919050565b5f6020820190508181035f8301526126668161262d565b9050919050565b7f4e6f20636f6e747269627574696f6e73206d61646500000000000000000000005f82015250565b5f6126a160158361161d565b91506126ac8261266d565b602082019050919050565b5f6020820190508181035f8301526126ce81612695565b9050919050565b7f4f6e6c79207468652063616d706169676e2063726561746f722063616e2066695f8201527f6e616c697a650000000000000000000000000000000000000000000000000000602082015250565b5f61272f60268361161d565b915061273a826126d5565b604082019050919050565b5f6020820190508181035f83015261275c81612723565b9050919050565b5f6020820190506127765f830184611726565b92915050565b5f612786826115a6565b9150612791836115a6565b92508282039050818111156127a9576127a86120b7565b5b92915050565b7f43616d706169676e2068617320656e64656400000000000000000000000000005f82015250565b5f6127e360128361161d565b91506127ee826127af565b602082019050919050565b5f6020820190508181035f830152612810816127d7565b9050919050565b7f43616d706169676e2066756e64696e6720676f616c20726561636865640000005f82015250565b5f61284b601d8361161d565b915061285682612817565b602082019050919050565b5f6020820190508181035f8301526128788161283f565b9050919050565b7f43616d706169676e206973206e6f7420616374697665000000000000000000005f82015250565b5f6128b360168361161d565b91506128be8261287f565b602082019050919050565b5f6020820190508181035f8301526128e0816128a7565b9050919050565b5f6128f1826115a6565b91506128fc836115a6565b9250828201905080821115612914576129136120b7565b5b9291505056fea2646970667358221220b248be818011e3c74ca7e80a69dbde2bf741647119e40b6fca2cadc953f28be564736f6c634300081a0033",
					"opcodes": "PUSH1 0x80 PUSH1 0x40 MSTORE CALLVALUE DUP1 ISZERO PUSH1 0xE JUMPI PUSH0 DUP1 REVERT JUMPDEST POP PUSH2 0x2950 DUP1 PUSH2 0x1C PUSH0 CODECOPY PUSH0 RETURN INVALID PUSH1 0x80 PUSH1 0x40 MSTORE PUSH1 0x4 CALLDATASIZE LT PUSH2 0xC1 JUMPI PUSH0 CALLDATALOAD PUSH1 0xE0 SHR DUP1 PUSH4 0x86CDF604 GT PUSH2 0x7E JUMPI DUP1 PUSH4 0xD993DE62 GT PUSH2 0x58 JUMPI DUP1 PUSH4 0xD993DE62 EQ PUSH2 0x268 JUMPI DUP1 PUSH4 0xE8049DA1 EQ PUSH2 0x2AB JUMPI DUP1 PUSH4 0xE9DEA525 EQ PUSH2 0x2EA JUMPI DUP1 PUSH4 0xFCA604D7 EQ PUSH2 0x326 JUMPI PUSH2 0xC1 JUMP JUMPDEST DUP1 PUSH4 0x86CDF604 EQ PUSH2 0x1E5 JUMPI DUP1 PUSH4 0x8F9EAE2A EQ PUSH2 0x20F JUMPI DUP1 PUSH4 0xC1CBBCA7 EQ PUSH2 0x24C JUMPI PUSH2 0xC1 JUMP JUMPDEST DUP1 PUSH4 0x141961BC EQ PUSH2 0xC5 JUMPI DUP1 PUSH4 0x20913DA5 EQ PUSH2 0x109 JUMPI DUP1 PUSH4 0x37C6BCAF EQ PUSH2 0x131 JUMPI DUP1 PUSH4 0x5B7BAF64 EQ PUSH2 0x159 JUMPI DUP1 PUSH4 0x5BD1BAAF EQ PUSH2 0x181 JUMPI DUP1 PUSH4 0x6B5CA27D EQ PUSH2 0x1BD JUMPI JUMPDEST PUSH0 DUP1 REVERT JUMPDEST CALLVALUE DUP1 ISZERO PUSH2 0xD0 JUMPI PUSH0 DUP1 REVERT JUMPDEST POP PUSH2 0xEB PUSH1 0x4 DUP1 CALLDATASIZE SUB DUP2 ADD SWAP1 PUSH2 0xE6 SWAP2 SWAP1 PUSH2 0x15D9 JUMP JUMPDEST PUSH2 0x350 JUMP JUMPDEST PUSH1 0x40 MLOAD PUSH2 0x100 SWAP10 SWAP9 SWAP8 SWAP7 SWAP6 SWAP5 SWAP4 SWAP3 SWAP2 SWAP1 PUSH2 0x1735 JUMP JUMPDEST PUSH1 0x40 MLOAD DUP1 SWAP2 SUB SWAP1 RETURN JUMPDEST CALLVALUE DUP1 ISZERO PUSH2 0x114 JUMPI PUSH0 DUP1 REVERT JUMPDEST POP PUSH2 0x12F PUSH1 0x4 DUP1 CALLDATASIZE SUB DUP2 ADD SWAP1 PUSH2 0x12A SWAP2 SWAP1 PUSH2 0x17CE JUMP JUMPDEST PUSH2 0x4D1 JUMP JUMPDEST STOP JUMPDEST CALLVALUE DUP1 ISZERO PUSH2 0x13C JUMPI PUSH0 DUP1 REVERT JUMPDEST POP PUSH2 0x157 PUSH1 0x4 DUP1 CALLDATASIZE SUB DUP2 ADD SWAP1 PUSH2 0x152 SWAP2 SWAP1 PUSH2 0x1ADA JUMP JUMPDEST PUSH2 0x7A7 JUMP JUMPDEST STOP JUMPDEST CALLVALUE DUP1 ISZERO PUSH2 0x164 JUMPI PUSH0 DUP1 REVERT JUMPDEST POP PUSH2 0x17F PUSH1 0x4 DUP1 CALLDATASIZE SUB DUP2 ADD SWAP1 PUSH2 0x17A SWAP2 SWAP1 PUSH2 0x15D9 JUMP JUMPDEST PUSH2 0x9FB JUMP JUMPDEST STOP JUMPDEST CALLVALUE DUP1 ISZERO PUSH2 0x18C JUMPI PUSH0 DUP1 REVERT JUMPDEST POP PUSH2 0x1A7 PUSH1 0x4 DUP1 CALLDATASIZE SUB DUP2 ADD SWAP1 PUSH2 0x1A2 SWAP2 SWAP1 PUSH2 0x15D9 JUMP JUMPDEST PUSH2 0xCA0 JUMP JUMPDEST PUSH1 0x40 MLOAD PUSH2 0x1B4 SWAP2 SWAP1 PUSH2 0x1BD3 JUMP JUMPDEST PUSH1 0x40 MLOAD DUP1 SWAP2 SUB SWAP1 RETURN JUMPDEST CALLVALUE DUP1 ISZERO PUSH2 0x1C8 JUMPI PUSH0 DUP1 REVERT JUMPDEST POP PUSH2 0x1E3 PUSH1 0x4 DUP1 CALLDATASIZE SUB DUP2 ADD SWAP1 PUSH2 0x1DE SWAP2 SWAP1 PUSH2 0x15D9 JUMP JUMPDEST PUSH2 0xCC2 JUMP JUMPDEST STOP JUMPDEST CALLVALUE DUP1 ISZERO PUSH2 0x1F0 JUMPI PUSH0 DUP1 REVERT JUMPDEST POP PUSH2 0x1F9 PUSH2 0xE67 JUMP JUMPDEST PUSH1 0x40 MLOAD PUSH2 0x206 SWAP2 SWAP1 PUSH2 0x1CA3 JUMP JUMPDEST PUSH1 0x40 MLOAD DUP1 SWAP2 SUB SWAP1 RETURN JUMPDEST CALLVALUE DUP1 ISZERO PUSH2 0x21A JUMPI PUSH0 DUP1 REVERT JUMPDEST POP PUSH2 0x235 PUSH1 0x4 DUP1 CALLDATASIZE SUB DUP2 ADD SWAP1 PUSH2 0x230 SWAP2 SWAP1 PUSH2 0x1CFE JUMP JUMPDEST PUSH2 0xF0B JUMP JUMPDEST PUSH1 0x40 MLOAD PUSH2 0x243 SWAP3 SWAP2 SWAP1 PUSH2 0x1D56 JUMP JUMPDEST PUSH1 0x40 MLOAD DUP1 SWAP2 SUB SWAP1 RETURN JUMPDEST PUSH2 0x266 PUSH1 0x4 DUP1 CALLDATASIZE SUB DUP2 ADD SWAP1 PUSH2 0x261 SWAP2 SWAP1 PUSH2 0x15D9 JUMP JUMPDEST PUSH2 0xFB9 JUMP JUMPDEST STOP JUMPDEST CALLVALUE DUP1 ISZERO PUSH2 0x273 JUMPI PUSH0 DUP1 REVERT JUMPDEST POP PUSH2 0x28E PUSH1 0x4 DUP1 CALLDATASIZE SUB DUP2 ADD SWAP1 PUSH2 0x289 SWAP2 SWAP1 PUSH2 0x15D9 JUMP JUMPDEST PUSH2 0x1257 JUMP JUMPDEST PUSH1 0x40 MLOAD PUSH2 0x2A2 SWAP9 SWAP8 SWAP7 SWAP6 SWAP5 SWAP4 SWAP3 SWAP2 SWAP1 PUSH2 0x1D8C JUMP JUMPDEST PUSH1 0x40 MLOAD DUP1 SWAP2 SUB SWAP1 RETURN JUMPDEST CALLVALUE DUP1 ISZERO PUSH2 0x2B6 JUMPI PUSH0 DUP1 REVERT JUMPDEST POP PUSH2 0x2D1 PUSH1 0x4 DUP1 CALLDATASIZE SUB DUP2 ADD SWAP1 PUSH2 0x2CC SWAP2 SWAP1 PUSH2 0x17CE JUMP JUMPDEST PUSH2 0x13F8 JUMP JUMPDEST PUSH1 0x40 MLOAD PUSH2 0x2E1 SWAP5 SWAP4 SWAP3 SWAP2 SWAP1 PUSH2 0x1E16 JUMP JUMPDEST PUSH1 0x40 MLOAD DUP1 SWAP2 SUB SWAP1 RETURN JUMPDEST CALLVALUE DUP1 ISZERO PUSH2 0x2F5 JUMPI PUSH0 DUP1 REVERT JUMPDEST POP PUSH2 0x310 PUSH1 0x4 DUP1 CALLDATASIZE SUB DUP2 ADD SWAP1 PUSH2 0x30B SWAP2 SWAP1 PUSH2 0x15D9 JUMP JUMPDEST PUSH2 0x14EC JUMP JUMPDEST PUSH1 0x40 MLOAD PUSH2 0x31D SWAP2 SWAP1 PUSH2 0x1F17 JUMP JUMPDEST PUSH1 0x40 MLOAD DUP1 SWAP2 SUB SWAP1 RETURN JUMPDEST CALLVALUE DUP1 ISZERO PUSH2 0x331 JUMPI PUSH0 DUP1 REVERT JUMPDEST POP PUSH2 0x33A PUSH2 0x1590 JUMP JUMPDEST PUSH1 0x40 MLOAD PUSH2 0x347 SWAP2 SWAP1 PUSH2 0x1BD3 JUMP JUMPDEST PUSH1 0x40 MLOAD DUP1 SWAP2 SUB SWAP1 RETURN JUMPDEST PUSH1 0x1 PUSH1 0x20 MSTORE DUP1 PUSH0 MSTORE PUSH1 0x40 PUSH0 KECCAK256 PUSH0 SWAP2 POP SWAP1 POP DUP1 PUSH0 ADD SLOAD SWAP1 DUP1 PUSH1 0x1 ADD DUP1 SLOAD PUSH2 0x375 SWAP1 PUSH2 0x1F64 JUMP JUMPDEST DUP1 PUSH1 0x1F ADD PUSH1 0x20 DUP1 SWAP2 DIV MUL PUSH1 0x20 ADD PUSH1 0x40 MLOAD SWAP1 DUP2 ADD PUSH1 0x40 MSTORE DUP1 SWAP3 SWAP2 SWAP1 DUP2 DUP2 MSTORE PUSH1 0x20 ADD DUP3 DUP1 SLOAD PUSH2 0x3A1 SWAP1 PUSH2 0x1F64 JUMP JUMPDEST DUP1 ISZERO PUSH2 0x3EC JUMPI DUP1 PUSH1 0x1F LT PUSH2 0x3C3 JUMPI PUSH2 0x100 DUP1 DUP4 SLOAD DIV MUL DUP4 MSTORE SWAP2 PUSH1 0x20 ADD SWAP2 PUSH2 0x3EC JUMP JUMPDEST DUP3 ADD SWAP2 SWAP1 PUSH0 MSTORE PUSH1 0x20 PUSH0 KECCAK256 SWAP1 JUMPDEST DUP2 SLOAD DUP2 MSTORE SWAP1 PUSH1 0x1 ADD SWAP1 PUSH1 0x20 ADD DUP1 DUP4 GT PUSH2 0x3CF JUMPI DUP3 SWAP1 SUB PUSH1 0x1F AND DUP3 ADD SWAP2 JUMPDEST POP POP POP POP POP SWAP1 DUP1 PUSH1 0x2 ADD DUP1 SLOAD PUSH2 0x401 SWAP1 PUSH2 0x1F64 JUMP JUMPDEST DUP1 PUSH1 0x1F ADD PUSH1 0x20 DUP1 SWAP2 DIV MUL PUSH1 0x20 ADD PUSH1 0x40 MLOAD SWAP1 DUP2 ADD PUSH1 0x40 MSTORE DUP1 SWAP3 SWAP2 SWAP1 DUP2 DUP2 MSTORE PUSH1 0x20 ADD DUP3 DUP1 SLOAD PUSH2 0x42D SWAP1 PUSH2 0x1F64 JUMP JUMPDEST DUP1 ISZERO PUSH2 0x478 JUMPI DUP1 PUSH1 0x1F LT PUSH2 0x44F JUMPI PUSH2 0x100 DUP1 DUP4 SLOAD DIV MUL DUP4 MSTORE SWAP2 PUSH1 0x20 ADD SWAP2 PUSH2 0x478 JUMP JUMPDEST DUP3 ADD SWAP2 SWAP1 PUSH0 MSTORE PUSH1 0x20 PUSH0 KECCAK256 SWAP1 JUMPDEST DUP2 SLOAD DUP2 MSTORE SWAP1 PUSH1 0x1 ADD SWAP1 PUSH1 0x20 ADD DUP1 DUP4 GT PUSH2 0x45B JUMPI DUP3 SWAP1 SUB PUSH1 0x1F AND DUP3 ADD SWAP2 JUMPDEST POP POP POP POP POP SWAP1 DUP1 PUSH1 0x3 ADD SLOAD SWAP1 DUP1 PUSH1 0x4 ADD SLOAD SWAP1 DUP1 PUSH1 0x5 ADD PUSH0 SWAP1 SLOAD SWAP1 PUSH2 0x100 EXP SWAP1 DIV PUSH20 0xFFFFFFFFFFFFFFFFFFFFFFFFFFFFFFFFFFFFFFFF AND SWAP1 DUP1 PUSH1 0x6 ADD SLOAD SWAP1 DUP1 PUSH1 0x7 ADD PUSH0 SWAP1 SLOAD SWAP1 PUSH2 0x100 EXP SWAP1 DIV PUSH1 0xFF AND SWAP1 DUP1 PUSH1 0xC ADD SLOAD SWAP1 POP DUP10 JUMP JUMPDEST PUSH0 PUSH1 0x1 PUSH0 DUP5 DUP2 MSTORE PUSH1 0x20 ADD SWAP1 DUP2 MSTORE PUSH1 0x20 ADD PUSH0 KECCAK256 SWAP1 POP PUSH0 DUP2 PUSH1 0x8 ADD DUP4 DUP2 SLOAD DUP2 LT PUSH2 0x4FC JUMPI PUSH2 0x4FB PUSH2 0x1F94 JUMP JUMPDEST JUMPDEST SWAP1 PUSH0 MSTORE PUSH1 0x20 PUSH0 KECCAK256 SWAP1 PUSH1 0x5 MUL ADD SWAP1 POP PUSH0 DUP3 PUSH1 0x9 ADD PUSH0 CALLER PUSH20 0xFFFFFFFFFFFFFFFFFFFFFFFFFFFFFFFFFFFFFFFF AND PUSH20 0xFFFFFFFFFFFFFFFFFFFFFFFFFFFFFFFFFFFFFFFF AND DUP2 MSTORE PUSH1 0x20 ADD SWAP1 DUP2 MSTORE PUSH1 0x20 ADD PUSH0 KECCAK256 SLOAD GT PUSH2 0x58B JUMPI PUSH1 0x40 MLOAD PUSH32 0x8C379A000000000000000000000000000000000000000000000000000000000 DUP2 MSTORE PUSH1 0x4 ADD PUSH2 0x582 SWAP1 PUSH2 0x200B JUMP JUMPDEST PUSH1 0x40 MLOAD DUP1 SWAP2 SUB SWAP1 REVERT JUMPDEST DUP1 PUSH1 0x4 ADD PUSH0 CALLER PUSH20 0xFFFFFFFFFFFFFFFFFFFFFFFFFFFFFFFFFFFFFFFF AND PUSH20 0xFFFFFFFFFFFFFFFFFFFFFFFFFFFFFFFFFFFFFFFF AND DUP2 MSTORE PUSH1 0x20 ADD SWAP1 DUP2 MSTORE PUSH1 0x20 ADD PUSH0 KECCAK256 PUSH0 SWAP1 SLOAD SWAP1 PUSH2 0x100 EXP SWAP1 DIV PUSH1 0xFF AND ISZERO PUSH2 0x617 JUMPI PUSH1 0x40 MLOAD PUSH32 0x8C379A000000000000000000000000000000000000000000000000000000000 DUP2 MSTORE PUSH1 0x4 ADD PUSH2 0x60E SWAP1 PUSH2 0x2099 JUMP JUMPDEST PUSH1 0x40 MLOAD DUP1 SWAP2 SUB SWAP1 REVERT JUMPDEST PUSH1 0x1 DUP2 PUSH1 0x4 ADD PUSH0 CALLER PUSH20 0xFFFFFFFFFFFFFFFFFFFFFFFFFFFFFFFFFFFFFFFF AND PUSH20 0xFFFFFFFFFFFFFFFFFFFFFFFFFFFFFFFFFFFFFFFF AND DUP2 MSTORE PUSH1 0x20 ADD SWAP1 DUP2 MSTORE PUSH1 0x20 ADD PUSH0 KECCAK256 PUSH0 PUSH2 0x100 EXP DUP2 SLOAD DUP2 PUSH1 0xFF MUL NOT AND SWAP1 DUP4 ISZERO ISZERO MUL OR SWAP1 SSTORE POP DUP1 PUSH1 0x3 ADD PUSH0 DUP2 SLOAD DUP1 SWAP3 SWAP2 SWAP1 PUSH2 0x682 SWAP1 PUSH2 0x20E4 JUMP JUMPDEST SWAP2 SWAP1 POP SSTORE POP PUSH1 0x2 DUP3 PUSH1 0xC ADD SLOAD PUSH2 0x698 SWAP2 SWAP1 PUSH2 0x2158 JUMP JUMPDEST DUP2 PUSH1 0x3 ADD SLOAD GT ISZERO PUSH2 0x7A1 JUMPI PUSH1 0x1 DUP2 PUSH1 0x2 ADD PUSH0 PUSH2 0x100 EXP DUP2 SLOAD DUP2 PUSH1 0xFF MUL NOT AND SWAP1 DUP4 ISZERO ISZERO MUL OR SWAP1 SSTORE POP DUP2 PUSH1 0x5 ADD PUSH0 SWAP1 SLOAD SWAP1 PUSH2 0x100 EXP SWAP1 DIV PUSH20 0xFFFFFFFFFFFFFFFFFFFFFFFFFFFFFFFFFFFFFFFF AND PUSH20 0xFFFFFFFFFFFFFFFFFFFFFFFFFFFFFFFFFFFFFFFF AND PUSH2 0x8FC DUP3 PUSH1 0x1 ADD SLOAD SWAP1 DUP2 ISZERO MUL SWAP1 PUSH1 0x40 MLOAD PUSH0 PUSH1 0x40 MLOAD DUP1 DUP4 SUB DUP2 DUP6 DUP9 DUP9 CALL SWAP4 POP POP POP POP ISZERO DUP1 ISZERO PUSH2 0x729 JUMPI RETURNDATASIZE PUSH0 DUP1 RETURNDATACOPY RETURNDATASIZE PUSH0 REVERT JUMPDEST POP DUP4 PUSH32 0x939DA3B627C123C81FE5AACEBF925163337A0D4F8A03724640618078CAD24894 DUP5 PUSH1 0x40 MLOAD PUSH2 0x75A SWAP2 SWAP1 PUSH2 0x1BD3 JUMP JUMPDEST PUSH1 0x40 MLOAD DUP1 SWAP2 SUB SWAP1 LOG2 DUP4 PUSH32 0x24D2F6E8AC6C13D1E7610752AB0B7CE03D5043806A65D3D631AE859AD81D159B DUP5 DUP4 PUSH1 0x1 ADD SLOAD PUSH1 0x40 MLOAD PUSH2 0x798 SWAP3 SWAP2 SWAP1 PUSH2 0x2188 JUMP JUMPDEST PUSH1 0x40 MLOAD DUP1 SWAP2 SUB SWAP1 LOG2 JUMPDEST POP POP POP POP JUMP JUMPDEST TIMESTAMP DUP4 GT PUSH2 0x7E9 JUMPI PUSH1 0x40 MLOAD PUSH32 0x8C379A000000000000000000000000000000000000000000000000000000000 DUP2 MSTORE PUSH1 0x4 ADD PUSH2 0x7E0 SWAP1 PUSH2 0x21F9 JUMP JUMPDEST PUSH1 0x40 MLOAD DUP1 SWAP2 SUB SWAP1 REVERT JUMPDEST DUP1 MLOAD DUP3 MLOAD EQ PUSH2 0x82D JUMPI PUSH1 0x40 MLOAD PUSH32 0x8C379A000000000000000000000000000000000000000000000000000000000 DUP2 MSTORE PUSH1 0x4 ADD PUSH2 0x824 SWAP1 PUSH2 0x2261 JUMP JUMPDEST PUSH1 0x40 MLOAD DUP1 SWAP2 SUB SWAP1 REVERT JUMPDEST PUSH0 DUP1 DUP2 SLOAD DUP1 SWAP3 SWAP2 SWAP1 PUSH2 0x83E SWAP1 PUSH2 0x20E4 JUMP JUMPDEST SWAP2 SWAP1 POP SSTORE POP PUSH0 PUSH1 0x1 PUSH0 DUP1 SLOAD DUP2 MSTORE PUSH1 0x20 ADD SWAP1 DUP2 MSTORE PUSH1 0x20 ADD PUSH0 KECCAK256 SWAP1 POP PUSH0 SLOAD DUP2 PUSH0 ADD DUP2 SWAP1 SSTORE POP DUP7 DUP2 PUSH1 0x1 ADD SWAP1 DUP2 PUSH2 0x872 SWAP2 SWAP1 PUSH2 0x241C JUMP JUMPDEST POP DUP6 DUP2 PUSH1 0x2 ADD SWAP1 DUP2 PUSH2 0x884 SWAP2 SWAP1 PUSH2 0x241C JUMP JUMPDEST POP DUP5 DUP2 PUSH1 0x3 ADD DUP2 SWAP1 SSTORE POP DUP4 DUP2 PUSH1 0x4 ADD DUP2 SWAP1 SSTORE POP CALLER DUP2 PUSH1 0x5 ADD PUSH0 PUSH2 0x100 EXP DUP2 SLOAD DUP2 PUSH20 0xFFFFFFFFFFFFFFFFFFFFFFFFFFFFFFFFFFFFFFFF MUL NOT AND SWAP1 DUP4 PUSH20 0xFFFFFFFFFFFFFFFFFFFFFFFFFFFFFFFFFFFFFFFF AND MUL OR SWAP1 SSTORE POP PUSH0 DUP2 PUSH1 0x7 ADD PUSH0 PUSH2 0x100 EXP DUP2 SLOAD DUP2 PUSH1 0xFF MUL NOT AND SWAP1 DUP4 PUSH1 0x2 DUP2 GT ISZERO PUSH2 0x8FF JUMPI PUSH2 0x8FE PUSH2 0x16C2 JUMP JUMPDEST JUMPDEST MUL OR SWAP1 SSTORE POP PUSH0 JUMPDEST DUP4 MLOAD DUP2 LT ISZERO PUSH2 0x9B2 JUMPI PUSH0 DUP3 PUSH1 0x8 ADD PUSH1 0x1 DUP2 PUSH1 0x1 DUP2 SLOAD ADD DUP1 DUP3 SSTORE DUP1 SWAP2 POP POP SUB SWAP1 PUSH0 MSTORE PUSH1 0x20 PUSH0 KECCAK256 SWAP1 PUSH1 0x5 MUL ADD SWAP1 POP DUP5 DUP3 DUP2 MLOAD DUP2 LT PUSH2 0x945 JUMPI PUSH2 0x944 PUSH2 0x1F94 JUMP JUMPDEST JUMPDEST PUSH1 0x20 MUL PUSH1 0x20 ADD ADD MLOAD DUP2 PUSH0 ADD SWAP1 DUP2 PUSH2 0x95C SWAP2 SWAP1 PUSH2 0x241C JUMP JUMPDEST POP DUP4 DUP3 DUP2 MLOAD DUP2 LT PUSH2 0x970 JUMPI PUSH2 0x96F PUSH2 0x1F94 JUMP JUMPDEST JUMPDEST PUSH1 0x20 MUL PUSH1 0x20 ADD ADD MLOAD DUP2 PUSH1 0x1 ADD DUP2 SWAP1 SSTORE POP PUSH0 DUP2 PUSH1 0x2 ADD PUSH0 PUSH2 0x100 EXP DUP2 SLOAD DUP2 PUSH1 0xFF MUL NOT AND SWAP1 DUP4 ISZERO ISZERO MUL OR SWAP1 SSTORE POP PUSH0 DUP2 PUSH1 0x3 ADD DUP2 SWAP1 SSTORE POP POP DUP1 DUP1 PUSH1 0x1 ADD SWAP2 POP POP PUSH2 0x906 JUMP JUMPDEST POP PUSH0 SLOAD PUSH32 0x55C246C9ACAC35DEFA7B5B11325208F9615273B139A7D1642A880AFB4568637E DUP9 DUP8 DUP8 CALLER PUSH1 0x40 MLOAD PUSH2 0x9EA SWAP5 SWAP4 SWAP3 SWAP2 SWAP1 PUSH2 0x24EB JUMP JUMPDEST PUSH1 0x40 MLOAD DUP1 SWAP2 SUB SWAP1 LOG2 POP POP POP POP POP POP POP JUMP JUMPDEST PUSH0 PUSH1 0x1 PUSH0 DUP4 DUP2 MSTORE PUSH1 0x20 ADD SWAP1 DUP2 MSTORE PUSH1 0x20 ADD PUSH0 KECCAK256 SWAP1 POP DUP1 PUSH1 0x4 ADD SLOAD TIMESTAMP LT ISZERO PUSH2 0xA56 JUMPI PUSH1 0x40 MLOAD PUSH32 0x8C379A000000000000000000000000000000000000000000000000000000000 DUP2 MSTORE PUSH1 0x4 ADD PUSH2 0xA4D SWAP1 PUSH2 0x257F JUMP JUMPDEST PUSH1 0x40 MLOAD DUP1 SWAP2 SUB SWAP1 REVERT JUMPDEST DUP1 PUSH1 0x3 ADD SLOAD DUP2 PUSH1 0x6 ADD SLOAD LT PUSH2 0xAA0 JUMPI PUSH1 0x40 MLOAD PUSH32 0x8C379A000000000000000000000000000000000000000000000000000000000 DUP2 MSTORE PUSH1 0x4 ADD PUSH2 0xA97 SWAP1 PUSH2 0x25E7 JUMP JUMPDEST PUSH1 0x40 MLOAD DUP1 SWAP2 SUB SWAP1 REVERT JUMPDEST DUP1 PUSH1 0xA ADD PUSH0 CALLER PUSH20 0xFFFFFFFFFFFFFFFFFFFFFFFFFFFFFFFFFFFFFFFF AND PUSH20 0xFFFFFFFFFFFFFFFFFFFFFFFFFFFFFFFFFFFFFFFF AND DUP2 MSTORE PUSH1 0x20 ADD SWAP1 DUP2 MSTORE PUSH1 0x20 ADD PUSH0 KECCAK256 PUSH0 SWAP1 SLOAD SWAP1 PUSH2 0x100 EXP SWAP1 DIV PUSH1 0xFF AND ISZERO PUSH2 0xB2C JUMPI PUSH1 0x40 MLOAD PUSH32 0x8C379A000000000000000000000000000000000000000000000000000000000 DUP2 MSTORE PUSH1 0x4 ADD PUSH2 0xB23 SWAP1 PUSH2 0x264F JUMP JUMPDEST PUSH1 0x40 MLOAD DUP1 SWAP2 SUB SWAP1 REVERT JUMPDEST PUSH0 DUP2 PUSH1 0x9 ADD PUSH0 CALLER PUSH20 0xFFFFFFFFFFFFFFFFFFFFFFFFFFFFFFFFFFFFFFFF AND PUSH20 0xFFFFFFFFFFFFFFFFFFFFFFFFFFFFFFFFFFFFFFFF AND DUP2 MSTORE PUSH1 0x20 ADD SWAP1 DUP2 MSTORE PUSH1 0x20 ADD PUSH0 KECCAK256 SLOAD SWAP1 POP PUSH0 DUP2 GT PUSH2 0xBB1 JUMPI PUSH1 0x40 MLOAD PUSH32 0x8C379A000000000000000000000000000000000000000000000000000000000 DUP2 MSTORE PUSH1 0x4 ADD PUSH2 0xBA8 SWAP1 PUSH2 0x26B7 JUMP JUMPDEST PUSH1 0x40 MLOAD DUP1 SWAP2 SUB SWAP1 REVERT JUMPDEST PUSH1 0x1 DUP3 PUSH1 0xA ADD PUSH0 CALLER PUSH20 0xFFFFFFFFFFFFFFFFFFFFFFFFFFFFFFFFFFFFFFFF AND PUSH20 0xFFFFFFFFFFFFFFFFFFFFFFFFFFFFFFFFFFFFFFFF AND DUP2 MSTORE PUSH1 0x20 ADD SWAP1 DUP2 MSTORE PUSH1 0x20 ADD PUSH0 KECCAK256 PUSH0 PUSH2 0x100 EXP DUP2 SLOAD DUP2 PUSH1 0xFF MUL NOT AND SWAP1 DUP4 ISZERO ISZERO MUL OR SWAP1 SSTORE POP CALLER PUSH20 0xFFFFFFFFFFFFFFFFFFFFFFFFFFFFFFFFFFFFFFFF AND PUSH2 0x8FC DUP3 SWAP1 DUP2 ISZERO MUL SWAP1 PUSH1 0x40 MLOAD PUSH0 PUSH1 0x40 MLOAD DUP1 DUP4 SUB DUP2 DUP6 DUP9 DUP9 CALL SWAP4 POP POP POP POP ISZERO DUP1 ISZERO PUSH2 0xC4B JUMPI RETURNDATASIZE PUSH0 DUP1 RETURNDATACOPY RETURNDATASIZE PUSH0 REVERT JUMPDEST POP CALLER PUSH20 0xFFFFFFFFFFFFFFFFFFFFFFFFFFFFFFFFFFFFFFFF AND DUP4 PUSH32 0xF3F402280EF0A7905E124AA621B65EAEB2725C343E8B36D398ED78C29DAF285C DUP4 PUSH1 0x40 MLOAD PUSH2 0xC93 SWAP2 SWAP1 PUSH2 0x1BD3 JUMP JUMPDEST PUSH1 0x40 MLOAD DUP1 SWAP2 SUB SWAP1 LOG3 POP POP POP JUMP JUMPDEST PUSH0 DUP1 PUSH1 0x1 PUSH0 DUP5 DUP2 MSTORE PUSH1 0x20 ADD SWAP1 DUP2 MSTORE PUSH1 0x20 ADD PUSH0 KECCAK256 SWAP1 POP DUP1 PUSH1 0x6 ADD SLOAD SWAP2 POP POP SWAP2 SWAP1 POP JUMP JUMPDEST PUSH0 PUSH1 0x1 PUSH0 DUP4 DUP2 MSTORE PUSH1 0x20 ADD SWAP1 DUP2 MSTORE PUSH1 0x20 ADD PUSH0 KECCAK256 SWAP1 POP DUP1 PUSH1 0x4 ADD SLOAD TIMESTAMP LT ISZERO PUSH2 0xD1D JUMPI PUSH1 0x40 MLOAD PUSH32 0x8C379A000000000000000000000000000000000000000000000000000000000 DUP2 MSTORE PUSH1 0x4 ADD PUSH2 0xD14 SWAP1 PUSH2 0x257F JUMP JUMPDEST PUSH1 0x40 MLOAD DUP1 SWAP2 SUB SWAP1 REVERT JUMPDEST CALLER PUSH20 0xFFFFFFFFFFFFFFFFFFFFFFFFFFFFFFFFFFFFFFFF AND DUP2 PUSH1 0x5 ADD PUSH0 SWAP1 SLOAD SWAP1 PUSH2 0x100 EXP SWAP1 DIV PUSH20 0xFFFFFFFFFFFFFFFFFFFFFFFFFFFFFFFFFFFFFFFF AND PUSH20 0xFFFFFFFFFFFFFFFFFFFFFFFFFFFFFFFFFFFFFFFF AND EQ PUSH2 0xDAE JUMPI PUSH1 0x40 MLOAD PUSH32 0x8C379A000000000000000000000000000000000000000000000000000000000 DUP2 MSTORE PUSH1 0x4 ADD PUSH2 0xDA5 SWAP1 PUSH2 0x2745 JUMP JUMPDEST PUSH1 0x40 MLOAD DUP1 SWAP2 SUB SWAP1 REVERT JUMPDEST DUP1 PUSH1 0x3 ADD SLOAD DUP2 PUSH1 0x6 ADD SLOAD LT PUSH2 0xDEE JUMPI PUSH1 0x1 DUP2 PUSH1 0x7 ADD PUSH0 PUSH2 0x100 EXP DUP2 SLOAD DUP2 PUSH1 0xFF MUL NOT AND SWAP1 DUP4 PUSH1 0x2 DUP2 GT ISZERO PUSH2 0xDE4 JUMPI PUSH2 0xDE3 PUSH2 0x16C2 JUMP JUMPDEST JUMPDEST MUL OR SWAP1 SSTORE POP PUSH2 0xE1B JUMP JUMPDEST PUSH1 0x2 DUP2 PUSH1 0x7 ADD PUSH0 PUSH2 0x100 EXP DUP2 SLOAD DUP2 PUSH1 0xFF MUL NOT AND SWAP1 DUP4 PUSH1 0x2 DUP2 GT ISZERO PUSH2 0xE15 JUMPI PUSH2 0xE14 PUSH2 0x16C2 JUMP JUMPDEST JUMPDEST MUL OR SWAP1 SSTORE POP JUMPDEST DUP2 PUSH32 0xFBDBEE1007296104D763605C2EB31F467B3E4CC929953CED44B039A074178B09 DUP3 PUSH1 0x7 ADD PUSH0 SWAP1 SLOAD SWAP1 PUSH2 0x100 EXP SWAP1 DIV PUSH1 0xFF AND PUSH1 0x40 MLOAD PUSH2 0xE5B SWAP2 SWAP1 PUSH2 0x2763 JUMP JUMPDEST PUSH1 0x40 MLOAD DUP1 SWAP2 SUB SWAP1 LOG2 POP POP JUMP JUMPDEST PUSH1 0x60 PUSH0 DUP1 SLOAD PUSH8 0xFFFFFFFFFFFFFFFF DUP2 GT ISZERO PUSH2 0xE85 JUMPI PUSH2 0xE84 PUSH2 0x1814 JUMP JUMPDEST JUMPDEST PUSH1 0x40 MLOAD SWAP1 DUP1 DUP3 MSTORE DUP1 PUSH1 0x20 MUL PUSH1 0x20 ADD DUP3 ADD PUSH1 0x40 MSTORE DUP1 ISZERO PUSH2 0xEB3 JUMPI DUP2 PUSH1 0x20 ADD PUSH1 0x20 DUP3 MUL DUP1 CALLDATASIZE DUP4 CALLDATACOPY DUP1 DUP3 ADD SWAP2 POP POP SWAP1 POP JUMPDEST POP SWAP1 POP PUSH0 PUSH1 0x1 SWAP1 POP JUMPDEST PUSH0 SLOAD DUP2 GT PUSH2 0xF03 JUMPI DUP1 DUP3 PUSH1 0x1 DUP4 PUSH2 0xED3 SWAP2 SWAP1 PUSH2 0x277C JUMP JUMPDEST DUP2 MLOAD DUP2 LT PUSH2 0xEE4 JUMPI PUSH2 0xEE3 PUSH2 0x1F94 JUMP JUMPDEST JUMPDEST PUSH1 0x20 MUL PUSH1 0x20 ADD ADD DUP2 DUP2 MSTORE POP POP DUP1 DUP1 PUSH2 0xEFB SWAP1 PUSH2 0x20E4 JUMP JUMPDEST SWAP2 POP POP PUSH2 0xEBC JUMP JUMPDEST POP DUP1 SWAP2 POP POP SWAP1 JUMP JUMPDEST PUSH0 DUP1 PUSH0 PUSH1 0x1 PUSH0 DUP7 DUP2 MSTORE PUSH1 0x20 ADD SWAP1 DUP2 MSTORE PUSH1 0x20 ADD PUSH0 KECCAK256 SWAP1 POP DUP1 PUSH1 0x9 ADD PUSH0 DUP6 PUSH20 0xFFFFFFFFFFFFFFFFFFFFFFFFFFFFFFFFFFFFFFFF AND PUSH20 0xFFFFFFFFFFFFFFFFFFFFFFFFFFFFFFFFFFFFFFFF AND DUP2 MSTORE PUSH1 0x20 ADD SWAP1 DUP2 MSTORE PUSH1 0x20 ADD PUSH0 KECCAK256 SLOAD DUP2 PUSH1 0xA ADD PUSH0 DUP7 PUSH20 0xFFFFFFFFFFFFFFFFFFFFFFFFFFFFFFFFFFFFFFFF AND PUSH20 0xFFFFFFFFFFFFFFFFFFFFFFFFFFFFFFFFFFFFFFFF AND DUP2 MSTORE PUSH1 0x20 ADD SWAP1 DUP2 MSTORE PUSH1 0x20 ADD PUSH0 KECCAK256 PUSH0 SWAP1 SLOAD SWAP1 PUSH2 0x100 EXP SWAP1 DIV PUSH1 0xFF AND SWAP3 POP SWAP3 POP POP SWAP3 POP SWAP3 SWAP1 POP JUMP JUMPDEST PUSH0 PUSH1 0x1 PUSH0 DUP4 DUP2 MSTORE PUSH1 0x20 ADD SWAP1 DUP2 MSTORE PUSH1 0x20 ADD PUSH0 KECCAK256 SWAP1 POP DUP1 PUSH1 0x4 ADD SLOAD TIMESTAMP LT PUSH2 0x1013 JUMPI PUSH1 0x40 MLOAD PUSH32 0x8C379A000000000000000000000000000000000000000000000000000000000 DUP2 MSTORE PUSH1 0x4 ADD PUSH2 0x100A SWAP1 PUSH2 0x27F9 JUMP JUMPDEST PUSH1 0x40 MLOAD DUP1 SWAP2 SUB SWAP1 REVERT JUMPDEST DUP1 PUSH1 0x3 ADD SLOAD DUP2 PUSH1 0x6 ADD SLOAD LT PUSH2 0x105D JUMPI PUSH1 0x40 MLOAD PUSH32 0x8C379A000000000000000000000000000000000000000000000000000000000 DUP2 MSTORE PUSH1 0x4 ADD PUSH2 0x1054 SWAP1 PUSH2 0x2861 JUMP JUMPDEST PUSH1 0x40 MLOAD DUP1 SWAP2 SUB SWAP1 REVERT JUMPDEST PUSH0 PUSH1 0x2 DUP2 GT ISZERO PUSH2 0x1070 JUMPI PUSH2 0x106F PUSH2 0x16C2 JUMP JUMPDEST JUMPDEST DUP2 PUSH1 0x7 ADD PUSH0 SWAP1 SLOAD SWAP1 PUSH2 0x100 EXP SWAP1 DIV PUSH1 0xFF AND PUSH1 0x2 DUP2 GT ISZERO PUSH2 0x1093 JUMPI PUSH2 0x1092 PUSH2 0x16C2 JUMP JUMPDEST JUMPDEST EQ PUSH2 0x10D3 JUMPI PUSH1 0x40 MLOAD PUSH32 0x8C379A000000000000000000000000000000000000000000000000000000000 DUP2 MSTORE PUSH1 0x4 ADD PUSH2 0x10CA SWAP1 PUSH2 0x28C9 JUMP JUMPDEST PUSH1 0x40 MLOAD DUP1 SWAP2 SUB SWAP1 REVERT JUMPDEST PUSH0 DUP2 PUSH1 0x9 ADD PUSH0 CALLER PUSH20 0xFFFFFFFFFFFFFFFFFFFFFFFFFFFFFFFFFFFFFFFF AND PUSH20 0xFFFFFFFFFFFFFFFFFFFFFFFFFFFFFFFFFFFFFFFF AND DUP2 MSTORE PUSH1 0x20 ADD SWAP1 DUP2 MSTORE PUSH1 0x20 ADD PUSH0 KECCAK256 SLOAD SUB PUSH2 0x1195 JUMPI DUP1 PUSH1 0xB ADD CALLER SWAP1 DUP1 PUSH1 0x1 DUP2 SLOAD ADD DUP1 DUP3 SSTORE DUP1 SWAP2 POP POP PUSH1 0x1 SWAP1 SUB SWAP1 PUSH0 MSTORE PUSH1 0x20 PUSH0 KECCAK256 ADD PUSH0 SWAP1 SWAP2 SWAP1 SWAP2 SWAP1 SWAP2 PUSH2 0x100 EXP DUP2 SLOAD DUP2 PUSH20 0xFFFFFFFFFFFFFFFFFFFFFFFFFFFFFFFFFFFFFFFF MUL NOT AND SWAP1 DUP4 PUSH20 0xFFFFFFFFFFFFFFFFFFFFFFFFFFFFFFFFFFFFFFFF AND MUL OR SWAP1 SSTORE POP DUP1 PUSH1 0xC ADD PUSH0 DUP2 SLOAD DUP1 SWAP3 SWAP2 SWAP1 PUSH2 0x118F SWAP1 PUSH2 0x20E4 JUMP JUMPDEST SWAP2 SWAP1 POP SSTORE POP JUMPDEST CALLVALUE DUP2 PUSH1 0x9 ADD PUSH0 CALLER PUSH20 0xFFFFFFFFFFFFFFFFFFFFFFFFFFFFFFFFFFFFFFFF AND PUSH20 0xFFFFFFFFFFFFFFFFFFFFFFFFFFFFFFFFFFFFFFFF AND DUP2 MSTORE PUSH1 0x20 ADD SWAP1 DUP2 MSTORE PUSH1 0x20 ADD PUSH0 KECCAK256 PUSH0 DUP3 DUP3 SLOAD PUSH2 0x11E3 SWAP2 SWAP1 PUSH2 0x28E7 JUMP JUMPDEST SWAP3 POP POP DUP2 SWAP1 SSTORE POP CALLVALUE DUP2 PUSH1 0x6 ADD PUSH0 DUP3 DUP3 SLOAD PUSH2 0x11FD SWAP2 SWAP1 PUSH2 0x28E7 JUMP JUMPDEST SWAP3 POP POP DUP2 SWAP1 SSTORE POP CALLER PUSH20 0xFFFFFFFFFFFFFFFFFFFFFFFFFFFFFFFFFFFFFFFF AND DUP3 PUSH32 0xA4A91237423E0A1766A761C7CB029311D8B95D6B1B81DB1B949A70C98B4E08E CALLVALUE PUSH1 0x40 MLOAD PUSH2 0x124B SWAP2 SWAP1 PUSH2 0x1BD3 JUMP JUMPDEST PUSH1 0x40 MLOAD DUP1 SWAP2 SUB SWAP1 LOG3 POP POP JUMP JUMPDEST PUSH1 0x60 DUP1 PUSH0 DUP1 PUSH0 DUP1 PUSH0 DUP1 PUSH0 PUSH1 0x1 PUSH0 DUP12 DUP2 MSTORE PUSH1 0x20 ADD SWAP1 DUP2 MSTORE PUSH1 0x20 ADD PUSH0 KECCAK256 SWAP1 POP DUP1 PUSH1 0x1 ADD DUP2 PUSH1 0x2 ADD DUP3 PUSH1 0x3 ADD SLOAD DUP4 PUSH1 0x6 ADD SLOAD DUP5 PUSH1 0x4 ADD SLOAD DUP6 PUSH1 0x5 ADD PUSH0 SWAP1 SLOAD SWAP1 PUSH2 0x100 EXP SWAP1 DIV PUSH20 0xFFFFFFFFFFFFFFFFFFFFFFFFFFFFFFFFFFFFFFFF AND DUP7 PUSH1 0x7 ADD PUSH0 SWAP1 SLOAD SWAP1 PUSH2 0x100 EXP SWAP1 DIV PUSH1 0xFF AND DUP8 PUSH1 0x8 ADD DUP1 SLOAD SWAP1 POP DUP8 DUP1 SLOAD PUSH2 0x12D4 SWAP1 PUSH2 0x1F64 JUMP JUMPDEST DUP1 PUSH1 0x1F ADD PUSH1 0x20 DUP1 SWAP2 DIV MUL PUSH1 0x20 ADD PUSH1 0x40 MLOAD SWAP1 DUP2 ADD PUSH1 0x40 MSTORE DUP1 SWAP3 SWAP2 SWAP1 DUP2 DUP2 MSTORE PUSH1 0x20 ADD DUP3 DUP1 SLOAD PUSH2 0x1300 SWAP1 PUSH2 0x1F64 JUMP JUMPDEST DUP1 ISZERO PUSH2 0x134B JUMPI DUP1 PUSH1 0x1F LT PUSH2 0x1322 JUMPI PUSH2 0x100 DUP1 DUP4 SLOAD DIV MUL DUP4 MSTORE SWAP2 PUSH1 0x20 ADD SWAP2 PUSH2 0x134B JUMP JUMPDEST DUP3 ADD SWAP2 SWAP1 PUSH0 MSTORE PUSH1 0x20 PUSH0 KECCAK256 SWAP1 JUMPDEST DUP2 SLOAD DUP2 MSTORE SWAP1 PUSH1 0x1 ADD SWAP1 PUSH1 0x20 ADD DUP1 DUP4 GT PUSH2 0x132E JUMPI DUP3 SWAP1 SUB PUSH1 0x1F AND DUP3 ADD SWAP2 JUMPDEST POP POP POP POP POP SWAP8 POP DUP7 DUP1 SLOAD PUSH2 0x135E SWAP1 PUSH2 0x1F64 JUMP JUMPDEST DUP1 PUSH1 0x1F ADD PUSH1 0x20 DUP1 SWAP2 DIV MUL PUSH1 0x20 ADD PUSH1 0x40 MLOAD SWAP1 DUP2 ADD PUSH1 0x40 MSTORE DUP1 SWAP3 SWAP2 SWAP1 DUP2 DUP2 MSTORE PUSH1 0x20 ADD DUP3 DUP1 SLOAD PUSH2 0x138A SWAP1 PUSH2 0x1F64 JUMP JUMPDEST DUP1 ISZERO PUSH2 0x13D5 JUMPI DUP1 PUSH1 0x1F LT PUSH2 0x13AC JUMPI PUSH2 0x100 DUP1 DUP4 SLOAD DIV MUL DUP4 MSTORE SWAP2 PUSH1 0x20 ADD SWAP2 PUSH2 0x13D5 JUMP JUMPDEST DUP3 ADD SWAP2 SWAP1 PUSH0 MSTORE PUSH1 0x20 PUSH0 KECCAK256 SWAP1 JUMPDEST DUP2 SLOAD DUP2 MSTORE SWAP1 PUSH1 0x1 ADD SWAP1 PUSH1 0x20 ADD DUP1 DUP4 GT PUSH2 0x13B8 JUMPI DUP3 SWAP1 SUB PUSH1 0x1F AND DUP3 ADD SWAP2 JUMPDEST POP POP POP POP POP SWAP7 POP SWAP9 POP SWAP9 POP SWAP9 POP SWAP9 POP SWAP9 POP SWAP9 POP SWAP9 POP SWAP9 POP POP SWAP2 SWAP4 SWAP6 SWAP8 POP SWAP2 SWAP4 SWAP6 SWAP8 JUMP JUMPDEST PUSH1 0x60 PUSH0 DUP1 PUSH0 DUP1 PUSH1 0x1 PUSH0 DUP9 DUP2 MSTORE PUSH1 0x20 ADD SWAP1 DUP2 MSTORE PUSH1 0x20 ADD PUSH0 KECCAK256 PUSH1 0x8 ADD DUP7 DUP2 SLOAD DUP2 LT PUSH2 0x1424 JUMPI PUSH2 0x1423 PUSH2 0x1F94 JUMP JUMPDEST JUMPDEST SWAP1 PUSH0 MSTORE PUSH1 0x20 PUSH0 KECCAK256 SWAP1 PUSH1 0x5 MUL ADD SWAP1 POP DUP1 PUSH0 ADD DUP2 PUSH1 0x1 ADD SLOAD DUP3 PUSH1 0x2 ADD PUSH0 SWAP1 SLOAD SWAP1 PUSH2 0x100 EXP SWAP1 DIV PUSH1 0xFF AND DUP4 PUSH1 0x3 ADD SLOAD DUP4 DUP1 SLOAD PUSH2 0x145C SWAP1 PUSH2 0x1F64 JUMP JUMPDEST DUP1 PUSH1 0x1F ADD PUSH1 0x20 DUP1 SWAP2 DIV MUL PUSH1 0x20 ADD PUSH1 0x40 MLOAD SWAP1 DUP2 ADD PUSH1 0x40 MSTORE DUP1 SWAP3 SWAP2 SWAP1 DUP2 DUP2 MSTORE PUSH1 0x20 ADD DUP3 DUP1 SLOAD PUSH2 0x1488 SWAP1 PUSH2 0x1F64 JUMP JUMPDEST DUP1 ISZERO PUSH2 0x14D3 JUMPI DUP1 PUSH1 0x1F LT PUSH2 0x14AA JUMPI PUSH2 0x100 DUP1 DUP4 SLOAD DIV MUL DUP4 MSTORE SWAP2 PUSH1 0x20 ADD SWAP2 PUSH2 0x14D3 JUMP JUMPDEST DUP3 ADD SWAP2 SWAP1 PUSH0 MSTORE PUSH1 0x20 PUSH0 KECCAK256 SWAP1 JUMPDEST DUP2 SLOAD DUP2 MSTORE SWAP1 PUSH1 0x1 ADD SWAP1 PUSH1 0x20 ADD DUP1 DUP4 GT PUSH2 0x14B6 JUMPI DUP3 SWAP1 SUB PUSH1 0x1F AND DUP3 ADD SWAP2 JUMPDEST POP POP POP POP POP SWAP4 POP SWAP5 POP SWAP5 POP SWAP5 POP SWAP5 POP POP SWAP3 SWAP6 SWAP2 SWAP5 POP SWAP3 POP JUMP JUMPDEST PUSH1 0x60 PUSH0 PUSH1 0x1 PUSH0 DUP5 DUP2 MSTORE PUSH1 0x20 ADD SWAP1 DUP2 MSTORE PUSH1 0x20 ADD PUSH0 KECCAK256 SWAP1 POP DUP1 PUSH1 0xB ADD DUP1 SLOAD DUP1 PUSH1 0x20 MUL PUSH1 0x20 ADD PUSH1 0x40 MLOAD SWAP1 DUP2 ADD PUSH1 0x40 MSTORE DUP1 SWAP3 SWAP2 SWAP1 DUP2 DUP2 MSTORE PUSH1 0x20 ADD DUP3 DUP1 SLOAD DUP1 ISZERO PUSH2 0x1583 JUMPI PUSH1 0x20 MUL DUP3 ADD SWAP2 SWAP1 PUSH0 MSTORE PUSH1 0x20 PUSH0 KECCAK256 SWAP1 JUMPDEST DUP2 PUSH0 SWAP1 SLOAD SWAP1 PUSH2 0x100 EXP SWAP1 DIV PUSH20 0xFFFFFFFFFFFFFFFFFFFFFFFFFFFFFFFFFFFFFFFF AND PUSH20 0xFFFFFFFFFFFFFFFFFFFFFFFFFFFFFFFFFFFFFFFF AND DUP2 MSTORE PUSH1 0x20 ADD SWAP1 PUSH1 0x1 ADD SWAP1 DUP1 DUP4 GT PUSH2 0x153A JUMPI JUMPDEST POP POP POP POP POP SWAP2 POP POP SWAP2 SWAP1 POP JUMP JUMPDEST PUSH0 SLOAD DUP2 JUMP JUMPDEST PUSH0 PUSH1 0x40 MLOAD SWAP1 POP SWAP1 JUMP JUMPDEST PUSH0 DUP1 REVERT JUMPDEST PUSH0 DUP1 REVERT JUMPDEST PUSH0 DUP2 SWAP1 POP SWAP2 SWAP1 POP JUMP JUMPDEST PUSH2 0x15B8 DUP2 PUSH2 0x15A6 JUMP JUMPDEST DUP2 EQ PUSH2 0x15C2 JUMPI PUSH0 DUP1 REVERT JUMPDEST POP JUMP JUMPDEST PUSH0 DUP2 CALLDATALOAD SWAP1 POP PUSH2 0x15D3 DUP2 PUSH2 0x15AF JUMP JUMPDEST SWAP3 SWAP2 POP POP JUMP JUMPDEST PUSH0 PUSH1 0x20 DUP3 DUP5 SUB SLT ISZERO PUSH2 0x15EE JUMPI PUSH2 0x15ED PUSH2 0x159E JUMP JUMPDEST JUMPDEST PUSH0 PUSH2 0x15FB DUP5 DUP3 DUP6 ADD PUSH2 0x15C5 JUMP JUMPDEST SWAP2 POP POP SWAP3 SWAP2 POP POP JUMP JUMPDEST PUSH2 0x160D DUP2 PUSH2 0x15A6 JUMP JUMPDEST DUP3 MSTORE POP POP JUMP JUMPDEST PUSH0 DUP2 MLOAD SWAP1 POP SWAP2 SWAP1 POP JUMP JUMPDEST PUSH0 DUP3 DUP3 MSTORE PUSH1 0x20 DUP3 ADD SWAP1 POP SWAP3 SWAP2 POP POP JUMP JUMPDEST DUP3 DUP2 DUP4 MCOPY PUSH0 DUP4 DUP4 ADD MSTORE POP POP POP JUMP JUMPDEST PUSH0 PUSH1 0x1F NOT PUSH1 0x1F DUP4 ADD AND SWAP1 POP SWAP2 SWAP1 POP JUMP JUMPDEST PUSH0 PUSH2 0x1655 DUP3 PUSH2 0x1613 JUMP JUMPDEST PUSH2 0x165F DUP2 DUP6 PUSH2 0x161D JUMP JUMPDEST SWAP4 POP PUSH2 0x166F DUP2 DUP6 PUSH1 0x20 DUP7 ADD PUSH2 0x162D JUMP JUMPDEST PUSH2 0x1678 DUP2 PUSH2 0x163B JUMP JUMPDEST DUP5 ADD SWAP2 POP POP SWAP3 SWAP2 POP POP JUMP JUMPDEST PUSH0 PUSH20 0xFFFFFFFFFFFFFFFFFFFFFFFFFFFFFFFFFFFFFFFF DUP3 AND SWAP1 POP SWAP2 SWAP1 POP JUMP JUMPDEST PUSH0 PUSH2 0x16AC DUP3 PUSH2 0x1683 JUMP JUMPDEST SWAP1 POP SWAP2 SWAP1 POP JUMP JUMPDEST PUSH2 0x16BC DUP2 PUSH2 0x16A2 JUMP JUMPDEST DUP3 MSTORE POP POP JUMP JUMPDEST PUSH32 0x4E487B7100000000000000000000000000000000000000000000000000000000 PUSH0 MSTORE PUSH1 0x21 PUSH1 0x4 MSTORE PUSH1 0x24 PUSH0 REVERT JUMPDEST PUSH1 0x3 DUP2 LT PUSH2 0x1700 JUMPI PUSH2 0x16FF PUSH2 0x16C2 JUMP JUMPDEST JUMPDEST POP JUMP JUMPDEST PUSH0 DUP2 SWAP1 POP PUSH2 0x1710 DUP3 PUSH2 0x16EF JUMP JUMPDEST SWAP2 SWAP1 POP JUMP JUMPDEST PUSH0 PUSH2 0x171F DUP3 PUSH2 0x1703 JUMP JUMPDEST SWAP1 POP SWAP2 SWAP1 POP JUMP JUMPDEST PUSH2 0x172F DUP2 PUSH2 0x1715 JUMP JUMPDEST DUP3 MSTORE POP POP JUMP JUMPDEST PUSH0 PUSH2 0x120 DUP3 ADD SWAP1 POP PUSH2 0x1749 PUSH0 DUP4 ADD DUP13 PUSH2 0x1604 JUMP JUMPDEST DUP2 DUP2 SUB PUSH1 0x20 DUP4 ADD MSTORE PUSH2 0x175B DUP2 DUP12 PUSH2 0x164B JUMP JUMPDEST SWAP1 POP DUP2 DUP2 SUB PUSH1 0x40 DUP4 ADD MSTORE PUSH2 0x176F DUP2 DUP11 PUSH2 0x164B JUMP JUMPDEST SWAP1 POP PUSH2 0x177E PUSH1 0x60 DUP4 ADD DUP10 PUSH2 0x1604 JUMP JUMPDEST PUSH2 0x178B PUSH1 0x80 DUP4 ADD DUP9 PUSH2 0x1604 JUMP JUMPDEST PUSH2 0x1798 PUSH1 0xA0 DUP4 ADD DUP8 PUSH2 0x16B3 JUMP JUMPDEST PUSH2 0x17A5 PUSH1 0xC0 DUP4 ADD DUP7 PUSH2 0x1604 JUMP JUMPDEST PUSH2 0x17B2 PUSH1 0xE0 DUP4 ADD DUP6 PUSH2 0x1726 JUMP JUMPDEST PUSH2 0x17C0 PUSH2 0x100 DUP4 ADD DUP5 PUSH2 0x1604 JUMP JUMPDEST SWAP11 SWAP10 POP POP POP POP POP POP POP POP POP POP JUMP JUMPDEST PUSH0 DUP1 PUSH1 0x40 DUP4 DUP6 SUB SLT ISZERO PUSH2 0x17E4 JUMPI PUSH2 0x17E3 PUSH2 0x159E JUMP JUMPDEST JUMPDEST PUSH0 PUSH2 0x17F1 DUP6 DUP3 DUP7 ADD PUSH2 0x15C5 JUMP JUMPDEST SWAP3 POP POP PUSH1 0x20 PUSH2 0x1802 DUP6 DUP3 DUP7 ADD PUSH2 0x15C5 JUMP JUMPDEST SWAP2 POP POP SWAP3 POP SWAP3 SWAP1 POP JUMP JUMPDEST PUSH0 DUP1 REVERT JUMPDEST PUSH0 DUP1 REVERT JUMPDEST PUSH32 0x4E487B7100000000000000000000000000000000000000000000000000000000 PUSH0 MSTORE PUSH1 0x41 PUSH1 0x4 MSTORE PUSH1 0x24 PUSH0 REVERT JUMPDEST PUSH2 0x184A DUP3 PUSH2 0x163B JUMP JUMPDEST DUP2 ADD DUP2 DUP2 LT PUSH8 0xFFFFFFFFFFFFFFFF DUP3 GT OR ISZERO PUSH2 0x1869 JUMPI PUSH2 0x1868 PUSH2 0x1814 JUMP JUMPDEST JUMPDEST DUP1 PUSH1 0x40 MSTORE POP POP POP JUMP JUMPDEST PUSH0 PUSH2 0x187B PUSH2 0x1595 JUMP JUMPDEST SWAP1 POP PUSH2 0x1887 DUP3 DUP3 PUSH2 0x1841 JUMP JUMPDEST SWAP2 SWAP1 POP JUMP JUMPDEST PUSH0 PUSH8 0xFFFFFFFFFFFFFFFF DUP3 GT ISZERO PUSH2 0x18A6 JUMPI PUSH2 0x18A5 PUSH2 0x1814 JUMP JUMPDEST JUMPDEST PUSH2 0x18AF DUP3 PUSH2 0x163B JUMP JUMPDEST SWAP1 POP PUSH1 0x20 DUP2 ADD SWAP1 POP SWAP2 SWAP1 POP JUMP JUMPDEST DUP3 DUP2 DUP4 CALLDATACOPY PUSH0 DUP4 DUP4 ADD MSTORE POP POP POP JUMP JUMPDEST PUSH0 PUSH2 0x18DC PUSH2 0x18D7 DUP5 PUSH2 0x188C JUMP JUMPDEST PUSH2 0x1872 JUMP JUMPDEST SWAP1 POP DUP3 DUP2 MSTORE PUSH1 0x20 DUP2 ADD DUP5 DUP5 DUP5 ADD GT ISZERO PUSH2 0x18F8 JUMPI PUSH2 0x18F7 PUSH2 0x1810 JUMP JUMPDEST JUMPDEST PUSH2 0x1903 DUP5 DUP3 DUP6 PUSH2 0x18BC JUMP JUMPDEST POP SWAP4 SWAP3 POP POP POP JUMP JUMPDEST PUSH0 DUP3 PUSH1 0x1F DUP4 ADD SLT PUSH2 0x191F JUMPI PUSH2 0x191E PUSH2 0x180C JUMP JUMPDEST JUMPDEST DUP2 CALLDATALOAD PUSH2 0x192F DUP5 DUP3 PUSH1 0x20 DUP7 ADD PUSH2 0x18CA JUMP JUMPDEST SWAP2 POP POP SWAP3 SWAP2 POP POP JUMP JUMPDEST PUSH0 PUSH8 0xFFFFFFFFFFFFFFFF DUP3 GT ISZERO PUSH2 0x1952 JUMPI PUSH2 0x1951 PUSH2 0x1814 JUMP JUMPDEST JUMPDEST PUSH1 0x20 DUP3 MUL SWAP1 POP PUSH1 0x20 DUP2 ADD SWAP1 POP SWAP2 SWAP1 POP JUMP JUMPDEST PUSH0 DUP1 REVERT JUMPDEST PUSH0 PUSH2 0x1979 PUSH2 0x1974 DUP5 PUSH2 0x1938 JUMP JUMPDEST PUSH2 0x1872 JUMP JUMPDEST SWAP1 POP DUP1 DUP4 DUP3 MSTORE PUSH1 0x20 DUP3 ADD SWAP1 POP PUSH1 0x20 DUP5 MUL DUP4 ADD DUP6 DUP2 GT ISZERO PUSH2 0x199C JUMPI PUSH2 0x199B PUSH2 0x1963 JUMP JUMPDEST JUMPDEST DUP4 JUMPDEST DUP2 DUP2 LT ISZERO PUSH2 0x19E3 JUMPI DUP1 CALLDATALOAD PUSH8 0xFFFFFFFFFFFFFFFF DUP2 GT ISZERO PUSH2 0x19C1 JUMPI PUSH2 0x19C0 PUSH2 0x180C JUMP JUMPDEST JUMPDEST DUP1 DUP7 ADD PUSH2 0x19CE DUP10 DUP3 PUSH2 0x190B JUMP JUMPDEST DUP6 MSTORE PUSH1 0x20 DUP6 ADD SWAP5 POP POP POP PUSH1 0x20 DUP2 ADD SWAP1 POP PUSH2 0x199E JUMP JUMPDEST POP POP POP SWAP4 SWAP3 POP POP POP JUMP JUMPDEST PUSH0 DUP3 PUSH1 0x1F DUP4 ADD SLT PUSH2 0x1A01 JUMPI PUSH2 0x1A00 PUSH2 0x180C JUMP JUMPDEST JUMPDEST DUP2 CALLDATALOAD PUSH2 0x1A11 DUP5 DUP3 PUSH1 0x20 DUP7 ADD PUSH2 0x1967 JUMP JUMPDEST SWAP2 POP POP SWAP3 SWAP2 POP POP JUMP JUMPDEST PUSH0 PUSH8 0xFFFFFFFFFFFFFFFF DUP3 GT ISZERO PUSH2 0x1A34 JUMPI PUSH2 0x1A33 PUSH2 0x1814 JUMP JUMPDEST JUMPDEST PUSH1 0x20 DUP3 MUL SWAP1 POP PUSH1 0x20 DUP2 ADD SWAP1 POP SWAP2 SWAP1 POP JUMP JUMPDEST PUSH0 PUSH2 0x1A57 PUSH2 0x1A52 DUP5 PUSH2 0x1A1A JUMP JUMPDEST PUSH2 0x1872 JUMP JUMPDEST SWAP1 POP DUP1 DUP4 DUP3 MSTORE PUSH1 0x20 DUP3 ADD SWAP1 POP PUSH1 0x20 DUP5 MUL DUP4 ADD DUP6 DUP2 GT ISZERO PUSH2 0x1A7A JUMPI PUSH2 0x1A79 PUSH2 0x1963 JUMP JUMPDEST JUMPDEST DUP4 JUMPDEST DUP2 DUP2 LT ISZERO PUSH2 0x1AA3 JUMPI DUP1 PUSH2 0x1A8F DUP9 DUP3 PUSH2 0x15C5 JUMP JUMPDEST DUP5 MSTORE PUSH1 0x20 DUP5 ADD SWAP4 POP POP PUSH1 0x20 DUP2 ADD SWAP1 POP PUSH2 0x1A7C JUMP JUMPDEST POP POP POP SWAP4 SWAP3 POP POP POP JUMP JUMPDEST PUSH0 DUP3 PUSH1 0x1F DUP4 ADD SLT PUSH2 0x1AC1 JUMPI PUSH2 0x1AC0 PUSH2 0x180C JUMP JUMPDEST JUMPDEST DUP2 CALLDATALOAD PUSH2 0x1AD1 DUP5 DUP3 PUSH1 0x20 DUP7 ADD PUSH2 0x1A45 JUMP JUMPDEST SWAP2 POP POP SWAP3 SWAP2 POP POP JUMP JUMPDEST PUSH0 DUP1 PUSH0 DUP1 PUSH0 DUP1 PUSH1 0xC0 DUP8 DUP10 SUB SLT ISZERO PUSH2 0x1AF4 JUMPI PUSH2 0x1AF3 PUSH2 0x159E JUMP JUMPDEST JUMPDEST PUSH0 DUP8 ADD CALLDATALOAD PUSH8 0xFFFFFFFFFFFFFFFF DUP2 GT ISZERO PUSH2 0x1B11 JUMPI PUSH2 0x1B10 PUSH2 0x15A2 JUMP JUMPDEST JUMPDEST PUSH2 0x1B1D DUP10 DUP3 DUP11 ADD PUSH2 0x190B JUMP JUMPDEST SWAP7 POP POP PUSH1 0x20 DUP8 ADD CALLDATALOAD PUSH8 0xFFFFFFFFFFFFFFFF DUP2 GT ISZERO PUSH2 0x1B3E JUMPI PUSH2 0x1B3D PUSH2 0x15A2 JUMP JUMPDEST JUMPDEST PUSH2 0x1B4A DUP10 DUP3 DUP11 ADD PUSH2 0x190B JUMP JUMPDEST SWAP6 POP POP PUSH1 0x40 PUSH2 0x1B5B DUP10 DUP3 DUP11 ADD PUSH2 0x15C5 JUMP JUMPDEST SWAP5 POP POP PUSH1 0x60 PUSH2 0x1B6C DUP10 DUP3 DUP11 ADD PUSH2 0x15C5 JUMP JUMPDEST SWAP4 POP POP PUSH1 0x80 DUP8 ADD CALLDATALOAD PUSH8 0xFFFFFFFFFFFFFFFF DUP2 GT ISZERO PUSH2 0x1B8D JUMPI PUSH2 0x1B8C PUSH2 0x15A2 JUMP JUMPDEST JUMPDEST PUSH2 0x1B99 DUP10 DUP3 DUP11 ADD PUSH2 0x19ED JUMP JUMPDEST SWAP3 POP POP PUSH1 0xA0 DUP8 ADD CALLDATALOAD PUSH8 0xFFFFFFFFFFFFFFFF DUP2 GT ISZERO PUSH2 0x1BBA JUMPI PUSH2 0x1BB9 PUSH2 0x15A2 JUMP JUMPDEST JUMPDEST PUSH2 0x1BC6 DUP10 DUP3 DUP11 ADD PUSH2 0x1AAD JUMP JUMPDEST SWAP2 POP POP SWAP3 SWAP6 POP SWAP3 SWAP6 POP SWAP3 SWAP6 JUMP JUMPDEST PUSH0 PUSH1 0x20 DUP3 ADD SWAP1 POP PUSH2 0x1BE6 PUSH0 DUP4 ADD DUP5 PUSH2 0x1604 JUMP JUMPDEST SWAP3 SWAP2 POP POP JUMP JUMPDEST PUSH0 DUP2 MLOAD SWAP1 POP SWAP2 SWAP1 POP JUMP JUMPDEST PUSH0 DUP3 DUP3 MSTORE PUSH1 0x20 DUP3 ADD SWAP1 POP SWAP3 SWAP2 POP POP JUMP JUMPDEST PUSH0 DUP2 SWAP1 POP PUSH1 0x20 DUP3 ADD SWAP1 POP SWAP2 SWAP1 POP JUMP JUMPDEST PUSH2 0x1C1E DUP2 PUSH2 0x15A6 JUMP JUMPDEST DUP3 MSTORE POP POP JUMP JUMPDEST PUSH0 PUSH2 0x1C2F DUP4 DUP4 PUSH2 0x1C15 JUMP JUMPDEST PUSH1 0x20 DUP4 ADD SWAP1 POP SWAP3 SWAP2 POP POP JUMP JUMPDEST PUSH0 PUSH1 0x20 DUP3 ADD SWAP1 POP SWAP2 SWAP1 POP JUMP JUMPDEST PUSH0 PUSH2 0x1C51 DUP3 PUSH2 0x1BEC JUMP JUMPDEST PUSH2 0x1C5B DUP2 DUP6 PUSH2 0x1BF6 JUMP JUMPDEST SWAP4 POP PUSH2 0x1C66 DUP4 PUSH2 0x1C06 JUMP JUMPDEST DUP1 PUSH0 JUMPDEST DUP4 DUP2 LT ISZERO PUSH2 0x1C96 JUMPI DUP2 MLOAD PUSH2 0x1C7D DUP9 DUP3 PUSH2 0x1C24 JUMP JUMPDEST SWAP8 POP PUSH2 0x1C88 DUP4 PUSH2 0x1C3B JUMP JUMPDEST SWAP3 POP POP PUSH1 0x1 DUP2 ADD SWAP1 POP PUSH2 0x1C69 JUMP JUMPDEST POP DUP6 SWAP4 POP POP POP POP SWAP3 SWAP2 POP POP JUMP JUMPDEST PUSH0 PUSH1 0x20 DUP3 ADD SWAP1 POP DUP2 DUP2 SUB PUSH0 DUP4 ADD MSTORE PUSH2 0x1CBB DUP2 DUP5 PUSH2 0x1C47 JUMP JUMPDEST SWAP1 POP SWAP3 SWAP2 POP POP JUMP JUMPDEST PUSH0 PUSH2 0x1CCD DUP3 PUSH2 0x1683 JUMP JUMPDEST SWAP1 POP SWAP2 SWAP1 POP JUMP JUMPDEST PUSH2 0x1CDD DUP2 PUSH2 0x1CC3 JUMP JUMPDEST DUP2 EQ PUSH2 0x1CE7 JUMPI PUSH0 DUP1 REVERT JUMPDEST POP JUMP JUMPDEST PUSH0 DUP2 CALLDATALOAD SWAP1 POP PUSH2 0x1CF8 DUP2 PUSH2 0x1CD4 JUMP JUMPDEST SWAP3 SWAP2 POP POP JUMP JUMPDEST PUSH0 DUP1 PUSH1 0x40 DUP4 DUP6 SUB SLT ISZERO PUSH2 0x1D14 JUMPI PUSH2 0x1D13 PUSH2 0x159E JUMP JUMPDEST JUMPDEST PUSH0 PUSH2 0x1D21 DUP6 DUP3 DUP7 ADD PUSH2 0x15C5 JUMP JUMPDEST SWAP3 POP POP PUSH1 0x20 PUSH2 0x1D32 DUP6 DUP3 DUP7 ADD PUSH2 0x1CEA JUMP JUMPDEST SWAP2 POP POP SWAP3 POP SWAP3 SWAP1 POP JUMP JUMPDEST PUSH0 DUP2 ISZERO ISZERO SWAP1 POP SWAP2 SWAP1 POP JUMP JUMPDEST PUSH2 0x1D50 DUP2 PUSH2 0x1D3C JUMP JUMPDEST DUP3 MSTORE POP POP JUMP JUMPDEST PUSH0 PUSH1 0x40 DUP3 ADD SWAP1 POP PUSH2 0x1D69 PUSH0 DUP4 ADD DUP6 PUSH2 0x1604 JUMP JUMPDEST PUSH2 0x1D76 PUSH1 0x20 DUP4 ADD DUP5 PUSH2 0x1D47 JUMP JUMPDEST SWAP4 SWAP3 POP POP POP JUMP JUMPDEST PUSH2 0x1D86 DUP2 PUSH2 0x1CC3 JUMP JUMPDEST DUP3 MSTORE POP POP JUMP JUMPDEST PUSH0 PUSH2 0x100 DUP3 ADD SWAP1 POP DUP2 DUP2 SUB PUSH0 DUP4 ADD MSTORE PUSH2 0x1DA5 DUP2 DUP12 PUSH2 0x164B JUMP JUMPDEST SWAP1 POP DUP2 DUP2 SUB PUSH1 0x20 DUP4 ADD MSTORE PUSH2 0x1DB9 DUP2 DUP11 PUSH2 0x164B JUMP JUMPDEST SWAP1 POP PUSH2 0x1DC8 PUSH1 0x40 DUP4 ADD DUP10 PUSH2 0x1604 JUMP JUMPDEST PUSH2 0x1DD5 PUSH1 0x60 DUP4 ADD DUP9 PUSH2 0x1604 JUMP JUMPDEST PUSH2 0x1DE2 PUSH1 0x80 DUP4 ADD DUP8 PUSH2 0x1604 JUMP JUMPDEST PUSH2 0x1DEF PUSH1 0xA0 DUP4 ADD DUP7 PUSH2 0x1D7D JUMP JUMPDEST PUSH2 0x1DFC PUSH1 0xC0 DUP4 ADD DUP6 PUSH2 0x1726 JUMP JUMPDEST PUSH2 0x1E09 PUSH1 0xE0 DUP4 ADD DUP5 PUSH2 0x1604 JUMP JUMPDEST SWAP10 SWAP9 POP POP POP POP POP POP POP POP POP JUMP JUMPDEST PUSH0 PUSH1 0x80 DUP3 ADD SWAP1 POP DUP2 DUP2 SUB PUSH0 DUP4 ADD MSTORE PUSH2 0x1E2E DUP2 DUP8 PUSH2 0x164B JUMP JUMPDEST SWAP1 POP PUSH2 0x1E3D PUSH1 0x20 DUP4 ADD DUP7 PUSH2 0x1604 JUMP JUMPDEST PUSH2 0x1E4A PUSH1 0x40 DUP4 ADD DUP6 PUSH2 0x1D47 JUMP JUMPDEST PUSH2 0x1E57 PUSH1 0x60 DUP4 ADD DUP5 PUSH2 0x1604 JUMP JUMPDEST SWAP6 SWAP5 POP POP POP POP POP JUMP JUMPDEST PUSH0 DUP2 MLOAD SWAP1 POP SWAP2 SWAP1 POP JUMP JUMPDEST PUSH0 DUP3 DUP3 MSTORE PUSH1 0x20 DUP3 ADD SWAP1 POP SWAP3 SWAP2 POP POP JUMP JUMPDEST PUSH0 DUP2 SWAP1 POP PUSH1 0x20 DUP3 ADD SWAP1 POP SWAP2 SWAP1 POP JUMP JUMPDEST PUSH2 0x1E92 DUP2 PUSH2 0x1CC3 JUMP JUMPDEST DUP3 MSTORE POP POP JUMP JUMPDEST PUSH0 PUSH2 0x1EA3 DUP4 DUP4 PUSH2 0x1E89 JUMP JUMPDEST PUSH1 0x20 DUP4 ADD SWAP1 POP SWAP3 SWAP2 POP POP JUMP JUMPDEST PUSH0 PUSH1 0x20 DUP3 ADD SWAP1 POP SWAP2 SWAP1 POP JUMP JUMPDEST PUSH0 PUSH2 0x1EC5 DUP3 PUSH2 0x1E60 JUMP JUMPDEST PUSH2 0x1ECF DUP2 DUP6 PUSH2 0x1E6A JUMP JUMPDEST SWAP4 POP PUSH2 0x1EDA DUP4 PUSH2 0x1E7A JUMP JUMPDEST DUP1 PUSH0 JUMPDEST DUP4 DUP2 LT ISZERO PUSH2 0x1F0A JUMPI DUP2 MLOAD PUSH2 0x1EF1 DUP9 DUP3 PUSH2 0x1E98 JUMP JUMPDEST SWAP8 POP PUSH2 0x1EFC DUP4 PUSH2 0x1EAF JUMP JUMPDEST SWAP3 POP POP PUSH1 0x1 DUP2 ADD SWAP1 POP PUSH2 0x1EDD JUMP JUMPDEST POP DUP6 SWAP4 POP POP POP POP SWAP3 SWAP2 POP POP JUMP JUMPDEST PUSH0 PUSH1 0x20 DUP3 ADD SWAP1 POP DUP2 DUP2 SUB PUSH0 DUP4 ADD MSTORE PUSH2 0x1F2F DUP2 DUP5 PUSH2 0x1EBB JUMP JUMPDEST SWAP1 POP SWAP3 SWAP2 POP POP JUMP JUMPDEST PUSH32 0x4E487B7100000000000000000000000000000000000000000000000000000000 PUSH0 MSTORE PUSH1 0x22 PUSH1 0x4 MSTORE PUSH1 0x24 PUSH0 REVERT JUMPDEST PUSH0 PUSH1 0x2 DUP3 DIV SWAP1 POP PUSH1 0x1 DUP3 AND DUP1 PUSH2 0x1F7B JUMPI PUSH1 0x7F DUP3 AND SWAP2 POP JUMPDEST PUSH1 0x20 DUP3 LT DUP2 SUB PUSH2 0x1F8E JUMPI PUSH2 0x1F8D PUSH2 0x1F37 JUMP JUMPDEST JUMPDEST POP SWAP2 SWAP1 POP JUMP JUMPDEST PUSH32 0x4E487B7100000000000000000000000000000000000000000000000000000000 PUSH0 MSTORE PUSH1 0x32 PUSH1 0x4 MSTORE PUSH1 0x24 PUSH0 REVERT JUMPDEST PUSH32 0x4F6E6C7920636F6E7472696275746F72732063616E20766F7465000000000000 PUSH0 DUP3 ADD MSTORE POP JUMP JUMPDEST PUSH0 PUSH2 0x1FF5 PUSH1 0x1A DUP4 PUSH2 0x161D JUMP JUMPDEST SWAP2 POP PUSH2 0x2000 DUP3 PUSH2 0x1FC1 JUMP JUMPDEST PUSH1 0x20 DUP3 ADD SWAP1 POP SWAP2 SWAP1 POP JUMP JUMPDEST PUSH0 PUSH1 0x20 DUP3 ADD SWAP1 POP DUP2 DUP2 SUB PUSH0 DUP4 ADD MSTORE PUSH2 0x2022 DUP2 PUSH2 0x1FE9 JUMP JUMPDEST SWAP1 POP SWAP2 SWAP1 POP JUMP JUMPDEST PUSH32 0x596F75206861766520616C726561647920766F74656420666F72207468697320 PUSH0 DUP3 ADD MSTORE PUSH32 0x6D696C6573746F6E650000000000000000000000000000000000000000000000 PUSH1 0x20 DUP3 ADD MSTORE POP JUMP JUMPDEST PUSH0 PUSH2 0x2083 PUSH1 0x29 DUP4 PUSH2 0x161D JUMP JUMPDEST SWAP2 POP PUSH2 0x208E DUP3 PUSH2 0x2029 JUMP JUMPDEST PUSH1 0x40 DUP3 ADD SWAP1 POP SWAP2 SWAP1 POP JUMP JUMPDEST PUSH0 PUSH1 0x20 DUP3 ADD SWAP1 POP DUP2 DUP2 SUB PUSH0 DUP4 ADD MSTORE PUSH2 0x20B0 DUP2 PUSH2 0x2077 JUMP JUMPDEST SWAP1 POP SWAP2 SWAP1 POP JUMP JUMPDEST PUSH32 0x4E487B7100000000000000000000000000000000000000000000000000000000 PUSH0 MSTORE PUSH1 0x11 PUSH1 0x4 MSTORE PUSH1 0x24 PUSH0 REVERT JUMPDEST PUSH0 PUSH2 0x20EE DUP3 PUSH2 0x15A6 JUMP JUMPDEST SWAP2 POP PUSH32 0xFFFFFFFFFFFFFFFFFFFFFFFFFFFFFFFFFFFFFFFFFFFFFFFFFFFFFFFFFFFFFFFF DUP3 SUB PUSH2 0x2120 JUMPI PUSH2 0x211F PUSH2 0x20B7 JUMP JUMPDEST JUMPDEST PUSH1 0x1 DUP3 ADD SWAP1 POP SWAP2 SWAP1 POP JUMP JUMPDEST PUSH32 0x4E487B7100000000000000000000000000000000000000000000000000000000 PUSH0 MSTORE PUSH1 0x12 PUSH1 0x4 MSTORE PUSH1 0x24 PUSH0 REVERT JUMPDEST PUSH0 PUSH2 0x2162 DUP3 PUSH2 0x15A6 JUMP JUMPDEST SWAP2 POP PUSH2 0x216D DUP4 PUSH2 0x15A6 JUMP JUMPDEST SWAP3 POP DUP3 PUSH2 0x217D JUMPI PUSH2 0x217C PUSH2 0x212B JUMP JUMPDEST JUMPDEST DUP3 DUP3 DIV SWAP1 POP SWAP3 SWAP2 POP POP JUMP JUMPDEST PUSH0 PUSH1 0x40 DUP3 ADD SWAP1 POP PUSH2 0x219B PUSH0 DUP4 ADD DUP6 PUSH2 0x1604 JUMP JUMPDEST PUSH2 0x21A8 PUSH1 0x20 DUP4 ADD DUP5 PUSH2 0x1604 JUMP JUMPDEST SWAP4 SWAP3 POP POP POP JUMP JUMPDEST PUSH32 0x446561646C696E65206D75737420626520696E20746865206675747572650000 PUSH0 DUP3 ADD MSTORE POP JUMP JUMPDEST PUSH0 PUSH2 0x21E3 PUSH1 0x1E DUP4 PUSH2 0x161D JUMP JUMPDEST SWAP2 POP PUSH2 0x21EE DUP3 PUSH2 0x21AF JUMP JUMPDEST PUSH1 0x20 DUP3 ADD SWAP1 POP SWAP2 SWAP1 POP JUMP JUMPDEST PUSH0 PUSH1 0x20 DUP3 ADD SWAP1 POP DUP2 DUP2 SUB PUSH0 DUP4 ADD MSTORE PUSH2 0x2210 DUP2 PUSH2 0x21D7 JUMP JUMPDEST SWAP1 POP SWAP2 SWAP1 POP JUMP JUMPDEST PUSH32 0x4D696C6573746F6E65732064617461206D69736D617463680000000000000000 PUSH0 DUP3 ADD MSTORE POP JUMP JUMPDEST PUSH0 PUSH2 0x224B PUSH1 0x18 DUP4 PUSH2 0x161D JUMP JUMPDEST SWAP2 POP PUSH2 0x2256 DUP3 PUSH2 0x2217 JUMP JUMPDEST PUSH1 0x20 DUP3 ADD SWAP1 POP SWAP2 SWAP1 POP JUMP JUMPDEST PUSH0 PUSH1 0x20 DUP3 ADD SWAP1 POP DUP2 DUP2 SUB PUSH0 DUP4 ADD MSTORE PUSH2 0x2278 DUP2 PUSH2 0x223F JUMP JUMPDEST SWAP1 POP SWAP2 SWAP1 POP JUMP JUMPDEST PUSH0 DUP2 SWAP1 POP DUP2 PUSH0 MSTORE PUSH1 0x20 PUSH0 KECCAK256 SWAP1 POP SWAP2 SWAP1 POP JUMP JUMPDEST PUSH0 PUSH1 0x20 PUSH1 0x1F DUP4 ADD DIV SWAP1 POP SWAP2 SWAP1 POP JUMP JUMPDEST PUSH0 DUP3 DUP3 SHL SWAP1 POP SWAP3 SWAP2 POP POP JUMP JUMPDEST PUSH0 PUSH1 0x8 DUP4 MUL PUSH2 0x22DB PUSH32 0xFFFFFFFFFFFFFFFFFFFFFFFFFFFFFFFFFFFFFFFFFFFFFFFFFFFFFFFFFFFFFFFF DUP3 PUSH2 0x22A0 JUMP JUMPDEST PUSH2 0x22E5 DUP7 DUP4 PUSH2 0x22A0 JUMP JUMPDEST SWAP6 POP DUP1 NOT DUP5 AND SWAP4 POP DUP1 DUP7 AND DUP5 OR SWAP3 POP POP POP SWAP4 SWAP3 POP POP POP JUMP JUMPDEST PUSH0 DUP2 SWAP1 POP SWAP2 SWAP1 POP JUMP JUMPDEST PUSH0 PUSH2 0x2320 PUSH2 0x231B PUSH2 0x2316 DUP5 PUSH2 0x15A6 JUMP JUMPDEST PUSH2 0x22FD JUMP JUMPDEST PUSH2 0x15A6 JUMP JUMPDEST SWAP1 POP SWAP2 SWAP1 POP JUMP JUMPDEST PUSH0 DUP2 SWAP1 POP SWAP2 SWAP1 POP JUMP JUMPDEST PUSH2 0x2339 DUP4 PUSH2 0x2306 JUMP JUMPDEST PUSH2 0x234D PUSH2 0x2345 DUP3 PUSH2 0x2327 JUMP JUMPDEST DUP5 DUP5 SLOAD PUSH2 0x22AC JUMP JUMPDEST DUP3 SSTORE POP POP POP POP JUMP JUMPDEST PUSH0 SWAP1 JUMP JUMPDEST PUSH2 0x2361 PUSH2 0x2355 JUMP JUMPDEST PUSH2 0x236C DUP2 DUP5 DUP5 PUSH2 0x2330 JUMP JUMPDEST POP POP POP JUMP JUMPDEST JUMPDEST DUP2 DUP2 LT ISZERO PUSH2 0x238F JUMPI PUSH2 0x2384 PUSH0 DUP3 PUSH2 0x2359 JUMP JUMPDEST PUSH1 0x1 DUP2 ADD SWAP1 POP PUSH2 0x2372 JUMP JUMPDEST POP POP JUMP JUMPDEST PUSH1 0x1F DUP3 GT ISZERO PUSH2 0x23D4 JUMPI PUSH2 0x23A5 DUP2 PUSH2 0x227F JUMP JUMPDEST PUSH2 0x23AE DUP5 PUSH2 0x2291 JUMP JUMPDEST DUP2 ADD PUSH1 0x20 DUP6 LT ISZERO PUSH2 0x23BD JUMPI DUP2 SWAP1 POP JUMPDEST PUSH2 0x23D1 PUSH2 0x23C9 DUP6 PUSH2 0x2291 JUMP JUMPDEST DUP4 ADD DUP3 PUSH2 0x2371 JUMP JUMPDEST POP POP JUMPDEST POP POP POP JUMP JUMPDEST PUSH0 DUP3 DUP3 SHR SWAP1 POP SWAP3 SWAP2 POP POP JUMP JUMPDEST PUSH0 PUSH2 0x23F4 PUSH0 NOT DUP5 PUSH1 0x8 MUL PUSH2 0x23D9 JUMP JUMPDEST NOT DUP1 DUP4 AND SWAP2 POP POP SWAP3 SWAP2 POP POP JUMP JUMPDEST PUSH0 PUSH2 0x240C DUP4 DUP4 PUSH2 0x23E5 JUMP JUMPDEST SWAP2 POP DUP3 PUSH1 0x2 MUL DUP3 OR SWAP1 POP SWAP3 SWAP2 POP POP JUMP JUMPDEST PUSH2 0x2425 DUP3 PUSH2 0x1613 JUMP JUMPDEST PUSH8 0xFFFFFFFFFFFFFFFF DUP2 GT ISZERO PUSH2 0x243E JUMPI PUSH2 0x243D PUSH2 0x1814 JUMP JUMPDEST JUMPDEST PUSH2 0x2448 DUP3 SLOAD PUSH2 0x1F64 JUMP JUMPDEST PUSH2 0x2453 DUP3 DUP3 DUP6 PUSH2 0x2393 JUMP JUMPDEST PUSH0 PUSH1 0x20 SWAP1 POP PUSH1 0x1F DUP4 GT PUSH1 0x1 DUP2 EQ PUSH2 0x2484 JUMPI PUSH0 DUP5 ISZERO PUSH2 0x2472 JUMPI DUP3 DUP8 ADD MLOAD SWAP1 POP JUMPDEST PUSH2 0x247C DUP6 DUP3 PUSH2 0x2401 JUMP JUMPDEST DUP7 SSTORE POP PUSH2 0x24E3 JUMP JUMPDEST PUSH1 0x1F NOT DUP5 AND PUSH2 0x2492 DUP7 PUSH2 0x227F JUMP JUMPDEST PUSH0 JUMPDEST DUP3 DUP2 LT ISZERO PUSH2 0x24B9 JUMPI DUP5 DUP10 ADD MLOAD DUP3 SSTORE PUSH1 0x1 DUP3 ADD SWAP2 POP PUSH1 0x20 DUP6 ADD SWAP5 POP PUSH1 0x20 DUP2 ADD SWAP1 POP PUSH2 0x2494 JUMP JUMPDEST DUP7 DUP4 LT ISZERO PUSH2 0x24D6 JUMPI DUP5 DUP10 ADD MLOAD PUSH2 0x24D2 PUSH1 0x1F DUP10 AND DUP3 PUSH2 0x23E5 JUMP JUMPDEST DUP4 SSTORE POP JUMPDEST PUSH1 0x1 PUSH1 0x2 DUP9 MUL ADD DUP9 SSTORE POP POP POP JUMPDEST POP POP POP POP POP POP JUMP JUMPDEST PUSH0 PUSH1 0x80 DUP3 ADD SWAP1 POP DUP2 DUP2 SUB PUSH0 DUP4 ADD MSTORE PUSH2 0x2503 DUP2 DUP8 PUSH2 0x164B JUMP JUMPDEST SWAP1 POP PUSH2 0x2512 PUSH1 0x20 DUP4 ADD DUP7 PUSH2 0x1604 JUMP JUMPDEST PUSH2 0x251F PUSH1 0x40 DUP4 ADD DUP6 PUSH2 0x1604 JUMP JUMPDEST PUSH2 0x252C PUSH1 0x60 DUP4 ADD DUP5 PUSH2 0x1D7D JUMP JUMPDEST SWAP6 SWAP5 POP POP POP POP POP JUMP JUMPDEST PUSH32 0x43616D706169676E206973207374696C6C206163746976650000000000000000 PUSH0 DUP3 ADD MSTORE POP JUMP JUMPDEST PUSH0 PUSH2 0x2569 PUSH1 0x18 DUP4 PUSH2 0x161D JUMP JUMPDEST SWAP2 POP PUSH2 0x2574 DUP3 PUSH2 0x2535 JUMP JUMPDEST PUSH1 0x20 DUP3 ADD SWAP1 POP SWAP2 SWAP1 POP JUMP JUMPDEST PUSH0 PUSH1 0x20 DUP3 ADD SWAP1 POP DUP2 DUP2 SUB PUSH0 DUP4 ADD MSTORE PUSH2 0x2596 DUP2 PUSH2 0x255D JUMP JUMPDEST SWAP1 POP SWAP2 SWAP1 POP JUMP JUMPDEST PUSH32 0x43616D706169676E20776173207375636365737366756C000000000000000000 PUSH0 DUP3 ADD MSTORE POP JUMP JUMPDEST PUSH0 PUSH2 0x25D1 PUSH1 0x17 DUP4 PUSH2 0x161D JUMP JUMPDEST SWAP2 POP PUSH2 0x25DC DUP3 PUSH2 0x259D JUMP JUMPDEST PUSH1 0x20 DUP3 ADD SWAP1 POP SWAP2 SWAP1 POP JUMP JUMPDEST PUSH0 PUSH1 0x20 DUP3 ADD SWAP1 POP DUP2 DUP2 SUB PUSH0 DUP4 ADD MSTORE PUSH2 0x25FE DUP2 PUSH2 0x25C5 JUMP JUMPDEST SWAP1 POP SWAP2 SWAP1 POP JUMP JUMPDEST PUSH32 0x526566756E6420616C726561647920636C61696D656400000000000000000000 PUSH0 DUP3 ADD MSTORE POP JUMP JUMPDEST PUSH0 PUSH2 0x2639 PUSH1 0x16 DUP4 PUSH2 0x161D JUMP JUMPDEST SWAP2 POP PUSH2 0x2644 DUP3 PUSH2 0x2605 JUMP JUMPDEST PUSH1 0x20 DUP3 ADD SWAP1 POP SWAP2 SWAP1 POP JUMP JUMPDEST PUSH0 PUSH1 0x20 DUP3 ADD SWAP1 POP DUP2 DUP2 SUB PUSH0 DUP4 ADD MSTORE PUSH2 0x2666 DUP2 PUSH2 0x262D JUMP JUMPDEST SWAP1 POP SWAP2 SWAP1 POP JUMP JUMPDEST PUSH32 0x4E6F20636F6E747269627574696F6E73206D6164650000000000000000000000 PUSH0 DUP3 ADD MSTORE POP JUMP JUMPDEST PUSH0 PUSH2 0x26A1 PUSH1 0x15 DUP4 PUSH2 0x161D JUMP JUMPDEST SWAP2 POP PUSH2 0x26AC DUP3 PUSH2 0x266D JUMP JUMPDEST PUSH1 0x20 DUP3 ADD SWAP1 POP SWAP2 SWAP1 POP JUMP JUMPDEST PUSH0 PUSH1 0x20 DUP3 ADD SWAP1 POP DUP2 DUP2 SUB PUSH0 DUP4 ADD MSTORE PUSH2 0x26CE DUP2 PUSH2 0x2695 JUMP JUMPDEST SWAP1 POP SWAP2 SWAP1 POP JUMP JUMPDEST PUSH32 0x4F6E6C79207468652063616D706169676E2063726561746F722063616E206669 PUSH0 DUP3 ADD MSTORE PUSH32 0x6E616C697A650000000000000000000000000000000000000000000000000000 PUSH1 0x20 DUP3 ADD MSTORE POP JUMP JUMPDEST PUSH0 PUSH2 0x272F PUSH1 0x26 DUP4 PUSH2 0x161D JUMP JUMPDEST SWAP2 POP PUSH2 0x273A DUP3 PUSH2 0x26D5 JUMP JUMPDEST PUSH1 0x40 DUP3 ADD SWAP1 POP SWAP2 SWAP1 POP JUMP JUMPDEST PUSH0 PUSH1 0x20 DUP3 ADD SWAP1 POP DUP2 DUP2 SUB PUSH0 DUP4 ADD MSTORE PUSH2 0x275C DUP2 PUSH2 0x2723 JUMP JUMPDEST SWAP1 POP SWAP2 SWAP1 POP JUMP JUMPDEST PUSH0 PUSH1 0x20 DUP3 ADD SWAP1 POP PUSH2 0x2776 PUSH0 DUP4 ADD DUP5 PUSH2 0x1726 JUMP JUMPDEST SWAP3 SWAP2 POP POP JUMP JUMPDEST PUSH0 PUSH2 0x2786 DUP3 PUSH2 0x15A6 JUMP JUMPDEST SWAP2 POP PUSH2 0x2791 DUP4 PUSH2 0x15A6 JUMP JUMPDEST SWAP3 POP DUP3 DUP3 SUB SWAP1 POP DUP2 DUP2 GT ISZERO PUSH2 0x27A9 JUMPI PUSH2 0x27A8 PUSH2 0x20B7 JUMP JUMPDEST JUMPDEST SWAP3 SWAP2 POP POP JUMP JUMPDEST PUSH32 0x43616D706169676E2068617320656E6465640000000000000000000000000000 PUSH0 DUP3 ADD MSTORE POP JUMP JUMPDEST PUSH0 PUSH2 0x27E3 PUSH1 0x12 DUP4 PUSH2 0x161D JUMP JUMPDEST SWAP2 POP PUSH2 0x27EE DUP3 PUSH2 0x27AF JUMP JUMPDEST PUSH1 0x20 DUP3 ADD SWAP1 POP SWAP2 SWAP1 POP JUMP JUMPDEST PUSH0 PUSH1 0x20 DUP3 ADD SWAP1 POP DUP2 DUP2 SUB PUSH0 DUP4 ADD MSTORE PUSH2 0x2810 DUP2 PUSH2 0x27D7 JUMP JUMPDEST SWAP1 POP SWAP2 SWAP1 POP JUMP JUMPDEST PUSH32 0x43616D706169676E2066756E64696E6720676F616C2072656163686564000000 PUSH0 DUP3 ADD MSTORE POP JUMP JUMPDEST PUSH0 PUSH2 0x284B PUSH1 0x1D DUP4 PUSH2 0x161D JUMP JUMPDEST SWAP2 POP PUSH2 0x2856 DUP3 PUSH2 0x2817 JUMP JUMPDEST PUSH1 0x20 DUP3 ADD SWAP1 POP SWAP2 SWAP1 POP JUMP JUMPDEST PUSH0 PUSH1 0x20 DUP3 ADD SWAP1 POP DUP2 DUP2 SUB PUSH0 DUP4 ADD MSTORE PUSH2 0x2878 DUP2 PUSH2 0x283F JUMP JUMPDEST SWAP1 POP SWAP2 SWAP1 POP JUMP JUMPDEST PUSH32 0x43616D706169676E206973206E6F742061637469766500000000000000000000 PUSH0 DUP3 ADD MSTORE POP JUMP JUMPDEST PUSH0 PUSH2 0x28B3 PUSH1 0x16 DUP4 PUSH2 0x161D JUMP JUMPDEST SWAP2 POP PUSH2 0x28BE DUP3 PUSH2 0x287F JUMP JUMPDEST PUSH1 0x20 DUP3 ADD SWAP1 POP SWAP2 SWAP1 POP JUMP JUMPDEST PUSH0 PUSH1 0x20 DUP3 ADD SWAP1 POP DUP2 DUP2 SUB PUSH0 DUP4 ADD MSTORE PUSH2 0x28E0 DUP2 PUSH2 0x28A7 JUMP JUMPDEST SWAP1 POP SWAP2 SWAP1 POP JUMP JUMPDEST PUSH0 PUSH2 0x28F1 DUP3 PUSH2 0x15A6 JUMP JUMPDEST SWAP2 POP PUSH2 0x28FC DUP4 PUSH2 0x15A6 JUMP JUMPDEST SWAP3 POP DUP3 DUP3 ADD SWAP1 POP DUP1 DUP3 GT ISZERO PUSH2 0x2914 JUMPI PUSH2 0x2913 PUSH2 0x20B7 JUMP JUMPDEST JUMPDEST SWAP3 SWAP2 POP POP JUMP INVALID LOG2 PUSH5 0x6970667358 0x22 SLT KECCAK256 0xB2 BASEFEE 0xBE DUP2 DUP1 GT 0xE3 0xC7 0x4C 0xA7 0xE8 EXP PUSH10 0xDBDE2BF741647119E40B PUSH16 0xCA2CADC953F28BE564736F6C63430008 BYTE STOP CALLER "
				},
				"gasEstimates": {
					"creation": {
						"codeDepositCost": "2115200",
						"executionCost": "2248",
						"totalCost": "2117448"
					},
					"external": {
						"approveMilestone(uint256,uint256)": "infinite",
						"campaignCounter()": "2512",
						"campaigns(uint256)": "infinite",
						"claimRefund(uint256)": "infinite",
						"contribute(uint256)": "infinite",
						"createCampaign(string,string,uint256,uint256,string[],uint256[])": "infinite",
						"finalizeCampaign(uint256)": "37245",
						"getAllCampaigns()": "infinite",
						"getCampaignContributors(uint256)": "infinite",
						"getCampaignDetails(uint256)": "infinite",
						"getContributorInfo(uint256,address)": "infinite",
						"getMilestoneStatus(uint256,uint256)": "infinite",
						"getTotalContributions(uint256)": "infinite"
					}
				},
				"methodIdentifiers": {
					"approveMilestone(uint256,uint256)": "20913da5",
					"campaignCounter()": "fca604d7",
					"campaigns(uint256)": "141961bc",
					"claimRefund(uint256)": "5b7baf64",
					"contribute(uint256)": "c1cbbca7",
					"createCampaign(string,string,uint256,uint256,string[],uint256[])": "37c6bcaf",
					"finalizeCampaign(uint256)": "6b5ca27d",
					"getAllCampaigns()": "86cdf604",
					"getCampaignContributors(uint256)": "e9dea525",
					"getCampaignDetails(uint256)": "d993de62",
					"getContributorInfo(uint256,address)": "8f9eae2a",
					"getMilestoneStatus(uint256,uint256)": "e8049da1",
					"getTotalContributions(uint256)": "5bd1baaf"
				}
			},
			"storageLayout": {
				"storage": [
					{
						"astId": 55,
						"contract": "contract/CrowdfundingPlatform.sol:CrowdfundingPlatform",
						"label": "campaignCounter",
						"offset": 0,
						"slot": "0",
						"type": "t_uint256"
					},
					{
						"astId": 60,
						"contract": "contract/CrowdfundingPlatform.sol:CrowdfundingPlatform",
						"label": "campaigns",
						"offset": 0,
						"slot": "1",
						"type": "t_mapping(t_uint256,t_struct(Campaign)53_storage)"
					}
				],
				"types": {
					"t_address": {
						"encoding": "inplace",
						"label": "address",
						"numberOfBytes": "20"
					},
					"t_address_payable": {
						"encoding": "inplace",
						"label": "address payable",
						"numberOfBytes": "20"
					},
					"t_array(t_address)dyn_storage": {
						"base": "t_address",
						"encoding": "dynamic_array",
						"label": "address[]",
						"numberOfBytes": "32"
					},
					"t_array(t_struct(Milestone)18_storage)dyn_storage": {
						"base": "t_struct(Milestone)18_storage",
						"encoding": "dynamic_array",
						"label": "struct CrowdfundingPlatform.Milestone[]",
						"numberOfBytes": "32"
					},
					"t_bool": {
						"encoding": "inplace",
						"label": "bool",
						"numberOfBytes": "1"
					},
					"t_enum(CampaignStatus)5": {
						"encoding": "inplace",
						"label": "enum CrowdfundingPlatform.CampaignStatus",
						"numberOfBytes": "1"
					},
					"t_mapping(t_address,t_bool)": {
						"encoding": "mapping",
						"key": "t_address",
						"label": "mapping(address => bool)",
						"numberOfBytes": "32",
						"value": "t_bool"
					},
					"t_mapping(t_address,t_uint256)": {
						"encoding": "mapping",
						"key": "t_address",
						"label": "mapping(address => uint256)",
						"numberOfBytes": "32",
						"value": "t_uint256"
					},
					"t_mapping(t_uint256,t_struct(Campaign)53_storage)": {
						"encoding": "mapping",
						"key": "t_uint256",
						"label": "mapping(uint256 => struct CrowdfundingPlatform.Campaign)",
						"numberOfBytes": "32",
						"value": "t_struct(Campaign)53_storage"
					},
					"t_string_storage": {
						"encoding": "bytes",
						"label": "string",
						"numberOfBytes": "32"
					},
					"t_struct(Campaign)53_storage": {
						"encoding": "inplace",
						"label": "struct CrowdfundingPlatform.Campaign",
						"members": [
							{
								"astId": 20,
								"contract": "contract/CrowdfundingPlatform.sol:CrowdfundingPlatform",
								"label": "id",
								"offset": 0,
								"slot": "0",
								"type": "t_uint256"
							},
							{
								"astId": 22,
								"contract": "contract/CrowdfundingPlatform.sol:CrowdfundingPlatform",
								"label": "name",
								"offset": 0,
								"slot": "1",
								"type": "t_string_storage"
							},
							{
								"astId": 24,
								"contract": "contract/CrowdfundingPlatform.sol:CrowdfundingPlatform",
								"label": "description",
								"offset": 0,
								"slot": "2",
								"type": "t_string_storage"
							},
							{
								"astId": 26,
								"contract": "contract/CrowdfundingPlatform.sol:CrowdfundingPlatform",
								"label": "targetAmount",
								"offset": 0,
								"slot": "3",
								"type": "t_uint256"
							},
							{
								"astId": 28,
								"contract": "contract/CrowdfundingPlatform.sol:CrowdfundingPlatform",
								"label": "deadline",
								"offset": 0,
								"slot": "4",
								"type": "t_uint256"
							},
							{
								"astId": 30,
								"contract": "contract/CrowdfundingPlatform.sol:CrowdfundingPlatform",
								"label": "creator",
								"offset": 0,
								"slot": "5",
								"type": "t_address_payable"
							},
							{
								"astId": 32,
								"contract": "contract/CrowdfundingPlatform.sol:CrowdfundingPlatform",
								"label": "totalContributed",
								"offset": 0,
								"slot": "6",
								"type": "t_uint256"
							},
							{
								"astId": 35,
								"contract": "contract/CrowdfundingPlatform.sol:CrowdfundingPlatform",
								"label": "status",
								"offset": 0,
								"slot": "7",
								"type": "t_enum(CampaignStatus)5"
							},
							{
								"astId": 39,
								"contract": "contract/CrowdfundingPlatform.sol:CrowdfundingPlatform",
								"label": "milestones",
								"offset": 0,
								"slot": "8",
								"type": "t_array(t_struct(Milestone)18_storage)dyn_storage"
							},
							{
								"astId": 43,
								"contract": "contract/CrowdfundingPlatform.sol:CrowdfundingPlatform",
								"label": "contributions",
								"offset": 0,
								"slot": "9",
								"type": "t_mapping(t_address,t_uint256)"
							},
							{
								"astId": 47,
								"contract": "contract/CrowdfundingPlatform.sol:CrowdfundingPlatform",
								"label": "refundsClaimed",
								"offset": 0,
								"slot": "10",
								"type": "t_mapping(t_address,t_bool)"
							},
							{
								"astId": 50,
								"contract": "contract/CrowdfundingPlatform.sol:CrowdfundingPlatform",
								"label": "contributors",
								"offset": 0,
								"slot": "11",
								"type": "t_array(t_address)dyn_storage"
							},
							{
								"astId": 52,
								"contract": "contract/CrowdfundingPlatform.sol:CrowdfundingPlatform",
								"label": "contributorCount",
								"offset": 0,
								"slot": "12",
								"type": "t_uint256"
							}
						],
						"numberOfBytes": "416"
					},
					"t_struct(Milestone)18_storage": {
						"encoding": "inplace",
						"label": "struct CrowdfundingPlatform.Milestone",
						"members": [
							{
								"astId": 7,
								"contract": "contract/CrowdfundingPlatform.sol:CrowdfundingPlatform",
								"label": "description",
								"offset": 0,
								"slot": "0",
								"type": "t_string_storage"
							},
							{
								"astId": 9,
								"contract": "contract/CrowdfundingPlatform.sol:CrowdfundingPlatform",
								"label": "amount",
								"offset": 0,
								"slot": "1",
								"type": "t_uint256"
							},
							{
								"astId": 11,
								"contract": "contract/CrowdfundingPlatform.sol:CrowdfundingPlatform",
								"label": "isApproved",
								"offset": 0,
								"slot": "2",
								"type": "t_bool"
							},
							{
								"astId": 13,
								"contract": "contract/CrowdfundingPlatform.sol:CrowdfundingPlatform",
								"label": "approvalCount",
								"offset": 0,
								"slot": "3",
								"type": "t_uint256"
							},
							{
								"astId": 17,
								"contract": "contract/CrowdfundingPlatform.sol:CrowdfundingPlatform",
								"label": "voted",
								"offset": 0,
								"slot": "4",
								"type": "t_mapping(t_address,t_bool)"
							}
						],
						"numberOfBytes": "160"
					},
					"t_uint256": {
						"encoding": "inplace",
						"label": "uint256",
						"numberOfBytes": "32"
					}
				}
			},
			"userdoc": {
				"kind": "user",
				"methods": {},
				"version": 1
			}
		}
	}
}